{
  "contractName": "BerkToken",
  "abi": [
    {
      "inputs": [],
      "stateMutability": "nonpayable",
      "type": "constructor"
    },
    {
      "anonymous": false,
      "inputs": [
        {
          "indexed": false,
          "internalType": "address",
          "name": "from",
          "type": "address"
        },
        {
          "indexed": false,
          "internalType": "uint256",
          "name": "amount",
          "type": "uint256"
        }
      ],
      "name": "Deposit",
      "type": "event"
    },
    {
      "anonymous": false,
      "inputs": [
        {
          "indexed": false,
          "internalType": "address",
          "name": "from",
          "type": "address"
        },
        {
          "indexed": false,
          "internalType": "address",
          "name": "to",
          "type": "address"
        },
        {
          "indexed": false,
          "internalType": "uint256",
          "name": "amount",
          "type": "uint256"
        }
      ],
      "name": "Sent",
      "type": "event"
    },
    {
      "anonymous": false,
      "inputs": [
        {
          "indexed": false,
          "internalType": "address",
          "name": "from",
          "type": "address"
        },
        {
          "indexed": false,
          "internalType": "uint256",
          "name": "amount",
          "type": "uint256"
        },
        {
          "indexed": false,
          "internalType": "uint256",
          "name": "duration",
          "type": "uint256"
        }
      ],
      "name": "Stake",
      "type": "event"
    },
    {
      "anonymous": false,
      "inputs": [
        {
          "indexed": false,
          "internalType": "address",
          "name": "from",
          "type": "address"
        }
      ],
      "name": "StakeCompleted",
      "type": "event"
    },
    {
      "anonymous": false,
      "inputs": [
        {
          "indexed": false,
          "internalType": "address",
          "name": "from",
          "type": "address"
        },
        {
          "indexed": false,
          "internalType": "uint256",
          "name": "duration",
          "type": "uint256"
        }
      ],
      "name": "StakeIsActive",
      "type": "event"
    },
    {
      "anonymous": false,
      "inputs": [
        {
          "indexed": false,
          "internalType": "address",
          "name": "from",
          "type": "address"
        },
        {
          "indexed": false,
          "internalType": "uint256",
          "name": "amount",
          "type": "uint256"
        }
      ],
      "name": "Withdraw",
      "type": "event"
    },
    {
      "inputs": [
        {
          "internalType": "address",
          "name": "",
          "type": "address"
        }
      ],
      "name": "accountStakeAmounts",
      "outputs": [
        {
          "internalType": "uint256",
          "name": "",
          "type": "uint256"
        }
      ],
      "stateMutability": "view",
      "type": "function",
      "constant": true
    },
    {
      "inputs": [
        {
          "internalType": "address",
          "name": "",
          "type": "address"
        }
      ],
      "name": "accountStakeDates",
      "outputs": [
        {
          "internalType": "uint256",
          "name": "",
          "type": "uint256"
        }
      ],
      "stateMutability": "view",
      "type": "function",
      "constant": true
    },
    {
      "inputs": [
        {
          "internalType": "address",
          "name": "",
          "type": "address"
        }
      ],
      "name": "balances",
      "outputs": [
        {
          "internalType": "uint256",
          "name": "",
          "type": "uint256"
        }
      ],
      "stateMutability": "view",
      "type": "function",
      "constant": true
    },
    {
      "inputs": [
        {
          "internalType": "address",
          "name": "",
          "type": "address"
        }
      ],
      "name": "latestStakeRewards",
      "outputs": [
        {
          "internalType": "uint256",
          "name": "",
          "type": "uint256"
        }
      ],
      "stateMutability": "view",
      "type": "function",
      "constant": true
    },
    {
      "inputs": [
        {
          "internalType": "uint256",
          "name": "",
          "type": "uint256"
        }
      ],
      "name": "onSaleCollectibles",
      "outputs": [
        {
          "internalType": "bool",
          "name": "",
          "type": "bool"
        }
      ],
      "stateMutability": "view",
      "type": "function",
      "constant": true
    },
    {
      "inputs": [
        {
          "internalType": "address",
          "name": "receiver",
          "type": "address"
        },
        {
          "internalType": "uint256",
          "name": "amount",
          "type": "uint256"
        }
      ],
      "name": "send",
      "outputs": [],
      "stateMutability": "nonpayable",
      "type": "function"
    },
    {
      "inputs": [
        {
          "internalType": "uint256",
          "name": "duration",
          "type": "uint256"
        },
        {
          "internalType": "uint256",
          "name": "amountToBeStaked",
          "type": "uint256"
        }
      ],
      "name": "stake",
      "outputs": [],
      "stateMutability": "nonpayable",
      "type": "function"
    },
    {
      "inputs": [
        {
          "internalType": "uint256",
          "name": "amount",
          "type": "uint256"
        }
      ],
      "name": "deposit",
      "outputs": [],
      "stateMutability": "payable",
      "type": "function",
      "payable": true
    },
    {
      "inputs": [
        {
          "internalType": "uint256",
          "name": "amount",
          "type": "uint256"
        }
      ],
      "name": "withdraw",
      "outputs": [],
      "stateMutability": "nonpayable",
      "type": "function"
    },
    {
      "inputs": [
        {
          "internalType": "address",
          "name": "publicAddress",
          "type": "address"
        },
        {
          "internalType": "uint256",
          "name": "currentTimeStamp",
          "type": "uint256"
        }
      ],
      "name": "checkStakeStatus",
      "outputs": [],
      "stateMutability": "nonpayable",
      "type": "function"
    },
    {
      "inputs": [
        {
          "internalType": "address",
          "name": "publicAddress",
          "type": "address"
        }
      ],
      "name": "getBalance",
      "outputs": [
        {
          "internalType": "uint256",
          "name": "",
          "type": "uint256"
        }
      ],
      "stateMutability": "view",
      "type": "function",
      "constant": true
    },
    {
      "inputs": [
        {
          "internalType": "address",
          "name": "publicAddress",
          "type": "address"
        }
      ],
      "name": "getStakeAmount",
      "outputs": [
        {
          "internalType": "uint256",
          "name": "",
          "type": "uint256"
        }
      ],
      "stateMutability": "view",
      "type": "function",
      "constant": true
    },
    {
      "inputs": [
        {
          "internalType": "address",
          "name": "publicAddress",
          "type": "address"
        }
      ],
      "name": "getCurrentStakeReward",
      "outputs": [
        {
          "internalType": "uint256",
          "name": "",
          "type": "uint256"
        }
      ],
      "stateMutability": "view",
      "type": "function",
      "constant": true
    },
    {
      "inputs": [
        {
          "internalType": "address",
          "name": "publicAddress",
          "type": "address"
        }
      ],
      "name": "getStakeCompletionDate",
      "outputs": [
        {
          "internalType": "uint256",
          "name": "",
          "type": "uint256"
        }
      ],
      "stateMutability": "view",
      "type": "function",
      "constant": true
    },
    {
      "inputs": [],
      "name": "getInterest",
      "outputs": [
        {
          "internalType": "uint256",
          "name": "",
          "type": "uint256"
        }
      ],
      "stateMutability": "pure",
      "type": "function",
      "constant": true
    },
    {
      "inputs": [],
      "name": "getTokenPrice",
      "outputs": [
        {
          "internalType": "uint256",
          "name": "",
          "type": "uint256"
        }
      ],
      "stateMutability": "view",
      "type": "function",
      "constant": true
    },
    {
      "inputs": [],
      "name": "getContractBalance",
      "outputs": [
        {
          "internalType": "uint256",
          "name": "",
          "type": "uint256"
        }
      ],
      "stateMutability": "view",
      "type": "function",
      "constant": true
    },
    {
      "inputs": [
        {
          "internalType": "string",
          "name": "tokenUri",
          "type": "string"
        },
        {
          "internalType": "string",
          "name": "description",
          "type": "string"
        },
        {
          "internalType": "uint256",
          "name": "price",
          "type": "uint256"
        }
      ],
      "name": "registerNewCollectible",
      "outputs": [],
      "stateMutability": "nonpayable",
      "type": "function"
    },
    {
      "inputs": [
        {
          "internalType": "uint256",
          "name": "tokenID",
          "type": "uint256"
        },
        {
          "internalType": "uint256",
          "name": "price",
          "type": "uint256"
        }
      ],
      "name": "setPriceOfCollectible",
      "outputs": [],
      "stateMutability": "nonpayable",
      "type": "function"
    },
    {
      "inputs": [
        {
          "internalType": "uint256",
          "name": "tokenID",
          "type": "uint256"
        }
      ],
      "name": "buyCollectible",
      "outputs": [],
      "stateMutability": "nonpayable",
      "type": "function"
    },
    {
      "inputs": [
        {
          "internalType": "uint256",
          "name": "tokenID",
          "type": "uint256"
        }
      ],
      "name": "sellCollectible",
      "outputs": [],
      "stateMutability": "nonpayable",
      "type": "function"
    },
    {
      "inputs": [
        {
          "internalType": "uint256",
          "name": "tokenID",
          "type": "uint256"
        }
      ],
      "name": "getTokenURI",
      "outputs": [
        {
          "internalType": "string",
          "name": "",
          "type": "string"
        }
      ],
      "stateMutability": "view",
      "type": "function",
      "constant": true
    },
    {
      "inputs": [
        {
          "internalType": "uint256",
          "name": "tokenID",
          "type": "uint256"
        }
      ],
      "name": "getTokenOwner",
      "outputs": [
        {
          "internalType": "address",
          "name": "",
          "type": "address"
        }
      ],
      "stateMutability": "view",
      "type": "function",
      "constant": true
    },
    {
      "inputs": [
        {
          "internalType": "uint256",
          "name": "tokenID",
          "type": "uint256"
        }
      ],
      "name": "getTokenDescription",
      "outputs": [
        {
          "internalType": "string",
          "name": "",
          "type": "string"
        }
      ],
      "stateMutability": "view",
      "type": "function",
      "constant": true
    },
    {
      "inputs": [
        {
          "internalType": "uint256",
          "name": "tokenID",
          "type": "uint256"
        }
      ],
      "name": "getTokenHash",
      "outputs": [
        {
          "internalType": "bytes32",
          "name": "",
          "type": "bytes32"
        }
      ],
      "stateMutability": "view",
      "type": "function",
      "constant": true
    },
    {
      "inputs": [
        {
          "internalType": "uint256",
          "name": "tokenID",
          "type": "uint256"
        }
      ],
      "name": "getPriceOfCollectible",
      "outputs": [
        {
          "internalType": "uint256",
          "name": "",
          "type": "uint256"
        }
      ],
      "stateMutability": "view",
      "type": "function",
      "constant": true
    },
    {
      "inputs": [],
      "name": "getTokenCount",
      "outputs": [
        {
          "internalType": "uint256",
          "name": "",
          "type": "uint256"
        }
      ],
      "stateMutability": "view",
      "type": "function",
      "constant": true
    }
  ],
  "bytecode": "0x608060405234801561001057600080fd5b5060405161001d9061005f565b604051809103906000f080158015610039573d6000803e3d6000fd5b50600480546001600160a01b0319166001600160a01b039290921691909117905561006c565b610ccd8061162f83390190565b6115b48061007b6000396000f3fe60806040526004361061019c5760003560e01c80637a1ea105116100ec578063b04c8e871161008a578063d0679d3411610064578063d0679d341461052a578063df5a4b641461054a578063e5a4bed314610577578063f8b2cb4f1461058b57600080fd5b8063b04c8e87146104d7578063b3154c08146104f7578063b6b55f251461051757600080fd5b806380b891a4116100c657806380b891a41461041f578063a0cc0dc51461043f578063a1987ae81461045f578063a5cd761f1461049f57600080fd5b80637a1ea105146103935780637b0472f0146103c95780637dd9ebca146103e957600080fd5b80633bb3a24d11610159578063683a123911610133578063683a12391461032b57806368aaca9b1461034b5780636f9fb98a1461036b57806378a895671461037e57600080fd5b80633bb3a24d146102c95780634b94f50e146102f65780635a9880d31461030b57600080fd5b80630c2eb403146101a157806314f5f1c0146101ea578063196ebdfd1461022257806327e235e31461024f5780632e1a7d4d1461027c5780632e6b640c1461029c575b600080fd5b3480156101ad57600080fd5b506101d76101bc3660046111d8565b6001600160a01b031660009081526002602052604090205490565b6040519081526020015b60405180910390f35b3480156101f657600080fd5b506102206102053660046111fc565b6000908152600560205260409020805460ff19166001179055565b005b34801561022e57600080fd5b506101d761023d3660046111d8565b60036020526000908152604090205481565b34801561025b57600080fd5b506101d761026a3660046111d8565b60006020819052908152604090205481565b34801561028857600080fd5b506102206102973660046111fc565b6105c1565b3480156102a857600080fd5b506101d76102b73660046111d8565b60016020526000908152604090205481565b3480156102d557600080fd5b506102e96102e43660046111fc565b6106e4565b6040516101e19190611271565b34801561030257600080fd5b506101d761075f565b34801561031757600080fd5b50610220610326366004611349565b610783565b34801561033757600080fd5b506102206103463660046113b6565b6108b1565b34801561035757600080fd5b506101d76103663660046111fc565b610919565b34801561037757600080fd5b50476101d7565b34801561038a57600080fd5b506101d761098a565b34801561039f57600080fd5b506101d76103ae3660046111d8565b6001600160a01b031660009081526001602052604090205490565b3480156103d557600080fd5b506102206103e43660046113b6565b610a08565b3480156103f557600080fd5b506101d76104043660046111d8565b6001600160a01b031660009081526003602052604090205490565b34801561042b57600080fd5b5061022061043a3660046113d8565b610c10565b34801561044b57600080fd5b506101d761045a3660046111fc565b610cd2565b34801561046b57600080fd5b5061048f61047a3660046111fc565b60056020526000908152604090205460ff1681565b60405190151581526020016101e1565b3480156104ab57600080fd5b506104bf6104ba3660046111fc565b610d06565b6040516001600160a01b0390911681526020016101e1565b3480156104e357600080fd5b506102206104f23660046111fc565b610d76565b34801561050357600080fd5b506102e96105123660046111fc565b610eae565b6102206105253660046111fc565b610ee2565b34801561053657600080fd5b506102206105453660046113d8565b61101a565b34801561055657600080fd5b506101d76105653660046111d8565b60026020526000908152604090205481565b34801561058357600080fd5b5060056101d7565b34801561059757600080fd5b506101d76105a63660046111d8565b6001600160a01b031660009081526020819052604090205490565b3360009081526020819052604090205481111561063f5760405162461bcd60e51b815260206004820152603160248201527f596f7520646f6e2774206861766520656e6f7567682066756e647320696e20796044820152706f75722062616e6b206163636f756e742160781b60648201526084015b60405180910390fd5b600061064961075f565b9050336108fc610659838561141a565b6040518115909202916000818181858888f19350505050158015610681573d6000803e3d6000fd5b5033600090815260208190526040812080548492906106a1908490611439565b909155505060408051338152602081018490527f884edad9ce6fa2440d8a54cc123490eb96d2768479d49ff9c7366125a942436491015b60405180910390a15050565b60048054604051633bb3a24d60e01b81529182018390526060916001600160a01b0390911690633bb3a24d906024015b600060405180830381865afa158015610731573d6000803e3d6000fd5b505050506040513d6000823e601f3d908101601f191682016040526107599190810190611450565b92915050565b60004781610771633b9aca00836114c7565b9050806107595750620186a092915050565b60048054604051631791fab960e21b81526001600160a01b0390911691635e47eae4916107b8918791879187913391016114e9565b600060405180830381600087803b1580156107d257600080fd5b505af11580156107e6573d6000803e3d6000fd5b505050506103e8816107f891906114c7565b33600090815260208190526040902054101561087c5760405162461bcd60e51b815260206004820152603960248201527f53656e64657220646f65736e2774206861766520656e6f7567682066756e647360448201527f20746f2070617920726567697374726174696f6e2066656521000000000000006064820152608401610636565b6108886103e8826114c7565b33600090815260208190526040812080549091906108a7908490611439565b9091555050505050565b6004805460405163683a123960e01b8152918201849052602482018390526001600160a01b03169063683a1239906044015b600060405180830381600087803b1580156108fd57600080fd5b505af1158015610911573d6000803e3d6000fd5b505050505050565b600480546040516368aaca9b60e01b81529182018390526000916001600160a01b03909116906368aaca9b906024015b602060405180830381865afa158015610966573d6000803e3d6000fd5b505050506040513d601f19601f820116820180604052508101906107599190611530565b6000600460009054906101000a90046001600160a01b03166001600160a01b03166378a895676040518163ffffffff1660e01b8152600401602060405180830381865afa1580156109df573d6000803e3d6000fd5b505050506040513d601f19601f82011682018060405250810190610a039190611530565b905090565b33600090815260208190526040902054811115610a755760405162461bcd60e51b815260206004820152602560248201527f596f75206861766520696e73756666696369656e742066756e647320746f207360448201526474616b652160d81b6064820152608401610636565b3360009081526001602052604090205415610af05760405162461bcd60e51b815260206004820152603560248201527f54686973206163636f756e742068617320616c72656164792065737461626c69604482015274736865642061207374616b652070726f636573732160581b6064820152608401610636565b60008211610b4c5760405162461bcd60e51b8152602060048201526024808201527f4475726174696f6e2073686f756c64206265206120706f7369746976652076616044820152636c75652160e01b6064820152608401610636565b3360009081526002602090815260408083208490559082905281208054839290610b77908490611439565b90915550610b8790508242611549565b33600090815260016020526040902055610ba1818361111c565b336000908152600360209081526040808320849055600290915281208054909190610bcd908490611549565b909155505060408051338152602081018390529081018390527f5af417134f72a9d41143ace85b0a26dce6f550f894f2cbc1eeee8810603d91b6906060016106d8565b6001600160a01b03821660009081526001602052604090205481811115610c885760405162461bcd60e51b815260206004820152602660248201527f5374616b65206475726174696f6e20686173206e6f74206265656e20656e646560448201526564207965742160d01b6064820152608401610636565b610c9183611157565b6040516001600160a01b03841681527fa413e42c61420bd7d37579e855fd30e0233a6fcce5217b742816c4a389b9b7d29060200160405180910390a1505050565b6004805460405163a0cc0dc560e01b81529182018390526000916001600160a01b039091169063a0cc0dc590602401610949565b6004805460405163a5cd761f60e01b81529182018390526000916001600160a01b039091169063a5cd761f90602401602060405180830381865afa158015610d52573d6000803e3d6000fd5b505050506040513d601f19601f820116820180604052508101906107599190611561565b600480546040516368aaca9b60e01b81529182018390526000916001600160a01b03909116906368aaca9b90602401602060405180830381865afa158015610dc2573d6000803e3d6000fd5b505050506040513d601f19601f82011682018060405250810190610de69190611530565b33600090815260208190526040902054909150811115610e525760405162461bcd60e51b815260206004820152602160248201527f53656e64657220646f65736e2774206861766520656e6f7567682066756e64736044820152602160f81b6064820152608401610636565b3360009081526020819052604081208054839290610e71908490611439565b909155505060048054604051633a0e4d7960e11b81523392810192909252602482018490526001600160a01b03169063741c9af2906044016108e3565b60048054604051631662a98160e31b81529182018390526060916001600160a01b039091169063b3154c0890602401610714565b60013411610f425760405162461bcd60e51b815260206004820152602760248201527f4465706f73697420616d6f756e74206d757374206265206d6f7265207468616e6044820152662031207765692160c81b6064820152608401610636565b6000610f4c61075f565b9050610f58818361141a565b341015610fc15760405162461bcd60e51b815260206004820152603160248201527f4465706f73697420616d6f756e7420776f727468206d757374206265206174206044820152706c656173742031206265726b636f696e2160781b6064820152608401610636565b3360009081526020819052604081208054849290610fe0908490611549565b9091555050604080513381523460208201527fe1fffcc4923d04b559f4d29a8bfc6cda04eb5b0d3c460751c2402c5c5cc9109c91016106d8565b336000908152602081905260409020548111156110855760405162461bcd60e51b8152602060048201526024808201527f596f7520646f6e2774206861766520656e6f7567682066756e647320746f2073604482015263656e642160e01b6064820152608401610636565b33600090815260208190526040812080548392906110a4908490611439565b90915550506001600160a01b038216600090815260208190526040812080548392906110d1908490611549565b9091555050604080513381526001600160a01b03841660208201529081018290527f3990db2d31862302a685e8086b5755072a6e2b5b780af1ee81ece35ee3cd3345906060016106d8565b6000600561112a838261141a565b905060648411156111435761114081600261141a565b90505b61114f612710826114c7565b949350505050565b6001600160a01b03811660009081526002602090815260408083205491839052822080549192909161118a908490611549565b90915550506001600160a01b03166000908152600160209081526040808320839055600282528083208390556003909152812055565b6001600160a01b03811681146111d557600080fd5b50565b6000602082840312156111ea57600080fd5b81356111f5816111c0565b9392505050565b60006020828403121561120e57600080fd5b5035919050565b60005b83811015611230578181015183820152602001611218565b8381111561123f576000848401525b50505050565b6000815180845261125d816020860160208601611215565b601f01601f19169290920160200192915050565b6020815260006111f56020830184611245565b634e487b7160e01b600052604160045260246000fd5b604051601f8201601f1916810167ffffffffffffffff811182821017156112c3576112c3611284565b604052919050565b600067ffffffffffffffff8211156112e5576112e5611284565b50601f01601f191660200190565b600082601f83011261130457600080fd5b8135611317611312826112cb565b61129a565b81815284602083860101111561132c57600080fd5b816020850160208301376000918101602001919091529392505050565b60008060006060848603121561135e57600080fd5b833567ffffffffffffffff8082111561137657600080fd5b611382878388016112f3565b9450602086013591508082111561139857600080fd5b506113a5868287016112f3565b925050604084013590509250925092565b600080604083850312156113c957600080fd5b50508035926020909101359150565b600080604083850312156113eb57600080fd5b82356113f6816111c0565b946020939093013593505050565b634e487b7160e01b600052601160045260246000fd5b600081600019048311821515161561143457611434611404565b500290565b60008282101561144b5761144b611404565b500390565b60006020828403121561146257600080fd5b815167ffffffffffffffff81111561147957600080fd5b8201601f8101841361148a57600080fd5b8051611498611312826112cb565b8181528560208385010111156114ad57600080fd5b6114be826020830160208601611215565b95945050505050565b6000826114e457634e487b7160e01b600052601260045260246000fd5b500490565b6080815260006114fc6080830187611245565b828103602084015261150e8187611245565b604084019590955250506001600160a01b039190911660609091015292915050565b60006020828403121561154257600080fd5b5051919050565b6000821982111561155c5761155c611404565b500190565b60006020828403121561157357600080fd5b81516111f5816111c056fea2646970667358221220d343292af6b3a8a20fa8e8e81c24c7484e2076186f5d1550b48b770a0c402c6964736f6c634300080c0033608060405234801561001057600080fd5b506001600055610ca8806100256000396000f3fe608060405234801561001057600080fd5b50600436106100ea5760003560e01c8063741c9af21161008c578063a0cc0dc511610066578063a0cc0dc514610225578063a5cd761f14610249578063b3154c0814610272578063d082e3811461028557600080fd5b8063741c9af21461020157806378a89567146102145780639ed3edf01461021c57600080fd5b80634b387691116100c85780634b387691146101755780635e47eae4146101b6578063683a1239146101cb57806368aaca9b146101de57600080fd5b80630a09859d146100ef5780633bb3a24d1461011c578063411ba2351461013c575b600080fd5b6101026100fd3660046108d7565b61028e565b60405161011395949392919061094c565b60405180910390f35b61012f61012a3660046108d7565b6103da565b604051610113919061099a565b61016761014a366004610a57565b805160208183018101805160048252928201919093012091525481565b604051908152602001610113565b61019e6101833660046108d7565b6003602052600090815260409020546001600160a01b031681565b6040516001600160a01b039091168152602001610113565b6101c96101c4366004610ab0565b61047c565b005b6101c96101d9366004610b2e565b61067d565b6101676101ec3660046108d7565b60009081526002602052604090206004015490565b6101c961020f366004610b50565b610741565b6101676107cb565b61016760015481565b6101676102333660046108d7565b6000908152600260208190526040909120015490565b61019e6102573660046108d7565b6000908152600360205260409020546001600160a01b031690565b61012f6102803660046108d7565b6107e1565b61016760005481565b6002602052600090815260409020805481906102a990610b7a565b80601f01602080910402602001604051908101604052809291908181526020018280546102d590610b7a565b80156103225780601f106102f757610100808354040283529160200191610322565b820191906000526020600020905b81548152906001019060200180831161030557829003601f168201915b505050506001830154600284015460038501805494956001600160a01b03909316949193509061035190610b7a565b80601f016020809104026020016040519081016040528092919081815260200182805461037d90610b7a565b80156103ca5780601f1061039f576101008083540402835291602001916103ca565b820191906000526020600020905b8154815290600101906020018083116103ad57829003601f168201915b5050505050908060040154905085565b60008181526002602052604090208054606091906103f790610b7a565b80601f016020809104026020016040519081016040528092919081815260200182805461042390610b7a565b80156104705780601f1061044557610100808354040283529160200191610470565b820191906000526020600020905b81548152906001019060200180831161045357829003601f168201915b50505050509050919050565b60048460405161048c9190610bb5565b9081526020016040518091039020546000146104ef5760405162461bcd60e51b815260206004820152601b60248201527f546f6b656e2055524920697320616c7265616479206f776e656421000000000060448201526064015b60405180910390fd5b60006104fd85858585610801565b90506040518060a00160405280868152602001836001600160a01b03168152602001828152602001858152602001848152506002600080548152602001908152602001600020600082015181600001908051906020019061055f92919061083e565b506020828101516001830180546001600160a01b0319166001600160a01b0390921691909117905560408301516002830155606083015180516105a8926003850192019061083e565b50608082015181600401559050506000546004866040516105c99190610bb5565b9081526040519081900360200190205560008054839160039181806105ed83610be7565b91905055815260200190815260200160002060006101000a8154816001600160a01b0302191690836001600160a01b031602179055507ff87fe3264c3638b723b4ec8d76ef1445bea00685c4b9920442f5f2aa1c2673278260016000546106549190610c02565b604080516001600160a01b03909316835260208301919091520160405180910390a15050505050565b6000828152600360205260409020546001600160a01b031633146106ef5760405162461bcd60e51b815260206004820152602360248201527f53656e64657220646f65736e2774206f776e2074686520636f6c6c65637469626044820152626c652160e81b60648201526084016104e6565b60008281526002602090815260409182902060040183905581518481529081018390527f6ef3bcfe7975df410c416dd608ae52ef55dc72f285111bc824da7962531f2df1910160405180910390a15050565b600081815260036020908152604080832080546001600160a01b03198082166001600160a01b03898116918217909455600286529584902060010180549091168617905582519116808252928101939093528201839052907ff0f62f5e6af9b2c898cea739cd3c2921ac2f36806004128640c6da41810111659060600160405180910390a1505050565b600060016000546107dc9190610c02565b905090565b60008181526002602052604090206003018054606091906103f790610b7a565b60008482858560005460405160200161081e959493929190610c19565b604051602081830303815290604052805190602001209050949350505050565b82805461084a90610b7a565b90600052602060002090601f01602090048101928261086c57600085556108b2565b82601f1061088557805160ff19168380011785556108b2565b828001600101855582156108b2579182015b828111156108b2578251825591602001919060010190610897565b506108be9291506108c2565b5090565b5b808211156108be57600081556001016108c3565b6000602082840312156108e957600080fd5b5035919050565b60005b8381101561090b5781810151838201526020016108f3565b8381111561091a576000848401525b50505050565b600081518084526109388160208601602086016108f0565b601f01601f19169290920160200192915050565b60a08152600061095f60a0830188610920565b6001600160a01b03871660208401526040830186905282810360608401526109878186610920565b9150508260808301529695505050505050565b6020815260006109ad6020830184610920565b9392505050565b634e487b7160e01b600052604160045260246000fd5b600082601f8301126109db57600080fd5b813567ffffffffffffffff808211156109f6576109f66109b4565b604051601f8301601f19908116603f01168101908282118183101715610a1e57610a1e6109b4565b81604052838152866020858801011115610a3757600080fd5b836020870160208301376000602085830101528094505050505092915050565b600060208284031215610a6957600080fd5b813567ffffffffffffffff811115610a8057600080fd5b610a8c848285016109ca565b949350505050565b80356001600160a01b0381168114610aab57600080fd5b919050565b60008060008060808587031215610ac657600080fd5b843567ffffffffffffffff80821115610ade57600080fd5b610aea888389016109ca565b95506020870135915080821115610b0057600080fd5b50610b0d878288016109ca565b93505060408501359150610b2360608601610a94565b905092959194509250565b60008060408385031215610b4157600080fd5b50508035926020909101359150565b60008060408385031215610b6357600080fd5b610b6c83610a94565b946020939093013593505050565b600181811c90821680610b8e57607f821691505b60208210811415610baf57634e487b7160e01b600052602260045260246000fd5b50919050565b60008251610bc78184602087016108f0565b9190910192915050565b634e487b7160e01b600052601160045260246000fd5b6000600019821415610bfb57610bfb610bd1565b5060010190565b600082821015610c1457610c14610bd1565b500390565b60008651610c2b818460208b016108f0565b606087901b6bffffffffffffffffffffffff19169083019081528551610c58816014840160208a016108f0565b01601481019490945250506034820152605401939250505056fea2646970667358221220b38fcf9aab21d20748001219cd2159904f04d7b73ac427e5560c5fc85baa59a964736f6c634300080c0033",
  "immutableReferences": {},
  "source": "// SPDX-License-Identifier: MIT\r\n\r\n// For this project, I can merge my previous two smart contracts into one contract\r\n// or i can use the same layout ( Stakers can provide services in a different node.)\r\n// So, users can buy (swap) tokens with ETH and stake them via a staker.\r\n\r\n// ETH stake provider contract; peers can stake their funds to gain rewards.\r\n\r\npragma solidity ^0.8.0;\r\n\r\nimport \"./IToken.sol\";\r\nimport \"./CollectibleToken.sol\";\r\n\r\ncontract BerkToken is IToken {\r\n    mapping(address => uint256) public balances;\r\n    mapping(address => uint256) public accountStakeDates;\r\n    mapping(address => uint256) public accountStakeAmounts;\r\n    mapping(address => uint256) public latestStakeRewards;\r\n\r\n    // Stake reward rate\r\n    uint256 private constant interest = 5;\r\n\r\n    uint256 private constant maxSupply = 1000000000;\r\n\r\n    CollectibleToken private collectibleToken;\r\n\r\n    mapping(uint256 => bool) public onSaleCollectibles;\r\n\r\n    constructor() {\r\n        collectibleToken = new CollectibleToken();\r\n    }\r\n\r\n    /*\r\n     * Transaction is processed within contract:\r\n     * From: 0x23bc92ca3d8dd080dd65914e40bad5a5bec93769 : owner\r\n     * to:  0xd2d656253b91c5915cafdcd8b3a5249950739e10 : receiver\r\n     */\r\n\r\n    function send(address receiver, uint256 amount) public {\r\n        require(\r\n            balances[msg.sender] >= amount,\r\n            \"You don't have enough funds to send!\"\r\n        );\r\n\r\n        balances[msg.sender] -= amount;\r\n        balances[receiver] += amount;\r\n\r\n        emit Sent(msg.sender, receiver, amount);\r\n    }\r\n\r\n    // duration -> seconds\r\n    function stake(uint256 duration, uint256 amountToBeStaked) public {\r\n        require(\r\n            balances[msg.sender] >= amountToBeStaked,\r\n            \"You have insufficient funds to stake!\"\r\n        );\r\n\r\n        require(\r\n            accountStakeDates[msg.sender] == 0,\r\n            \"This account has already established a stake process!\"\r\n        );\r\n\r\n        require(duration > 0, \"Duration should be a positive value!\");\r\n\r\n        // Stake amounts of accounts:\r\n        accountStakeAmounts[msg.sender] = amountToBeStaked;\r\n\r\n        // Take out the staked amount from the user balance.\r\n        balances[msg.sender] -= amountToBeStaked;\r\n\r\n        // Timestamp for stake duration.\r\n        accountStakeDates[msg.sender] = block.timestamp + duration;\r\n\r\n        // Stake reward\r\n        latestStakeRewards[msg.sender] = calculateStakeReward(\r\n            amountToBeStaked,\r\n            duration\r\n        );\r\n\r\n        accountStakeAmounts[msg.sender] += latestStakeRewards[msg.sender];\r\n\r\n        emit Stake(msg.sender, amountToBeStaked, duration);\r\n    }\r\n\r\n    function calculateStakeReward(uint256 amountToBeStaked, uint256 duration)\r\n        private\r\n        pure\r\n        returns (uint256)\r\n    {\r\n        uint256 stakeRate = interest;\r\n        stakeRate = stakeRate * duration;\r\n\r\n        // More than 100 ETH:\r\n        if (amountToBeStaked > 100) {\r\n            stakeRate = stakeRate * 2;\r\n        }\r\n        return stakeRate / 10000;\r\n    }\r\n\r\n    function deposit(uint256 amount) public payable {\r\n        require(msg.value > 1, \"Deposit amount must be more than 1 wei!\");\r\n\r\n        uint256 tokenPrice = getTokenPrice();\r\n\r\n        require(\r\n            msg.value >= amount * tokenPrice,\r\n            \"Deposit amount worth must be at least 1 berkcoin!\"\r\n        );\r\n\r\n        // Here we get token amount based on the deposited ETH amount:\r\n        // If user deposit 1 ETH and current token price is 0.2 ETH, then\r\n        // user will have 5 tokens in his account address.\r\n\r\n        // uint256 depositedAmount = msg.value;\r\n        // balances[msg.sender] += depositedAmount / tokenPrice;\r\n        balances[msg.sender] += amount;\r\n        emit Deposit(msg.sender, msg.value);\r\n    }\r\n\r\n    function withdraw(uint256 amount) public {\r\n        require(\r\n            balances[msg.sender] >= amount,\r\n            \"You don't have enough funds in your bank account!\"\r\n        );\r\n\r\n        uint256 tokenPrice = getTokenPrice();\r\n\r\n        payable(msg.sender).transfer(amount * tokenPrice);\r\n        balances[msg.sender] -= amount;\r\n\r\n        emit Withdraw(msg.sender, amount);\r\n    }\r\n\r\n    function checkStakeStatus(address publicAddress, uint256 currentTimeStamp)\r\n        public\r\n    {\r\n        uint256 stakeTimeStamp = accountStakeDates[publicAddress];\r\n        require(\r\n            stakeTimeStamp <= currentTimeStamp,\r\n            \"Stake duration has not been ended yet!\"\r\n        );\r\n\r\n        handleCompletedStake(publicAddress);\r\n        emit StakeCompleted(publicAddress);\r\n    }\r\n\r\n    // If account's stake duration is over, then we set stake parameters as 0\r\n    // after adding up the staked amount to the current balance.\r\n\r\n    function handleCompletedStake(address publicAddress) private {\r\n        balances[publicAddress] += accountStakeAmounts[publicAddress];\r\n        accountStakeDates[publicAddress] = 0;\r\n        accountStakeAmounts[publicAddress] = 0;\r\n        latestStakeRewards[publicAddress] = 0;\r\n    }\r\n\r\n    function getBalance(address publicAddress) public view returns (uint256) {\r\n        return balances[publicAddress];\r\n    }\r\n\r\n    function getStakeAmount(address publicAddress)\r\n        public\r\n        view\r\n        returns (uint256)\r\n    {\r\n        return accountStakeAmounts[publicAddress];\r\n    }\r\n\r\n    function getCurrentStakeReward(address publicAddress)\r\n        public\r\n        view\r\n        returns (uint256)\r\n    {\r\n        return latestStakeRewards[publicAddress];\r\n    }\r\n\r\n    function getStakeCompletionDate(address publicAddress)\r\n        public\r\n        view\r\n        returns (uint256)\r\n    {\r\n        return accountStakeDates[publicAddress];\r\n    }\r\n\r\n    function getInterest() public pure returns (uint256) {\r\n        return interest;\r\n    }\r\n\r\n    function getTokenPrice() public view returns (uint256) {\r\n        uint256 contractBalance = getContractBalance();\r\n        uint256 tokenPrice = contractBalance / maxSupply;\r\n\r\n        // If it is the first transaction on this smart contract,\r\n        // token price will be 0. To prevent multiply error, we\r\n        // assing token price with the lowest possible value 1.\r\n\r\n        if (tokenPrice == 0) {\r\n            tokenPrice = 100000;\r\n        }\r\n        return tokenPrice;\r\n    }\r\n\r\n    function getContractBalance() public view returns (uint256) {\r\n        return address(this).balance;\r\n    }\r\n\r\n    // NFT Handlers:\r\n\r\n    function registerNewCollectible(\r\n        string memory tokenUri,\r\n        string memory description,\r\n        uint256 price\r\n    ) public {\r\n        collectibleToken.createNewCollectible(\r\n            tokenUri,\r\n            description,\r\n            price,\r\n            msg.sender\r\n        );\r\n        require(\r\n            balances[msg.sender] >= price / 1000,\r\n            \"Sender doesn't have enough funds to pay registration fee!\"\r\n        );\r\n        balances[msg.sender] -= price / 1000;\r\n    }\r\n\r\n    function setPriceOfCollectible(uint256 tokenID, uint256 price) public {\r\n        collectibleToken.setPriceOfCollectible(tokenID, price);\r\n    }\r\n\r\n    function buyCollectible(uint256 tokenID) public {\r\n        uint256 price = collectibleToken.getPriceOfCollectible(tokenID);\r\n        require(\r\n            price <= balances[msg.sender],\r\n            \"Sender doesn't have enough funds!\"\r\n        );\r\n        balances[msg.sender] -= price;\r\n        collectibleToken.transferCollectible(msg.sender, tokenID);\r\n    }\r\n\r\n    function sellCollectible(uint256 tokenID) public {\r\n        onSaleCollectibles[tokenID] = true;\r\n    }\r\n\r\n    function getTokenURI(uint256 tokenID) public view returns (string memory) {\r\n        return collectibleToken.getTokenURI(tokenID);\r\n    }\r\n\r\n    function getTokenOwner(uint256 tokenID) public view returns (address) {\r\n        return collectibleToken.getTokenOwner(tokenID);\r\n    }\r\n\r\n    function getTokenDescription(uint256 tokenID)\r\n        public\r\n        view\r\n        returns (string memory)\r\n    {\r\n        return collectibleToken.getTokenDescription(tokenID);\r\n    }\r\n\r\n    function getTokenHash(uint256 tokenID) public view returns (bytes32) {\r\n        return collectibleToken.getTokenHash(tokenID);\r\n    }\r\n\r\n    function getPriceOfCollectible(uint256 tokenID)\r\n        public\r\n        view\r\n        returns (uint256)\r\n    {\r\n        return collectibleToken.getPriceOfCollectible(tokenID);\r\n    }\r\n\r\n    function getTokenCount() public view returns (uint256) {\r\n        return collectibleToken.getTokenCount();\r\n    }\r\n\r\n    event Sent(address from, address to, uint256 amount);\r\n\r\n    event Deposit(address from, uint256 amount);\r\n\r\n    event Withdraw(address from, uint256 amount);\r\n\r\n    event Stake(address from, uint256 amount, uint256 duration);\r\n\r\n    event StakeCompleted(address from);\r\n\r\n    event StakeIsActive(address from, uint256 duration);\r\n}\r\n",
  "sourcePath": "C:\\Users\\Berk\\Desktop\\GitHub Project Repositories\\berkcoin\\dapp\\contracts\\BerkToken.sol",
  "compiler": {
    "name": "solc",
    "version": "0.8.12+commit.f00d7308.Emscripten.clang"
  },
  "schemaVersion": "3.4.4",
  "updatedAt": "2022-02-17T14:44:37.267Z",
  "networkType": "ethereum",
  "devdoc": {
    "kind": "dev",
    "methods": {},
    "version": 1
  },
  "userdoc": {
    "kind": "user",
    "methods": {},
    "version": 1
  }
}