{
  "contractName": "BerkToken",
  "abi": [
    {
      "inputs": [],
      "stateMutability": "nonpayable",
      "type": "constructor"
    },
    {
      "anonymous": false,
      "inputs": [
        {
          "indexed": true,
          "internalType": "address",
          "name": "owner",
          "type": "address"
        },
        {
          "indexed": true,
          "internalType": "address",
          "name": "spender",
          "type": "address"
        },
        {
          "indexed": false,
          "internalType": "uint256",
          "name": "value",
          "type": "uint256"
        }
      ],
      "name": "Approval",
      "type": "event"
    },
    {
      "anonymous": false,
      "inputs": [
        {
          "indexed": false,
          "internalType": "address",
          "name": "from",
          "type": "address"
        },
        {
          "indexed": false,
          "internalType": "uint256",
          "name": "amount",
          "type": "uint256"
        }
      ],
      "name": "Deposit",
      "type": "event"
    },
    {
      "anonymous": false,
      "inputs": [
        {
          "indexed": false,
          "internalType": "address",
          "name": "from",
          "type": "address"
        },
        {
          "indexed": false,
          "internalType": "address",
          "name": "to",
          "type": "address"
        },
        {
          "indexed": false,
          "internalType": "uint256",
          "name": "amount",
          "type": "uint256"
        }
      ],
      "name": "Sent",
      "type": "event"
    },
    {
      "anonymous": false,
      "inputs": [
        {
          "indexed": false,
          "internalType": "address",
          "name": "from",
          "type": "address"
        },
        {
          "indexed": false,
          "internalType": "uint256",
          "name": "amount",
          "type": "uint256"
        },
        {
          "indexed": false,
          "internalType": "uint256",
          "name": "duration",
          "type": "uint256"
        }
      ],
      "name": "Stake",
      "type": "event"
    },
    {
      "anonymous": false,
      "inputs": [
        {
          "indexed": false,
          "internalType": "address",
          "name": "from",
          "type": "address"
        }
      ],
      "name": "StakeCompleted",
      "type": "event"
    },
    {
      "anonymous": false,
      "inputs": [
        {
          "indexed": false,
          "internalType": "address",
          "name": "from",
          "type": "address"
        },
        {
          "indexed": false,
          "internalType": "uint256",
          "name": "duration",
          "type": "uint256"
        }
      ],
      "name": "StakeIsActive",
      "type": "event"
    },
    {
      "anonymous": false,
      "inputs": [
        {
          "indexed": true,
          "internalType": "address",
          "name": "from",
          "type": "address"
        },
        {
          "indexed": true,
          "internalType": "address",
          "name": "to",
          "type": "address"
        },
        {
          "indexed": false,
          "internalType": "uint256",
          "name": "value",
          "type": "uint256"
        }
      ],
      "name": "Transfer",
      "type": "event"
    },
    {
      "anonymous": false,
      "inputs": [
        {
          "indexed": false,
          "internalType": "address",
          "name": "from",
          "type": "address"
        },
        {
          "indexed": false,
          "internalType": "uint256",
          "name": "amount",
          "type": "uint256"
        }
      ],
      "name": "Withdraw",
      "type": "event"
    },
    {
      "inputs": [
        {
          "internalType": "address",
          "name": "",
          "type": "address"
        }
      ],
      "name": "accountStakeAmounts",
      "outputs": [
        {
          "internalType": "uint256",
          "name": "",
          "type": "uint256"
        }
      ],
      "stateMutability": "view",
      "type": "function"
    },
    {
      "inputs": [
        {
          "internalType": "address",
          "name": "",
          "type": "address"
        }
      ],
      "name": "accountStakeDates",
      "outputs": [
        {
          "internalType": "uint256",
          "name": "",
          "type": "uint256"
        }
      ],
      "stateMutability": "view",
      "type": "function"
    },
    {
      "inputs": [
        {
          "internalType": "address",
          "name": "owner",
          "type": "address"
        },
        {
          "internalType": "address",
          "name": "spender",
          "type": "address"
        }
      ],
      "name": "allowance",
      "outputs": [
        {
          "internalType": "uint256",
          "name": "",
          "type": "uint256"
        }
      ],
      "stateMutability": "view",
      "type": "function"
    },
    {
      "inputs": [
        {
          "internalType": "address",
          "name": "spender",
          "type": "address"
        },
        {
          "internalType": "uint256",
          "name": "amount",
          "type": "uint256"
        }
      ],
      "name": "approve",
      "outputs": [
        {
          "internalType": "bool",
          "name": "",
          "type": "bool"
        }
      ],
      "stateMutability": "nonpayable",
      "type": "function"
    },
    {
      "inputs": [
        {
          "internalType": "address",
          "name": "account",
          "type": "address"
        }
      ],
      "name": "balanceOf",
      "outputs": [
        {
          "internalType": "uint256",
          "name": "",
          "type": "uint256"
        }
      ],
      "stateMutability": "view",
      "type": "function"
    },
    {
      "inputs": [],
      "name": "collectibleFee",
      "outputs": [
        {
          "internalType": "uint256",
          "name": "",
          "type": "uint256"
        }
      ],
      "stateMutability": "view",
      "type": "function"
    },
    {
      "inputs": [],
      "name": "decimals",
      "outputs": [
        {
          "internalType": "uint8",
          "name": "",
          "type": "uint8"
        }
      ],
      "stateMutability": "view",
      "type": "function"
    },
    {
      "inputs": [
        {
          "internalType": "address",
          "name": "spender",
          "type": "address"
        },
        {
          "internalType": "uint256",
          "name": "subtractedValue",
          "type": "uint256"
        }
      ],
      "name": "decreaseAllowance",
      "outputs": [
        {
          "internalType": "bool",
          "name": "",
          "type": "bool"
        }
      ],
      "stateMutability": "nonpayable",
      "type": "function"
    },
    {
      "inputs": [
        {
          "internalType": "address",
          "name": "spender",
          "type": "address"
        },
        {
          "internalType": "uint256",
          "name": "addedValue",
          "type": "uint256"
        }
      ],
      "name": "increaseAllowance",
      "outputs": [
        {
          "internalType": "bool",
          "name": "",
          "type": "bool"
        }
      ],
      "stateMutability": "nonpayable",
      "type": "function"
    },
    {
      "inputs": [
        {
          "internalType": "address",
          "name": "",
          "type": "address"
        }
      ],
      "name": "latestStakeRewards",
      "outputs": [
        {
          "internalType": "uint256",
          "name": "",
          "type": "uint256"
        }
      ],
      "stateMutability": "view",
      "type": "function"
    },
    {
      "inputs": [],
      "name": "name",
      "outputs": [
        {
          "internalType": "string",
          "name": "",
          "type": "string"
        }
      ],
      "stateMutability": "view",
      "type": "function"
    },
    {
      "inputs": [],
      "name": "owner",
      "outputs": [
        {
          "internalType": "address",
          "name": "",
          "type": "address"
        }
      ],
      "stateMutability": "view",
      "type": "function"
    },
    {
      "inputs": [],
      "name": "symbol",
      "outputs": [
        {
          "internalType": "string",
          "name": "",
          "type": "string"
        }
      ],
      "stateMutability": "view",
      "type": "function"
    },
    {
      "inputs": [],
      "name": "totalSupply",
      "outputs": [
        {
          "internalType": "uint256",
          "name": "",
          "type": "uint256"
        }
      ],
      "stateMutability": "view",
      "type": "function"
    },
    {
      "inputs": [
        {
          "internalType": "address",
          "name": "to",
          "type": "address"
        },
        {
          "internalType": "uint256",
          "name": "amount",
          "type": "uint256"
        }
      ],
      "name": "transfer",
      "outputs": [
        {
          "internalType": "bool",
          "name": "",
          "type": "bool"
        }
      ],
      "stateMutability": "nonpayable",
      "type": "function"
    },
    {
      "inputs": [
        {
          "internalType": "address",
          "name": "from",
          "type": "address"
        },
        {
          "internalType": "address",
          "name": "to",
          "type": "address"
        },
        {
          "internalType": "uint256",
          "name": "amount",
          "type": "uint256"
        }
      ],
      "name": "transferFrom",
      "outputs": [
        {
          "internalType": "bool",
          "name": "",
          "type": "bool"
        }
      ],
      "stateMutability": "nonpayable",
      "type": "function"
    },
    {
      "inputs": [
        {
          "internalType": "address",
          "name": "account",
          "type": "address"
        },
        {
          "internalType": "uint256",
          "name": "amount",
          "type": "uint256"
        }
      ],
      "name": "mint",
      "outputs": [],
      "stateMutability": "nonpayable",
      "type": "function"
    },
    {
      "inputs": [
        {
          "internalType": "uint256",
          "name": "amount",
          "type": "uint256"
        }
      ],
      "name": "burnTokens",
      "outputs": [],
      "stateMutability": "nonpayable",
      "type": "function"
    },
    {
      "inputs": [
        {
          "internalType": "address",
          "name": "receiver",
          "type": "address"
        },
        {
          "internalType": "uint256",
          "name": "amount",
          "type": "uint256"
        }
      ],
      "name": "send",
      "outputs": [],
      "stateMutability": "nonpayable",
      "type": "function"
    },
    {
      "inputs": [
        {
          "internalType": "uint256",
          "name": "amount",
          "type": "uint256"
        }
      ],
      "name": "deposit",
      "outputs": [],
      "stateMutability": "payable",
      "type": "function"
    },
    {
      "inputs": [
        {
          "internalType": "uint256",
          "name": "amount",
          "type": "uint256"
        }
      ],
      "name": "withdraw",
      "outputs": [],
      "stateMutability": "nonpayable",
      "type": "function"
    },
    {
      "inputs": [
        {
          "internalType": "uint256",
          "name": "duration",
          "type": "uint256"
        },
        {
          "internalType": "uint256",
          "name": "amountToBeStaked",
          "type": "uint256"
        }
      ],
      "name": "stake",
      "outputs": [],
      "stateMutability": "nonpayable",
      "type": "function"
    },
    {
      "inputs": [
        {
          "internalType": "address",
          "name": "publicAddress",
          "type": "address"
        },
        {
          "internalType": "uint256",
          "name": "currentTimeStamp",
          "type": "uint256"
        }
      ],
      "name": "checkStakeStatus",
      "outputs": [],
      "stateMutability": "nonpayable",
      "type": "function"
    },
    {
      "inputs": [
        {
          "internalType": "address",
          "name": "publicAddress",
          "type": "address"
        }
      ],
      "name": "getBalance",
      "outputs": [
        {
          "internalType": "uint256",
          "name": "",
          "type": "uint256"
        }
      ],
      "stateMutability": "view",
      "type": "function"
    },
    {
      "inputs": [
        {
          "internalType": "address",
          "name": "publicAddress",
          "type": "address"
        }
      ],
      "name": "getStakeAmount",
      "outputs": [
        {
          "internalType": "uint256",
          "name": "",
          "type": "uint256"
        }
      ],
      "stateMutability": "view",
      "type": "function"
    },
    {
      "inputs": [
        {
          "internalType": "address",
          "name": "publicAddress",
          "type": "address"
        }
      ],
      "name": "getCurrentStakeReward",
      "outputs": [
        {
          "internalType": "uint256",
          "name": "",
          "type": "uint256"
        }
      ],
      "stateMutability": "view",
      "type": "function"
    },
    {
      "inputs": [
        {
          "internalType": "address",
          "name": "publicAddress",
          "type": "address"
        }
      ],
      "name": "getStakeCompletionDate",
      "outputs": [
        {
          "internalType": "uint256",
          "name": "",
          "type": "uint256"
        }
      ],
      "stateMutability": "view",
      "type": "function"
    },
    {
      "inputs": [],
      "name": "getInterest",
      "outputs": [
        {
          "internalType": "uint256",
          "name": "",
          "type": "uint256"
        }
      ],
      "stateMutability": "pure",
      "type": "function"
    },
    {
      "inputs": [],
      "name": "getTokenPrice",
      "outputs": [
        {
          "internalType": "uint256",
          "name": "",
          "type": "uint256"
        }
      ],
      "stateMutability": "view",
      "type": "function"
    },
    {
      "inputs": [],
      "name": "getContractBalance",
      "outputs": [
        {
          "internalType": "uint256",
          "name": "",
          "type": "uint256"
        }
      ],
      "stateMutability": "view",
      "type": "function"
    },
    {
      "inputs": [
        {
          "internalType": "string",
          "name": "tokenUri",
          "type": "string"
        },
        {
          "internalType": "string",
          "name": "description",
          "type": "string"
        },
        {
          "internalType": "uint256",
          "name": "price",
          "type": "uint256"
        },
        {
          "internalType": "bool",
          "name": "isAvailableToTrade",
          "type": "bool"
        }
      ],
      "name": "registerNewCollectible",
      "outputs": [],
      "stateMutability": "nonpayable",
      "type": "function"
    },
    {
      "inputs": [
        {
          "internalType": "uint256",
          "name": "tokenID",
          "type": "uint256"
        }
      ],
      "name": "burnCollectible",
      "outputs": [],
      "stateMutability": "nonpayable",
      "type": "function"
    },
    {
      "inputs": [
        {
          "internalType": "uint256",
          "name": "tokenID",
          "type": "uint256"
        },
        {
          "internalType": "uint256",
          "name": "price",
          "type": "uint256"
        }
      ],
      "name": "setPriceOfCollectible",
      "outputs": [],
      "stateMutability": "nonpayable",
      "type": "function"
    },
    {
      "inputs": [
        {
          "internalType": "uint256",
          "name": "tokenID",
          "type": "uint256"
        },
        {
          "internalType": "bool",
          "name": "availability",
          "type": "bool"
        }
      ],
      "name": "setAvailabilityOfCollectible",
      "outputs": [],
      "stateMutability": "nonpayable",
      "type": "function"
    },
    {
      "inputs": [
        {
          "internalType": "uint256",
          "name": "tokenID",
          "type": "uint256"
        }
      ],
      "name": "buyCollectible",
      "outputs": [],
      "stateMutability": "nonpayable",
      "type": "function"
    },
    {
      "inputs": [
        {
          "internalType": "uint256",
          "name": "tokenID",
          "type": "uint256"
        }
      ],
      "name": "getTokenURI",
      "outputs": [
        {
          "internalType": "string",
          "name": "",
          "type": "string"
        }
      ],
      "stateMutability": "view",
      "type": "function"
    },
    {
      "inputs": [
        {
          "internalType": "uint256",
          "name": "tokenID",
          "type": "uint256"
        }
      ],
      "name": "getTokenCreator",
      "outputs": [
        {
          "internalType": "address",
          "name": "",
          "type": "address"
        }
      ],
      "stateMutability": "view",
      "type": "function"
    },
    {
      "inputs": [
        {
          "internalType": "uint256",
          "name": "tokenID",
          "type": "uint256"
        }
      ],
      "name": "getTokenOwner",
      "outputs": [
        {
          "internalType": "address",
          "name": "",
          "type": "address"
        }
      ],
      "stateMutability": "view",
      "type": "function"
    },
    {
      "inputs": [
        {
          "internalType": "uint256",
          "name": "tokenID",
          "type": "uint256"
        }
      ],
      "name": "getTokenDescription",
      "outputs": [
        {
          "internalType": "string",
          "name": "",
          "type": "string"
        }
      ],
      "stateMutability": "view",
      "type": "function"
    },
    {
      "inputs": [
        {
          "internalType": "uint256",
          "name": "tokenID",
          "type": "uint256"
        }
      ],
      "name": "getTokenHash",
      "outputs": [
        {
          "internalType": "bytes32",
          "name": "",
          "type": "bytes32"
        }
      ],
      "stateMutability": "view",
      "type": "function"
    },
    {
      "inputs": [
        {
          "internalType": "uint256",
          "name": "tokenID",
          "type": "uint256"
        }
      ],
      "name": "getPriceOfCollectible",
      "outputs": [
        {
          "internalType": "uint256",
          "name": "",
          "type": "uint256"
        }
      ],
      "stateMutability": "view",
      "type": "function"
    },
    {
      "inputs": [
        {
          "internalType": "uint256",
          "name": "tokenID",
          "type": "uint256"
        }
      ],
      "name": "getAvailabilityOfToken",
      "outputs": [
        {
          "internalType": "bool",
          "name": "",
          "type": "bool"
        }
      ],
      "stateMutability": "view",
      "type": "function"
    },
    {
      "inputs": [],
      "name": "getCollectibleFee",
      "outputs": [
        {
          "internalType": "uint256",
          "name": "",
          "type": "uint256"
        }
      ],
      "stateMutability": "view",
      "type": "function"
    },
    {
      "inputs": [],
      "name": "getTokenCount",
      "outputs": [
        {
          "internalType": "uint256",
          "name": "",
          "type": "uint256"
        }
      ],
      "stateMutability": "view",
      "type": "function"
    },
    {
      "inputs": [
        {
          "internalType": "uint256",
          "name": "tokenID",
          "type": "uint256"
        }
      ],
      "name": "getAccessibility",
      "outputs": [
        {
          "internalType": "bool",
          "name": "",
          "type": "bool"
        }
      ],
      "stateMutability": "view",
      "type": "function"
    }
  ],
  "bytecode": "0x60806040526a52b7d2dcc80cd2e40000006009553480156200002057600080fd5b50604051806040016040528060088152602001673132b935b1b7b4b760c11b815250604051806040016040528060048152602001634245524b60e01b8152508160039081620000709190620002f9565b5060046200007f8282620002f9565b5050600580546001600160a01b0319163317905550604051620000a29062000247565b604051809103906000f080158015620000bf573d6000803e3d6000fd5b50600a80546001600160a01b0319166001600160a01b03929092169182179055604080516342ebc88160e11b815290516385d79102916004808201926020929091908290030181865afa1580156200011b573d6000803e3d6000fd5b505050506040513d601f19601f82011682018060405250810190620001419190620003c5565b600b55600954620001549033906200015a565b62000406565b6001600160a01b038216620001b55760405162461bcd60e51b815260206004820152601f60248201527f45524332303a206d696e7420746f20746865207a65726f206164647265737300604482015260640160405180910390fd5b8060026000828254620001c99190620003df565b90915550506001600160a01b03821660009081526020819052604081208054839290620001f8908490620003df565b90915550506040518181526001600160a01b038316906000907fddf252ad1be2c89b69c2b068fc378daa952ba7f163c4a11628f55a4df523b3ef9060200160405180910390a35050565b505050565b611167806200289a83390190565b634e487b7160e01b600052604160045260246000fd5b600181811c908216806200028057607f821691505b602082108103620002a157634e487b7160e01b600052602260045260246000fd5b50919050565b601f8211156200024257600081815260208120601f850160051c81016020861015620002d05750805b601f850160051c820191505b81811015620002f157828155600101620002dc565b505050505050565b81516001600160401b0381111562000315576200031562000255565b6200032d816200032684546200026b565b84620002a7565b602080601f8311600181146200036557600084156200034c5750858301515b600019600386901b1c1916600185901b178555620002f1565b600085815260208120601f198616915b82811015620003965788860151825594840194600190910190840162000375565b5085821015620003b55787850151600019600388901b60f8161c191681555b5050505050600190811b01905550565b600060208284031215620003d857600080fd5b5051919050565b600082198211156200040157634e487b7160e01b600052601160045260246000fd5b500190565b61248480620004166000396000f3fe6080604052600436106102725760003560e01c80637a1ea1051161014f578063addbf703116100c1578063d0679d341161007a578063d0679d341461076b578063d287f3de1461078b578063dd62ed3e146107ab578063df5a4b64146107cb578063e5a4bed3146107f8578063f8b2cb4f1461080c57600080fd5b8063addbf703146106c2578063b04c8e87146106e2578063b3154c0814610702578063b6b55f2514610722578063c4a239a914610735578063c4e6e3e51461075557600080fd5b8063934689a911610113578063934689a91461060d57806395d89b411461062d578063a0cc0dc514610642578063a457c2d714610662578063a5cd761f14610682578063a9059cbb146106a257600080fd5b80637a1ea1051461053f5780637b0472f0146105755780637dd9ebca1461059557806380b891a4146105b55780638da5cb5b146105d557600080fd5b80633bb3a24d116101e857806368aaca9b116101ac57806368aaca9b146104975780636d1b229d146104b75780636f9fb98a146104d757806370a08231146104ea57806378a895671461050a5780637991c6e41461051f57600080fd5b80633bb3a24d1461040257806340c10f19146104225780634b94f50e146104425780634de2621114610457578063683a12391461047757600080fd5b806321685a4d1161023a57806321685a4d1461034257806323b872dd146103575780632e1a7d4d146103775780632e6b640c14610399578063313ce567146103c657806339509351146103e257600080fd5b806306fdde0314610277578063095ea7b3146102a25780630c2eb403146102d257806318160ddd14610300578063196ebdfd14610315575b600080fd5b34801561028357600080fd5b5061028c61082c565b6040516102999190611f74565b60405180910390f35b3480156102ae57600080fd5b506102c26102bd366004611fa3565b6108be565b6040519015158152602001610299565b3480156102de57600080fd5b506102f26102ed366004611fcf565b6108d6565b604051908152602001610299565b34801561030c57600080fd5b506002546102f2565b34801561032157600080fd5b506102f2610330366004611fcf565b60086020526000908152604090205481565b34801561034e57600080fd5b506102f2610908565b34801561036357600080fd5b506102c2610372366004611fec565b610925565b34801561038357600080fd5b5061039761039236600461202d565b610949565b005b3480156103a557600080fd5b506102f26103b4366004611fcf565b60066020526000908152604090205481565b3480156103d257600080fd5b5060405160128152602001610299565b3480156103ee57600080fd5b506102c26103fd366004611fa3565b610a7b565b34801561040e57600080fd5b5061028c61041d36600461202d565b610a9d565b34801561042e57600080fd5b5061039761043d366004611fa3565b610b10565b34801561044e57600080fd5b506102f2610bc2565b34801561046357600080fd5b506102c261047236600461202d565b610bf2565b34801561048357600080fd5b50610397610492366004612046565b610c61565b3480156104a357600080fd5b506102f26104b236600461202d565b610d4b565b3480156104c357600080fd5b506103976104d236600461202d565b610dcf565b3480156104e357600080fd5b50476102f2565b3480156104f657600080fd5b506102f2610505366004611fcf565b610ded565b34801561051657600080fd5b506102f2610e08565b34801561052b57600080fd5b5061039761053a36600461213b565b610e76565b34801561054b57600080fd5b506102f261055a366004611fcf565b6001600160a01b031660009081526006602052604090205490565b34801561058157600080fd5b50610397610590366004612046565b610f3c565b3480156105a157600080fd5b506102f26105b0366004611fcf565b611149565b3480156105c157600080fd5b506103976105d0366004611fa3565b611175565b3480156105e157600080fd5b506005546105f5906001600160a01b031681565b6040516001600160a01b039091168152602001610299565b34801561061957600080fd5b506105f561062836600461202d565b611237565b34801561063957600080fd5b5061028c6112a6565b34801561064e57600080fd5b506102f261065d36600461202d565b6112b5565b34801561066e57600080fd5b506102c261067d366004611fa3565b611323565b34801561068e57600080fd5b506105f561069d36600461202d565b61139e565b3480156106ae57600080fd5b506102c26106bd366004611fa3565b6113d0565b3480156106ce57600080fd5b506102c26106dd36600461202d565b6113de565b3480156106ee57600080fd5b506103976106fd36600461202d565b611410565b34801561070e57600080fd5b5061028c61071d36600461202d565b61162a565b61039761073036600461202d565b61165c565b34801561074157600080fd5b506103976107503660046121bb565b611793565b34801561076157600080fd5b506102f2600b5481565b34801561077757600080fd5b50610397610786366004611fa3565b6117d2565b34801561079757600080fd5b506103976107a636600461202d565b611844565b3480156107b757600080fd5b506102f26107c63660046121eb565b6118ab565b3480156107d757600080fd5b506102f26107e6366004611fcf565b60076020526000908152604090205481565b34801561080457600080fd5b5060026102f2565b34801561081857600080fd5b506102f2610827366004611fcf565b6118d6565b60606003805461083b90612219565b80601f016020809104026020016040519081016040528092919081815260200182805461086790612219565b80156108b45780601f10610889576101008083540402835291602001916108b4565b820191906000526020600020905b81548152906001019060200180831161089757829003601f168201915b5050505050905090565b6000336108cc8185856118ea565b5060019392505050565b6001600160a01b03811660009081526007602052604081205461090290670de0b6b3a764000090612269565b92915050565b6000670de0b6b3a7640000600b546109209190612269565b905090565b600033610933858285611a0f565b61093e858585611a83565b506001949350505050565b61095b81670de0b6b3a764000061228b565b61096433610ded565b10156109d15760405162461bcd60e51b815260206004820152603160248201527f596f7520646f6e2774206861766520656e6f7567682066756e647320696e20796044820152706f75722062616e6b206163636f756e742160781b60648201526084015b60405180910390fd5b60006109db610bc2565b9050336108fc6109eb838561228b565b6040518115909202916000818181858888f19350505050158015610a13573d6000803e3d6000fd5b50600554610a3d9033906001600160a01b0316610a3885670de0b6b3a764000061228b565b611a83565b60408051338152602081018490527f884edad9ce6fa2440d8a54cc123490eb96d2768479d49ff9c7366125a942436491015b60405180910390a15050565b6000336108cc818585610a8e83836118ab565b610a9891906122aa565b6118ea565b600a54604051633bb3a24d60e01b8152600481018390526060916001600160a01b031690633bb3a24d906024015b600060405180830381865afa158015610ae8573d6000803e3d6000fd5b505050506040513d6000823e601f3d908101601f1916820160405261090291908101906122c2565b6005546001600160a01b03163314610b7b5760405162461bcd60e51b815260206004820152602860248201527f4f6e6c7920636f6e7472616374206f776e65722063616e206d696e74206e657760448201526720746f6b656e732160c01b60648201526084016109c8565b610b9682610b9183670de0b6b3a764000061228b565b611c51565b610ba881670de0b6b3a764000061228b565b60096000828254610bb991906122aa565b90915550505050565b60095460009047908290610bd69083612269565b905064e8d4a51000811015610902575064e8d4a5100092915050565b600a54604051634de2621160e01b8152600481018390526000916001600160a01b031690634de26211906024015b602060405180830381865afa158015610c3d573d6000803e3d6000fd5b505050506040513d601f19601f820116820180604052508101906109029190612339565b600a600b54610c709190612269565b610c7933610ded565b1015610c975760405162461bcd60e51b81526004016109c890612356565b600554600b54610cbb9133916001600160a01b0390911690610a3890600a90612269565b600a546001600160a01b031663fbb5b35f3384610ce085670de0b6b3a764000061228b565b6040516001600160e01b031960e086901b1681526001600160a01b039093166004840152602483019190915260448201526064015b600060405180830381600087803b158015610d2f57600080fd5b505af1158015610d43573d6000803e3d6000fd5b505050505050565b600a546040516368aaca9b60e01b815260048101839052600091670de0b6b3a7640000916001600160a01b03909116906368aaca9b90602401602060405180830381865afa158015610da1573d6000803e3d6000fd5b505050506040513d601f19601f82011682018060405250810190610dc591906123b3565b6109029190612269565b610dea33610de583670de0b6b3a764000061228b565b611d30565b50565b6001600160a01b031660009081526020819052604090205490565b600a54604080516378a8956760e01b815290516000926001600160a01b0316916378a895679160048083019260209291908290030181865afa158015610e52573d6000803e3d6000fd5b505050506040513d601f19601f8201168201806040525081019061092091906123b3565b600a546001600160a01b0316635e725c748585610e9b86670de0b6b3a764000061228b565b33866040518663ffffffff1660e01b8152600401610ebd9594939291906123cc565b600060405180830381600087803b158015610ed757600080fd5b505af1158015610eeb573d6000803e3d6000fd5b50505050600b54610efb33610ded565b1015610f195760405162461bcd60e51b81526004016109c890612356565b600554600b54610f369133916001600160a01b0390911690611a83565b50505050565b610f4e670de0b6b3a76400008261228b565b905080610f5a33610ded565b1015610fb65760405162461bcd60e51b815260206004820152602560248201527f596f75206861766520696e73756666696369656e742066756e647320746f207360448201526474616b652160d81b60648201526084016109c8565b33600090815260066020526040902054156110315760405162461bcd60e51b815260206004820152603560248201527f54686973206163636f756e742068617320616c72656164792065737461626c69604482015274736865642061207374616b652070726f636573732160581b60648201526084016109c8565b6000821161108d5760405162461bcd60e51b8152602060048201526024808201527f4475726174696f6e2073686f756c64206265206120706f7369746976652076616044820152636c75652160e01b60648201526084016109c8565b3360008181526007602052604090208290556005546110b691906001600160a01b031683611a83565b6110c082426122aa565b336000908152600660205260409020556110da8183611e76565b3360009081526008602090815260408083208490556007909152812080549091906111069084906122aa565b909155505060408051338152602081018390529081018390527f5af417134f72a9d41143ace85b0a26dce6f550f894f2cbc1eeee8810603d91b690606001610a6f565b6001600160a01b03811660009081526008602052604081205461090290670de0b6b3a764000090612269565b6001600160a01b038216600090815260066020526040902054818111156111ed5760405162461bcd60e51b815260206004820152602660248201527f5374616b65206475726174696f6e20686173206e6f74206265656e20656e646560448201526564207965742160d01b60648201526084016109c8565b6111f683611ebe565b6040516001600160a01b03841681527fa413e42c61420bd7d37579e855fd30e0233a6fcce5217b742816c4a389b9b7d29060200160405180910390a1505050565b600a5460405163934689a960e01b8152600481018390526000916001600160a01b03169063934689a9906024015b602060405180830381865afa158015611282573d6000803e3d6000fd5b505050506040513d601f19601f82011682018060405250810190610902919061241a565b60606004805461083b90612219565b600a5460405163a0cc0dc560e01b8152600481018390526000916001600160a01b03169063a0cc0dc590602401602060405180830381865afa1580156112ff573d6000803e3d6000fd5b505050506040513d601f19601f8201168201806040525081019061090291906123b3565b6000338161133182866118ab565b9050838110156113915760405162461bcd60e51b815260206004820152602560248201527f45524332303a2064656372656173656420616c6c6f77616e63652062656c6f77604482015264207a65726f60d81b60648201526084016109c8565b61093e82868684036118ea565b600a5460405163a5cd761f60e01b8152600481018390526000916001600160a01b03169063a5cd761f90602401611265565b6000336108cc818585611a83565b600a5460405163addbf70360e01b8152600481018390526000916001600160a01b03169063addbf70390602401610c20565b600a546040516368aaca9b60e01b8152600481018390526000916001600160a01b0316906368aaca9b90602401602060405180830381865afa15801561145a573d6000803e3d6000fd5b505050506040513d601f19601f8201168201806040525081019061147e91906123b3565b905061148982610bf2565b15156001146114e45760405162461bcd60e51b815260206004820152602160248201527f546f6b656e206973206e6f7420617661696c61626c6520666f722074726164656044820152602160f81b60648201526084016109c8565b6114ed33610ded565b8111156115465760405162461bcd60e51b815260206004820152602160248201527f53656e64657220646f65736e2774206861766520656e6f7567682066756e64736044820152602160f81b60648201526084016109c8565b600a5460405163a5cd761f60e01b8152600481018490526000916001600160a01b03169063a5cd761f90602401602060405180830381865afa158015611590573d6000803e3d6000fd5b505050506040513d601f19601f820116820180604052508101906115b4919061241a565b90506115c1338284611a83565b600a54604051633a0e4d7960e11b8152336004820152602481018590526001600160a01b039091169063741c9af290604401600060405180830381600087803b15801561160d57600080fd5b505af1158015611621573d6000803e3d6000fd5b50505050505050565b600a54604051631662a98160e31b8152600481018390526060916001600160a01b03169063b3154c0890602401610acb565b60013410156116bc5760405162461bcd60e51b815260206004820152602660248201527f4465706f73697420616d6f756e74206d757374206265206174206c656173742060448201526531207765692160d01b60648201526084016109c8565b60006116c6610bc2565b90506116d2818361228b565b34101561173b5760405162461bcd60e51b815260206004820152603160248201527f4465706f73697420616d6f756e7420776f727468206d757374206265206174206044820152706c656173742031206265726b636f696e2160781b60648201526084016109c8565b60055461175e906001600160a01b031633610a3885670de0b6b3a764000061228b565b604080513381523460208201527fe1fffcc4923d04b559f4d29a8bfc6cda04eb5b0d3c460751c2402c5c5cc9109c9101610a6f565b600a54604051631efd7df960e31b81523360048201526024810184905282151560448201526001600160a01b039091169063f7ebefc890606401610d15565b6117e93383610a3884670de0b6b3a764000061228b565b7f3990db2d31862302a685e8086b5755072a6e2b5b780af1ee81ece35ee3cd3345338361181e84670de0b6b3a764000061228b565b604080516001600160a01b03948516815293909216602084015290820152606001610a6f565b600a5460405163412838a760e01b8152600481018390523360248201526001600160a01b039091169063412838a790604401600060405180830381600087803b15801561189057600080fd5b505af11580156118a4573d6000803e3d6000fd5b5050505050565b6001600160a01b03918216600090815260016020908152604080832093909416825291909152205490565b6000670de0b6b3a7640000610dc583610ded565b6001600160a01b03831661194c5760405162461bcd60e51b8152602060048201526024808201527f45524332303a20617070726f76652066726f6d20746865207a65726f206164646044820152637265737360e01b60648201526084016109c8565b6001600160a01b0382166119ad5760405162461bcd60e51b815260206004820152602260248201527f45524332303a20617070726f766520746f20746865207a65726f206164647265604482015261737360f01b60648201526084016109c8565b6001600160a01b0383811660008181526001602090815260408083209487168084529482529182902085905590518481527f8c5be1e5ebec7d5bd14f71427d1e84f3dd0314c0f7b2291e5b200ac8c7c3b92591015b60405180910390a3505050565b6000611a1b84846118ab565b90506000198114610f365781811015611a765760405162461bcd60e51b815260206004820152601d60248201527f45524332303a20696e73756666696369656e7420616c6c6f77616e636500000060448201526064016109c8565b610f3684848484036118ea565b6001600160a01b038316611ae75760405162461bcd60e51b815260206004820152602560248201527f45524332303a207472616e736665722066726f6d20746865207a65726f206164604482015264647265737360d81b60648201526084016109c8565b6001600160a01b038216611b495760405162461bcd60e51b815260206004820152602360248201527f45524332303a207472616e7366657220746f20746865207a65726f206164647260448201526265737360e81b60648201526084016109c8565b6001600160a01b03831660009081526020819052604090205481811015611bc15760405162461bcd60e51b815260206004820152602660248201527f45524332303a207472616e7366657220616d6f756e7420657863656564732062604482015265616c616e636560d01b60648201526084016109c8565b6001600160a01b03808516600090815260208190526040808220858503905591851681529081208054849290611bf89084906122aa565b92505081905550826001600160a01b0316846001600160a01b03167fddf252ad1be2c89b69c2b068fc378daa952ba7f163c4a11628f55a4df523b3ef84604051611c4491815260200190565b60405180910390a3610f36565b6001600160a01b038216611ca75760405162461bcd60e51b815260206004820152601f60248201527f45524332303a206d696e7420746f20746865207a65726f20616464726573730060448201526064016109c8565b8060026000828254611cb991906122aa565b90915550506001600160a01b03821660009081526020819052604081208054839290611ce69084906122aa565b90915550506040518181526001600160a01b038316906000907fddf252ad1be2c89b69c2b068fc378daa952ba7f163c4a11628f55a4df523b3ef9060200160405180910390a35050565b6001600160a01b038216611d905760405162461bcd60e51b815260206004820152602160248201527f45524332303a206275726e2066726f6d20746865207a65726f206164647265736044820152607360f81b60648201526084016109c8565b6001600160a01b03821660009081526020819052604090205481811015611e045760405162461bcd60e51b815260206004820152602260248201527f45524332303a206275726e20616d6f756e7420657863656564732062616c616e604482015261636560f01b60648201526084016109c8565b6001600160a01b0383166000908152602081905260408120838303905560028054849290611e33908490612437565b90915550506040518281526000906001600160a01b038516907fddf252ad1be2c89b69c2b068fc378daa952ba7f163c4a11628f55a4df523b3ef90602001611a02565b60006002611e84838261228b565b90506064841115611e9d57611e9a81600261228b565b90505b633b9aca00611eac828661228b565b611eb69190612269565b949350505050565b6005546001600160a01b03828116600090815260076020526040902054611eeb9291909116908390611a83565b6001600160a01b03166000908152600660209081526040808320839055600782528083208390556008909152812055565b60005b83811015611f37578181015183820152602001611f1f565b83811115610f365750506000910152565b60008151808452611f60816020860160208601611f1c565b601f01601f19169290920160200192915050565b602081526000611f876020830184611f48565b9392505050565b6001600160a01b0381168114610dea57600080fd5b60008060408385031215611fb657600080fd5b8235611fc181611f8e565b946020939093013593505050565b600060208284031215611fe157600080fd5b8135611f8781611f8e565b60008060006060848603121561200157600080fd5b833561200c81611f8e565b9250602084013561201c81611f8e565b929592945050506040919091013590565b60006020828403121561203f57600080fd5b5035919050565b6000806040838503121561205957600080fd5b50508035926020909101359150565b634e487b7160e01b600052604160045260246000fd5b604051601f8201601f1916810167ffffffffffffffff811182821017156120a7576120a7612068565b604052919050565b600067ffffffffffffffff8211156120c9576120c9612068565b50601f01601f191660200190565b600082601f8301126120e857600080fd5b81356120fb6120f6826120af565b61207e565b81815284602083860101111561211057600080fd5b816020850160208301376000918101602001919091529392505050565b8015158114610dea57600080fd5b6000806000806080858703121561215157600080fd5b843567ffffffffffffffff8082111561216957600080fd5b612175888389016120d7565b9550602087013591508082111561218b57600080fd5b50612198878288016120d7565b9350506040850135915060608501356121b08161212d565b939692955090935050565b600080604083850312156121ce57600080fd5b8235915060208301356121e08161212d565b809150509250929050565b600080604083850312156121fe57600080fd5b823561220981611f8e565b915060208301356121e081611f8e565b600181811c9082168061222d57607f821691505b60208210810361224d57634e487b7160e01b600052602260045260246000fd5b50919050565b634e487b7160e01b600052601160045260246000fd5b60008261228657634e487b7160e01b600052601260045260246000fd5b500490565b60008160001904831182151516156122a5576122a5612253565b500290565b600082198211156122bd576122bd612253565b500190565b6000602082840312156122d457600080fd5b815167ffffffffffffffff8111156122eb57600080fd5b8201601f810184136122fc57600080fd5b805161230a6120f6826120af565b81815285602083850101111561231f57600080fd5b612330826020830160208601611f1c565b95945050505050565b60006020828403121561234b57600080fd5b8151611f878161212d565b60208082526039908201527f53656e64657220646f65736e2774206861766520656e6f7567682066756e647360408201527f20746f2070617920726567697374726174696f6e206665652100000000000000606082015260800190565b6000602082840312156123c557600080fd5b5051919050565b60a0815260006123df60a0830188611f48565b82810360208401526123f18188611f48565b604084019690965250506001600160a01b03929092166060830152151560809091015292915050565b60006020828403121561242c57600080fd5b8151611f8781611f8e565b60008282101561244957612449612253565b50039056fea264697066735822122088f7c1cc0a3bd41f91afa5fd50e8f9da8d27b4c657d85c360e3a7b7ed9f7d45c64736f6c634300080f0033608060405234801561001057600080fd5b506001600081905569152d02c7e14af68000009055611133806100346000396000f3fe608060405234801561001057600080fd5b50600436106101425760003560e01c806385d79102116100b8578063a5cd761f1161007c578063a5cd761f1461034e578063addbf70314610377578063b3154c081461039b578063d082e381146103ae578063f7ebefc8146103b7578063fbb5b35f146103ca57600080fd5b806385d79102146102cb578063934689a9146102d35780639ea2d712146102ff5780639ed3edf014610322578063a0cc0dc51461032b57600080fd5b80634b3876911161010a5780634b387691146102165780634de26211146102575780635e725c741461027a57806368aaca9b1461028d578063741c9af2146102b057806378a89567146102c357600080fd5b80630a09859d146101475780631570d294146101755780633bb3a24d146101a8578063411ba235146101c8578063412838a714610201575b600080fd5b61015a610155366004610afa565b6103dd565b60405161016c96959493929190610b6f565b60405180910390f35b610198610183366004610afa565b60066020526000908152604090205460ff1681565b604051901515815260200161016c565b6101bb6101b6366004610afa565b610532565b60405161016c9190610bc6565b6101f36101d6366004610c83565b805160208183018101805160048252928201919093012091525481565b60405190815260200161016c565b61021461020f366004610cdc565b6105d4565b005b61023f610224366004610afa565b6003602052600090815260409020546001600160a01b031681565b6040516001600160a01b03909116815260200161016c565b610198610265366004610afa565b60009081526005602052604090205460ff1690565b610214610288366004610d18565b6106bb565b6101f361029b366004610afa565b60009081526002602052604090206005015490565b6102146102be366004610da7565b6108ec565b6101f3610978565b6001546101f3565b61023f6102e1366004610afa565b6000908152600260205260409020600101546001600160a01b031690565b61019861030d366004610afa565b60056020526000908152604090205460ff1681565b6101f360015481565b6101f3610339366004610afa565b60009081526002602052604090206003015490565b61023f61035c366004610afa565b6000908152600360205260409020546001600160a01b031690565b610198610385366004610afa565b60009081526006602052604090205460ff161590565b6101bb6103a9366004610afa565b61098e565b6101f360005481565b6102146103c5366004610dd1565b6109ae565b6102146103d8366004610e0d565b610a39565b6002602052600090815260409020805481906103f890610e40565b80601f016020809104026020016040519081016040528092919081815260200182805461042490610e40565b80156104715780601f1061044657610100808354040283529160200191610471565b820191906000526020600020905b81548152906001019060200180831161045457829003601f168201915b5050505060018301546002840154600385015460048601805495966001600160a01b039485169694909316945090926104a990610e40565b80601f01602080910402602001604051908101604052809291908181526020018280546104d590610e40565b80156105225780601f106104f757610100808354040283529160200191610522565b820191906000526020600020905b81548152906001019060200180831161050557829003601f168201915b5050505050908060050154905086565b600081815260026020526040902080546060919061054f90610e40565b80601f016020809104026020016040519081016040528092919081815260200182805461057b90610e40565b80156105c85780601f1061059d576101008083540402835291602001916105c8565b820191906000526020600020905b8154815290600101906020018083116105ab57829003601f168201915b50505050509050919050565b600082815260026020819052604090912001546001600160a01b0382811691161461065a5760405162461bcd60e51b815260206004820152602b60248201527f53656e646572206d75737420626520746865206f776e6572206f66207468652060448201526a636f6c6c6563746962652160a81b60648201526084015b60405180910390fd5b600082815260026020526040808220905160049161067791610e7a565b90815260408051602092819003830190209290925560009384526003815281842080546001600160a01b031916905560069052909120805460ff1916600117905550565b6004856040516106cb9190610ef0565b9081526020016040518091039020546000146107295760405162461bcd60e51b815260206004820152601b60248201527f546f6b656e2055524920697320616c7265616479206f776e65642100000000006044820152606401610651565b600061073786868686610abd565b90506040518060c00160405280878152602001846001600160a01b03168152602001846001600160a01b0316815260200182815260200186815260200185815250600260008054815260200190815260200160002060008201518160000190816107a19190610f5b565b5060208201516001820180546001600160a01b039283166001600160a01b031991821617909155604084015160028401805491909316911617905560608201516003820155608082015160048201906107fa9082610f5b565b5060a091909101516005918201556000805481526020919091526040808220805460ff191685151517905590549051600490610837908990610ef0565b90815260405190819003602001902055600080548491600391818061085b83611031565b91905055815260200190815260200160002060006101000a8154816001600160a01b0302191690836001600160a01b031602179055507ff87fe3264c3638b723b4ec8d76ef1445bea00685c4b9920442f5f2aa1c2673278360016000546108c2919061104a565b604080516001600160a01b03909316835260208301919091520160405180910390a1505050505050565b600081815260036020908152604080832080546001600160a01b03198082166001600160a01b0389811691821790945560028087529685902090960180549091168617905582519116808252928101939093528201839052907ff0f62f5e6af9b2c898cea739cd3c2921ac2f36806004128640c6da4181011165906060015b60405180910390a1505050565b60006001600054610989919061104a565b905090565b600081815260026020526040902060040180546060919061054f90610e40565b6000828152600360205260409020546001600160a01b038481169116146109e75760405162461bcd60e51b815260040161065190611061565b600082815260056020908152604091829020805460ff19168415159081179091558251858152918201527fbceceaa2f706c5eea8eca58ad8fe1aac1d7edb16d9d4ef2e0ef8ed5237b9c383910161096b565b6000828152600360205260409020546001600160a01b03848116911614610a725760405162461bcd60e51b815260040161065190611061565b60008281526002602090815260409182902060050183905581518481529081018390527f6ef3bcfe7975df410c416dd608ae52ef55dc72f285111bc824da7962531f2df1910161096b565b600084828585600054604051602001610ada9594939291906110a4565b604051602081830303815290604052805190602001209050949350505050565b600060208284031215610b0c57600080fd5b5035919050565b60005b83811015610b2e578181015183820152602001610b16565b83811115610b3d576000848401525b50505050565b60008151808452610b5b816020860160208601610b13565b601f01601f19169290920160200192915050565b60c081526000610b8260c0830189610b43565b6001600160a01b03888116602085015287166040840152606083018690528281036080840152610bb28186610b43565b9150508260a0830152979650505050505050565b602081526000610bd96020830184610b43565b9392505050565b634e487b7160e01b600052604160045260246000fd5b600082601f830112610c0757600080fd5b813567ffffffffffffffff80821115610c2257610c22610be0565b604051601f8301601f19908116603f01168101908282118183101715610c4a57610c4a610be0565b81604052838152866020858801011115610c6357600080fd5b836020870160208301376000602085830101528094505050505092915050565b600060208284031215610c9557600080fd5b813567ffffffffffffffff811115610cac57600080fd5b610cb884828501610bf6565b949350505050565b80356001600160a01b0381168114610cd757600080fd5b919050565b60008060408385031215610cef57600080fd5b82359150610cff60208401610cc0565b90509250929050565b80358015158114610cd757600080fd5b600080600080600060a08688031215610d3057600080fd5b853567ffffffffffffffff80821115610d4857600080fd5b610d5489838a01610bf6565b96506020880135915080821115610d6a57600080fd5b50610d7788828901610bf6565b94505060408601359250610d8d60608701610cc0565b9150610d9b60808701610d08565b90509295509295909350565b60008060408385031215610dba57600080fd5b610dc383610cc0565b946020939093013593505050565b600080600060608486031215610de657600080fd5b610def84610cc0565b925060208401359150610e0460408501610d08565b90509250925092565b600080600060608486031215610e2257600080fd5b610e2b84610cc0565b95602085013595506040909401359392505050565b600181811c90821680610e5457607f821691505b602082108103610e7457634e487b7160e01b600052602260045260246000fd5b50919050565b6000808354610e8881610e40565b60018281168015610ea05760018114610eb557610ee4565b60ff1984168752821515830287019450610ee4565b8760005260208060002060005b85811015610edb5781548a820152908401908201610ec2565b50505082870194505b50929695505050505050565b60008251610f02818460208701610b13565b9190910192915050565b601f821115610f5657600081815260208120601f850160051c81016020861015610f335750805b601f850160051c820191505b81811015610f5257828155600101610f3f565b5050505b505050565b815167ffffffffffffffff811115610f7557610f75610be0565b610f8981610f838454610e40565b84610f0c565b602080601f831160018114610fbe5760008415610fa65750858301515b600019600386901b1c1916600185901b178555610f52565b600085815260208120601f198616915b82811015610fed57888601518255948401946001909101908401610fce565b508582101561100b5787850151600019600388901b60f8161c191681555b5050505050600190811b01905550565b634e487b7160e01b600052601160045260246000fd5b6000600182016110435761104361101b565b5060010190565b60008282101561105c5761105c61101b565b500390565b60208082526023908201527f53656e64657220646f65736e2774206f776e2074686520636f6c6c65637469626040820152626c652160e81b606082015260800190565b600086516110b6818460208b01610b13565b606087901b6bffffffffffffffffffffffff191690830190815285516110e3816014840160208a01610b13565b01601481019490945250506034820152605401939250505056fea264697066735822122051dec9b9e9e5128387657c460f1487518662e0893d603d9f6982d4356b53dd0c64736f6c634300080f0033",
  "immutableReferences": {},
  "source": "// SPDX-License-Identifier: MIT\r\n\r\n// I implemented a token for this project that allows users\r\n// trade, stake and transfer operations.\r\n// I also injected CollectibleToken contract and wrote some wrapped\r\n// functions to use NFT functionalities with this contract\r\n\r\npragma solidity ^0.8.0;\r\n\r\nimport \"@openzeppelin/contracts/token/ERC20/ERC20.sol\";\r\nimport \"./IBerkToken.sol\";\r\nimport \"./CollectibleToken.sol\";\r\n\r\ncontract BerkToken is IBerkToken, ERC20 {\r\n    address public owner;\r\n\r\n    //mapping(address => uint256) public _balances;\r\n    mapping(address => uint256) public accountStakeDates;\r\n    mapping(address => uint256) public accountStakeAmounts;\r\n    mapping(address => uint256) public latestStakeRewards;\r\n\r\n    // Stake reward rate\r\n    uint256 private constant interest = 2;\r\n    uint256 private constant minimumTokenValue = 1000000000000;\r\n    // 10**18 means 18 decimal points.\r\n    // 1 berkcoin = 1 * 10**18.\r\n    uint256 private maxSupply = 100000000 * 10**18;\r\n\r\n    CollectibleToken private collectibleToken;\r\n    uint256 public collectibleFee;\r\n\r\n    constructor() ERC20(\"berkcoin\", \"BERK\") {\r\n        owner = msg.sender;\r\n        collectibleToken = new CollectibleToken();\r\n        collectibleFee = collectibleToken.getTransactionFee();\r\n        // Minting initial tokens\r\n        _mint(msg.sender, maxSupply);\r\n    }\r\n\r\n    function mint(address account, uint256 amount) external {\r\n        require(\r\n            msg.sender == owner,\r\n            \"Only contract owner can mint new tokens!\"\r\n        );\r\n        _mint(account, amount * 10**18);\r\n        maxSupply += amount * 10**18;\r\n    }\r\n\r\n    function burnTokens(uint256 amount) external {\r\n        _burn(msg.sender, amount * 10**18);\r\n    }\r\n\r\n    /*\r\n     * Transaction is processed within contract:\r\n     * From: 0x23bc92ca3d8dd080dd65914e40bad5a5bec93769 : owner\r\n     * to:  0xd2d656253b91c5915cafdcd8b3a5249950739e10 : receiver\r\n     */\r\n\r\n    function send(address receiver, uint256 amount) external {\r\n        _transfer(msg.sender, receiver, amount * 10**18);\r\n        emit Sent(msg.sender, receiver, amount * 10**18);\r\n    }\r\n\r\n    function deposit(uint256 amount) external payable {\r\n        require(msg.value >= 1, \"Deposit amount must be at least 1 wei!\");\r\n\r\n        uint256 tokenPrice = getTokenPrice();\r\n\r\n        // Here we get token amount based on the deposited ETH amount:\r\n        // If user deposit 1 ETH and current token price is 0.2 ETH, then\r\n        // user will have 5 tokens in his account address.\r\n        // In this case, user must deposit at least 1 ETH.\r\n        // If user deposits more than 1 ETH, contract will not\r\n        // compansate the additional number of ETH.\r\n\r\n        require(\r\n            msg.value >= (amount * tokenPrice),\r\n            \"Deposit amount worth must be at least 1 berkcoin!\"\r\n        );\r\n\r\n        _transfer(owner, msg.sender, amount * 10**18);\r\n        emit Deposit(msg.sender, msg.value);\r\n    }\r\n\r\n    function withdraw(uint256 amount) external {\r\n        require(\r\n            balanceOf(msg.sender) >= amount * 10**18,\r\n            \"You don't have enough funds in your bank account!\"\r\n        );\r\n\r\n        uint256 tokenPrice = getTokenPrice();\r\n\r\n        payable(msg.sender).transfer(amount * tokenPrice);\r\n        _transfer(msg.sender, owner, amount * 10**18);\r\n\r\n        emit Withdraw(msg.sender, amount);\r\n    }\r\n\r\n    // duration -> seconds\r\n    function stake(uint256 duration, uint256 amountToBeStaked) external {\r\n        amountToBeStaked *= 10**18;\r\n        require(\r\n            balanceOf(msg.sender) >= amountToBeStaked,\r\n            \"You have insufficient funds to stake!\"\r\n        );\r\n\r\n        require(\r\n            accountStakeDates[msg.sender] == 0,\r\n            \"This account has already established a stake process!\"\r\n        );\r\n\r\n        require(duration > 0, \"Duration should be a positive value!\");\r\n\r\n        // Stake amounts of accounts:\r\n        accountStakeAmounts[msg.sender] = amountToBeStaked;\r\n\r\n        // Take out the staked amount from the user balance.\r\n        //_balances[msg.sender] -= amountToBeStaked;\r\n        _transfer(msg.sender, owner, amountToBeStaked);\r\n\r\n        // Timestamp for stake duration.\r\n        accountStakeDates[msg.sender] = block.timestamp + duration;\r\n\r\n        // Stake reward\r\n        latestStakeRewards[msg.sender] = calculateStakeReward(\r\n            amountToBeStaked,\r\n            duration\r\n        );\r\n\r\n        accountStakeAmounts[msg.sender] += latestStakeRewards[msg.sender];\r\n\r\n        emit Stake(msg.sender, amountToBeStaked, duration);\r\n    }\r\n\r\n    function calculateStakeReward(uint256 amountToBeStaked, uint256 duration)\r\n        private\r\n        pure\r\n        returns (uint256)\r\n    {\r\n        uint256 stakeRate = interest;\r\n        stakeRate = stakeRate * duration;\r\n\r\n        // More than 100 ETH:\r\n        if (amountToBeStaked > 100) {\r\n            stakeRate = stakeRate * 2;\r\n        }\r\n        return (amountToBeStaked * stakeRate) / 1000000000;\r\n    }\r\n\r\n    function checkStakeStatus(address publicAddress, uint256 currentTimeStamp)\r\n        external\r\n    {\r\n        uint256 stakeTimeStamp = accountStakeDates[publicAddress];\r\n        require(\r\n            stakeTimeStamp <= currentTimeStamp,\r\n            \"Stake duration has not been ended yet!\"\r\n        );\r\n\r\n        handleCompletedStake(publicAddress);\r\n        emit StakeCompleted(publicAddress);\r\n    }\r\n\r\n    // If account's stake duration is over, then we set stake parameters as 0\r\n    // after adding up the staked amount to the current balance.\r\n\r\n    function handleCompletedStake(address publicAddress) private {\r\n        _transfer(owner, publicAddress, accountStakeAmounts[publicAddress]);\r\n        accountStakeDates[publicAddress] = 0;\r\n        accountStakeAmounts[publicAddress] = 0;\r\n        latestStakeRewards[publicAddress] = 0;\r\n    }\r\n\r\n    function getBalance(address publicAddress) external view returns (uint256) {\r\n        return balanceOf(publicAddress) / 10**18;\r\n    }\r\n\r\n    function getStakeAmount(address publicAddress)\r\n        external\r\n        view\r\n        returns (uint256)\r\n    {\r\n        return accountStakeAmounts[publicAddress] / 10**18;\r\n    }\r\n\r\n    function getCurrentStakeReward(address publicAddress)\r\n        external\r\n        view\r\n        returns (uint256)\r\n    {\r\n        return latestStakeRewards[publicAddress] / 10**18;\r\n    }\r\n\r\n    function getStakeCompletionDate(address publicAddress)\r\n        external\r\n        view\r\n        returns (uint256)\r\n    {\r\n        return accountStakeDates[publicAddress];\r\n    }\r\n\r\n    function getInterest() external pure returns (uint256) {\r\n        return interest;\r\n    }\r\n\r\n    function getTokenPrice() public view returns (uint256) {\r\n        uint256 contractBalance = getContractBalance();\r\n        uint256 tokenPrice = contractBalance / maxSupply;\r\n\r\n        // If it is the first transaction on this smart contract,\r\n        // token price will be 0. To prevent multiply error, we\r\n        // assing token price with the lowest possible value 1.\r\n\r\n        // @var tokenPrice: minimum value of token\r\n        if (tokenPrice < minimumTokenValue) {\r\n            tokenPrice = minimumTokenValue;\r\n        }\r\n        return tokenPrice;\r\n    }\r\n\r\n    function getContractBalance() public view returns (uint256) {\r\n        return address(this).balance;\r\n    }\r\n\r\n    // NFT Handlers:\r\n\r\n    function registerNewCollectible(\r\n        string memory tokenUri,\r\n        string memory description,\r\n        uint256 price,\r\n        bool isAvailableToTrade\r\n    ) external {\r\n        collectibleToken.createNewCollectible(\r\n            tokenUri,\r\n            description,\r\n            price * 10**18,\r\n            msg.sender,\r\n            isAvailableToTrade\r\n        );\r\n        require(\r\n            balanceOf(msg.sender) >= collectibleFee,\r\n            \"Sender doesn't have enough funds to pay registration fee!\"\r\n        );\r\n        //_balances[msg.sender] -= collectibleFee;\r\n        _transfer(msg.sender, owner, collectibleFee);\r\n    }\r\n\r\n    function burnCollectible(uint256 tokenID) external {\r\n        collectibleToken.burnCollectible(tokenID, msg.sender);\r\n    }\r\n\r\n    function setPriceOfCollectible(uint256 tokenID, uint256 price) external {\r\n        require(\r\n            balanceOf(msg.sender) >= collectibleFee / 10,\r\n            \"Sender doesn't have enough funds to pay registration fee!\"\r\n        );\r\n        _transfer(msg.sender, owner, collectibleFee / 10);\r\n        collectibleToken.setPriceOfCollectible(\r\n            msg.sender,\r\n            tokenID,\r\n            price * 10**18\r\n        );\r\n    }\r\n\r\n    function setAvailabilityOfCollectible(uint256 tokenID, bool availability)\r\n        external\r\n    {\r\n        collectibleToken.setAvailabilityOfCollectible(\r\n            msg.sender,\r\n            tokenID,\r\n            availability\r\n        );\r\n    }\r\n\r\n    function buyCollectible(uint256 tokenID) external {\r\n        uint256 price = collectibleToken.getPriceOfCollectible(tokenID);\r\n        require(\r\n            getAvailabilityOfToken(tokenID) == true,\r\n            \"Token is not available for trade!\"\r\n        );\r\n        require(\r\n            price <= balanceOf(msg.sender),\r\n            \"Sender doesn't have enough funds!\"\r\n        );\r\n\r\n        address collectibleOwner = collectibleToken.getTokenOwner(tokenID);\r\n        _transfer(msg.sender, collectibleOwner, price);\r\n        collectibleToken.transferCollectible(msg.sender, tokenID);\r\n    }\r\n\r\n    // NFT view functions:\r\n\r\n    function getTokenURI(uint256 tokenID)\r\n        external\r\n        view\r\n        returns (string memory)\r\n    {\r\n        return collectibleToken.getTokenURI(tokenID);\r\n    }\r\n\r\n    function getTokenCreator(uint256 tokenID) external view returns (address) {\r\n        return collectibleToken.getTokenCreator(tokenID);\r\n    }\r\n\r\n    function getTokenOwner(uint256 tokenID) external view returns (address) {\r\n        return collectibleToken.getTokenOwner(tokenID);\r\n    }\r\n\r\n    function getTokenDescription(uint256 tokenID)\r\n        external\r\n        view\r\n        returns (string memory)\r\n    {\r\n        return collectibleToken.getTokenDescription(tokenID);\r\n    }\r\n\r\n    function getTokenHash(uint256 tokenID) external view returns (bytes32) {\r\n        return collectibleToken.getTokenHash(tokenID);\r\n    }\r\n\r\n    function getPriceOfCollectible(uint256 tokenID)\r\n        external\r\n        view\r\n        returns (uint256)\r\n    {\r\n        return collectibleToken.getPriceOfCollectible(tokenID) / 10**18;\r\n    }\r\n\r\n    function getAvailabilityOfToken(uint256 tokenID)\r\n        public\r\n        view\r\n        returns (bool)\r\n    {\r\n        return collectibleToken.getAvailabilityOfToken(tokenID);\r\n    }\r\n\r\n    function getCollectibleFee() public view returns (uint256) {\r\n        return collectibleFee / 10**18;\r\n    }\r\n\r\n    function getTokenCount() external view returns (uint256) {\r\n        return collectibleToken.getTokenCount();\r\n    }\r\n\r\n    function getAccessibility(uint256 tokenID) external view returns (bool) {\r\n        return collectibleToken.getAccessibility(tokenID);\r\n    }\r\n\r\n    event Sent(address from, address to, uint256 amount);\r\n\r\n    event Deposit(address from, uint256 amount);\r\n\r\n    event Withdraw(address from, uint256 amount);\r\n\r\n    event Stake(address from, uint256 amount, uint256 duration);\r\n\r\n    event StakeCompleted(address from);\r\n\r\n    event StakeIsActive(address from, uint256 duration);\r\n}\r\n",
  "sourcePath": "C:\\Users\\berk_\\Desktop\\GitHub Project Repositories\\berkcoin\\dapp\\contracts\\BerkToken.sol",
  "compiler": {
    "name": "solc",
    "version": "0.8.15+commit.e14f2714.Emscripten.clang"
  },
  "schemaVersion": "3.4.8",
  "updatedAt": "2022-07-24T14:44:02.583Z",
  "devdoc": {
    "kind": "dev",
    "methods": {
      "allowance(address,address)": {
        "details": "See {IERC20-allowance}."
      },
      "approve(address,uint256)": {
        "details": "See {IERC20-approve}. NOTE: If `amount` is the maximum `uint256`, the allowance is not updated on `transferFrom`. This is semantically equivalent to an infinite approval. Requirements: - `spender` cannot be the zero address."
      },
      "balanceOf(address)": {
        "details": "See {IERC20-balanceOf}."
      },
      "decimals()": {
        "details": "Returns the number of decimals used to get its user representation. For example, if `decimals` equals `2`, a balance of `505` tokens should be displayed to a user as `5.05` (`505 / 10 ** 2`). Tokens usually opt for a value of 18, imitating the relationship between Ether and Wei. This is the value {ERC20} uses, unless this function is overridden; NOTE: This information is only used for _display_ purposes: it in no way affects any of the arithmetic of the contract, including {IERC20-balanceOf} and {IERC20-transfer}."
      },
      "decreaseAllowance(address,uint256)": {
        "details": "Atomically decreases the allowance granted to `spender` by the caller. This is an alternative to {approve} that can be used as a mitigation for problems described in {IERC20-approve}. Emits an {Approval} event indicating the updated allowance. Requirements: - `spender` cannot be the zero address. - `spender` must have allowance for the caller of at least `subtractedValue`."
      },
      "increaseAllowance(address,uint256)": {
        "details": "Atomically increases the allowance granted to `spender` by the caller. This is an alternative to {approve} that can be used as a mitigation for problems described in {IERC20-approve}. Emits an {Approval} event indicating the updated allowance. Requirements: - `spender` cannot be the zero address."
      },
      "name()": {
        "details": "Returns the name of the token."
      },
      "symbol()": {
        "details": "Returns the symbol of the token, usually a shorter version of the name."
      },
      "totalSupply()": {
        "details": "See {IERC20-totalSupply}."
      },
      "transfer(address,uint256)": {
        "details": "See {IERC20-transfer}. Requirements: - `to` cannot be the zero address. - the caller must have a balance of at least `amount`."
      },
      "transferFrom(address,address,uint256)": {
        "details": "See {IERC20-transferFrom}. Emits an {Approval} event indicating the updated allowance. This is not required by the EIP. See the note at the beginning of {ERC20}. NOTE: Does not update the allowance if the current allowance is the maximum `uint256`. Requirements: - `from` and `to` cannot be the zero address. - `from` must have a balance of at least `amount`. - the caller must have allowance for ``from``'s tokens of at least `amount`."
      }
    },
    "version": 1
  },
  "userdoc": {
    "kind": "user",
    "methods": {},
    "version": 1
  }
}