{
  "contractName": "BerkToken",
  "abi": [
    {
      "inputs": [],
      "stateMutability": "nonpayable",
      "type": "constructor"
    },
    {
      "anonymous": false,
      "inputs": [
        {
          "indexed": false,
          "internalType": "address",
          "name": "from",
          "type": "address"
        },
        {
          "indexed": false,
          "internalType": "uint256",
          "name": "amount",
          "type": "uint256"
        }
      ],
      "name": "Deposit",
      "type": "event"
    },
    {
      "anonymous": false,
      "inputs": [
        {
          "indexed": false,
          "internalType": "address",
          "name": "from",
          "type": "address"
        },
        {
          "indexed": false,
          "internalType": "address",
          "name": "to",
          "type": "address"
        },
        {
          "indexed": false,
          "internalType": "uint256",
          "name": "amount",
          "type": "uint256"
        }
      ],
      "name": "Sent",
      "type": "event"
    },
    {
      "anonymous": false,
      "inputs": [
        {
          "indexed": false,
          "internalType": "address",
          "name": "from",
          "type": "address"
        },
        {
          "indexed": false,
          "internalType": "uint256",
          "name": "amount",
          "type": "uint256"
        },
        {
          "indexed": false,
          "internalType": "uint256",
          "name": "duration",
          "type": "uint256"
        }
      ],
      "name": "Stake",
      "type": "event"
    },
    {
      "anonymous": false,
      "inputs": [
        {
          "indexed": false,
          "internalType": "address",
          "name": "from",
          "type": "address"
        }
      ],
      "name": "StakeCompleted",
      "type": "event"
    },
    {
      "anonymous": false,
      "inputs": [
        {
          "indexed": false,
          "internalType": "address",
          "name": "from",
          "type": "address"
        },
        {
          "indexed": false,
          "internalType": "uint256",
          "name": "duration",
          "type": "uint256"
        }
      ],
      "name": "StakeIsActive",
      "type": "event"
    },
    {
      "anonymous": false,
      "inputs": [
        {
          "indexed": false,
          "internalType": "address",
          "name": "from",
          "type": "address"
        },
        {
          "indexed": false,
          "internalType": "uint256",
          "name": "amount",
          "type": "uint256"
        }
      ],
      "name": "Withdraw",
      "type": "event"
    },
    {
      "inputs": [
        {
          "internalType": "address",
          "name": "",
          "type": "address"
        }
      ],
      "name": "accountStakeAmounts",
      "outputs": [
        {
          "internalType": "uint256",
          "name": "",
          "type": "uint256"
        }
      ],
      "stateMutability": "view",
      "type": "function",
      "constant": true
    },
    {
      "inputs": [
        {
          "internalType": "address",
          "name": "",
          "type": "address"
        }
      ],
      "name": "accountStakeDates",
      "outputs": [
        {
          "internalType": "uint256",
          "name": "",
          "type": "uint256"
        }
      ],
      "stateMutability": "view",
      "type": "function",
      "constant": true
    },
    {
      "inputs": [
        {
          "internalType": "address",
          "name": "",
          "type": "address"
        }
      ],
      "name": "balances",
      "outputs": [
        {
          "internalType": "uint256",
          "name": "",
          "type": "uint256"
        }
      ],
      "stateMutability": "view",
      "type": "function",
      "constant": true
    },
    {
      "inputs": [],
      "name": "collectibleFee",
      "outputs": [
        {
          "internalType": "uint256",
          "name": "",
          "type": "uint256"
        }
      ],
      "stateMutability": "view",
      "type": "function",
      "constant": true
    },
    {
      "inputs": [
        {
          "internalType": "address",
          "name": "",
          "type": "address"
        }
      ],
      "name": "latestStakeRewards",
      "outputs": [
        {
          "internalType": "uint256",
          "name": "",
          "type": "uint256"
        }
      ],
      "stateMutability": "view",
      "type": "function",
      "constant": true
    },
    {
      "inputs": [
        {
          "internalType": "address",
          "name": "receiver",
          "type": "address"
        },
        {
          "internalType": "uint256",
          "name": "amount",
          "type": "uint256"
        }
      ],
      "name": "send",
      "outputs": [],
      "stateMutability": "nonpayable",
      "type": "function"
    },
    {
      "inputs": [
        {
          "internalType": "uint256",
          "name": "duration",
          "type": "uint256"
        },
        {
          "internalType": "uint256",
          "name": "amountToBeStaked",
          "type": "uint256"
        }
      ],
      "name": "stake",
      "outputs": [],
      "stateMutability": "nonpayable",
      "type": "function"
    },
    {
      "inputs": [
        {
          "internalType": "uint256",
          "name": "amount",
          "type": "uint256"
        }
      ],
      "name": "deposit",
      "outputs": [],
      "stateMutability": "payable",
      "type": "function",
      "payable": true
    },
    {
      "inputs": [
        {
          "internalType": "uint256",
          "name": "amount",
          "type": "uint256"
        }
      ],
      "name": "withdraw",
      "outputs": [],
      "stateMutability": "nonpayable",
      "type": "function"
    },
    {
      "inputs": [
        {
          "internalType": "address",
          "name": "publicAddress",
          "type": "address"
        },
        {
          "internalType": "uint256",
          "name": "currentTimeStamp",
          "type": "uint256"
        }
      ],
      "name": "checkStakeStatus",
      "outputs": [],
      "stateMutability": "nonpayable",
      "type": "function"
    },
    {
      "inputs": [
        {
          "internalType": "uint256",
          "name": "amountToBeBurned",
          "type": "uint256"
        }
      ],
      "name": "burnTokens",
      "outputs": [],
      "stateMutability": "nonpayable",
      "type": "function"
    },
    {
      "inputs": [
        {
          "internalType": "address",
          "name": "publicAddress",
          "type": "address"
        }
      ],
      "name": "getBalance",
      "outputs": [
        {
          "internalType": "uint256",
          "name": "",
          "type": "uint256"
        }
      ],
      "stateMutability": "view",
      "type": "function",
      "constant": true
    },
    {
      "inputs": [
        {
          "internalType": "address",
          "name": "publicAddress",
          "type": "address"
        }
      ],
      "name": "getStakeAmount",
      "outputs": [
        {
          "internalType": "uint256",
          "name": "",
          "type": "uint256"
        }
      ],
      "stateMutability": "view",
      "type": "function",
      "constant": true
    },
    {
      "inputs": [
        {
          "internalType": "address",
          "name": "publicAddress",
          "type": "address"
        }
      ],
      "name": "getCurrentStakeReward",
      "outputs": [
        {
          "internalType": "uint256",
          "name": "",
          "type": "uint256"
        }
      ],
      "stateMutability": "view",
      "type": "function",
      "constant": true
    },
    {
      "inputs": [
        {
          "internalType": "address",
          "name": "publicAddress",
          "type": "address"
        }
      ],
      "name": "getStakeCompletionDate",
      "outputs": [
        {
          "internalType": "uint256",
          "name": "",
          "type": "uint256"
        }
      ],
      "stateMutability": "view",
      "type": "function",
      "constant": true
    },
    {
      "inputs": [],
      "name": "getInterest",
      "outputs": [
        {
          "internalType": "uint256",
          "name": "",
          "type": "uint256"
        }
      ],
      "stateMutability": "pure",
      "type": "function",
      "constant": true
    },
    {
      "inputs": [],
      "name": "getTokenPrice",
      "outputs": [
        {
          "internalType": "uint256",
          "name": "",
          "type": "uint256"
        }
      ],
      "stateMutability": "view",
      "type": "function",
      "constant": true
    },
    {
      "inputs": [],
      "name": "getContractBalance",
      "outputs": [
        {
          "internalType": "uint256",
          "name": "",
          "type": "uint256"
        }
      ],
      "stateMutability": "view",
      "type": "function",
      "constant": true
    },
    {
      "inputs": [
        {
          "internalType": "string",
          "name": "tokenUri",
          "type": "string"
        },
        {
          "internalType": "string",
          "name": "description",
          "type": "string"
        },
        {
          "internalType": "uint256",
          "name": "price",
          "type": "uint256"
        },
        {
          "internalType": "bool",
          "name": "isAvailableToTrade",
          "type": "bool"
        }
      ],
      "name": "registerNewCollectible",
      "outputs": [],
      "stateMutability": "nonpayable",
      "type": "function"
    },
    {
      "inputs": [
        {
          "internalType": "uint256",
          "name": "tokenID",
          "type": "uint256"
        }
      ],
      "name": "burnCollectible",
      "outputs": [],
      "stateMutability": "nonpayable",
      "type": "function"
    },
    {
      "inputs": [
        {
          "internalType": "uint256",
          "name": "tokenID",
          "type": "uint256"
        },
        {
          "internalType": "uint256",
          "name": "price",
          "type": "uint256"
        }
      ],
      "name": "setPriceOfCollectible",
      "outputs": [],
      "stateMutability": "nonpayable",
      "type": "function"
    },
    {
      "inputs": [
        {
          "internalType": "uint256",
          "name": "tokenID",
          "type": "uint256"
        },
        {
          "internalType": "bool",
          "name": "availability",
          "type": "bool"
        }
      ],
      "name": "setAvailabilityOfCollectible",
      "outputs": [],
      "stateMutability": "nonpayable",
      "type": "function"
    },
    {
      "inputs": [
        {
          "internalType": "uint256",
          "name": "tokenID",
          "type": "uint256"
        }
      ],
      "name": "buyCollectible",
      "outputs": [],
      "stateMutability": "nonpayable",
      "type": "function"
    },
    {
      "inputs": [
        {
          "internalType": "uint256",
          "name": "tokenID",
          "type": "uint256"
        }
      ],
      "name": "getTokenURI",
      "outputs": [
        {
          "internalType": "string",
          "name": "",
          "type": "string"
        }
      ],
      "stateMutability": "view",
      "type": "function",
      "constant": true
    },
    {
      "inputs": [
        {
          "internalType": "uint256",
          "name": "tokenID",
          "type": "uint256"
        }
      ],
      "name": "getTokenCreator",
      "outputs": [
        {
          "internalType": "address",
          "name": "",
          "type": "address"
        }
      ],
      "stateMutability": "view",
      "type": "function",
      "constant": true
    },
    {
      "inputs": [
        {
          "internalType": "uint256",
          "name": "tokenID",
          "type": "uint256"
        }
      ],
      "name": "getTokenOwner",
      "outputs": [
        {
          "internalType": "address",
          "name": "",
          "type": "address"
        }
      ],
      "stateMutability": "view",
      "type": "function",
      "constant": true
    },
    {
      "inputs": [
        {
          "internalType": "uint256",
          "name": "tokenID",
          "type": "uint256"
        }
      ],
      "name": "getTokenDescription",
      "outputs": [
        {
          "internalType": "string",
          "name": "",
          "type": "string"
        }
      ],
      "stateMutability": "view",
      "type": "function",
      "constant": true
    },
    {
      "inputs": [
        {
          "internalType": "uint256",
          "name": "tokenID",
          "type": "uint256"
        }
      ],
      "name": "getTokenHash",
      "outputs": [
        {
          "internalType": "bytes32",
          "name": "",
          "type": "bytes32"
        }
      ],
      "stateMutability": "view",
      "type": "function",
      "constant": true
    },
    {
      "inputs": [
        {
          "internalType": "uint256",
          "name": "tokenID",
          "type": "uint256"
        }
      ],
      "name": "getPriceOfCollectible",
      "outputs": [
        {
          "internalType": "uint256",
          "name": "",
          "type": "uint256"
        }
      ],
      "stateMutability": "view",
      "type": "function",
      "constant": true
    },
    {
      "inputs": [
        {
          "internalType": "uint256",
          "name": "tokenID",
          "type": "uint256"
        }
      ],
      "name": "getAvailabilityOfToken",
      "outputs": [
        {
          "internalType": "bool",
          "name": "",
          "type": "bool"
        }
      ],
      "stateMutability": "view",
      "type": "function",
      "constant": true
    },
    {
      "inputs": [],
      "name": "getCollectibleFee",
      "outputs": [
        {
          "internalType": "uint256",
          "name": "",
          "type": "uint256"
        }
      ],
      "stateMutability": "view",
      "type": "function",
      "constant": true
    },
    {
      "inputs": [],
      "name": "getTokenCount",
      "outputs": [
        {
          "internalType": "uint256",
          "name": "",
          "type": "uint256"
        }
      ],
      "stateMutability": "view",
      "type": "function",
      "constant": true
    }
  ],
  "bytecode": "0x60806040523480156200001157600080fd5b506040516200002090620000c5565b604051809103906000f0801580156200003d573d6000803e3d6000fd5b50600480546001600160a01b0319166001600160a01b03929092169182178155604080516342ebc88160e11b815290516385d79102928281019260209291908290030181865afa15801562000096573d6000803e3d6000fd5b505050506040513d601f19601f82011682018060405250810190620000bc9190620000d3565b600555620000ed565b6110ae8062001c2f83390190565b600060208284031215620000e657600080fd5b5051919050565b611b3280620000fd6000396000f3fe6080604052600436106101e35760003560e01c80637b0472f011610102578063b6b55f2511610095578063d287f3de11610064578063d287f3de146105d6578063df5a4b64146105f6578063e5a4bed314610623578063f8b2cb4f1461063757600080fd5b8063b6b55f251461056d578063c4a239a914610580578063c4e6e3e5146105a0578063d0679d34146105b657600080fd5b8063a0cc0dc5116100d1578063a0cc0dc5146104ed578063a5cd761f1461050d578063b04c8e871461052d578063b3154c081461054d57600080fd5b80637b0472f01461043f5780637dd9ebca1461045f57806380b891a414610495578063934689a9146104b557600080fd5b80634de262111161017a5780636f9fb98a116101495780636f9fb98a146103c157806378a89567146103d45780637991c6e4146103e95780637a1ea1051461040957600080fd5b80634de2621114610331578063683a12391461036157806368aaca9b146103815780636d1b229d146103a157600080fd5b80632e1a7d4d116101b65780632e1a7d4d146102a05780632e6b640c146102c25780633bb3a24d146102ef5780634b94f50e1461031c57600080fd5b80630c2eb403146101e8578063196ebdfd1461023157806321685a4d1461025e57806327e235e314610273575b600080fd5b3480156101f457600080fd5b5061021e610203366004611684565b6001600160a01b031660009081526002602052604090205490565b6040519081526020015b60405180910390f35b34801561023d57600080fd5b5061021e61024c366004611684565b60036020526000908152604090205481565b34801561026a57600080fd5b5060055461021e565b34801561027f57600080fd5b5061021e61028e366004611684565b60006020819052908152604090205481565b3480156102ac57600080fd5b506102c06102bb3660046116a8565b61066d565b005b3480156102ce57600080fd5b5061021e6102dd366004611684565b60016020526000908152604090205481565b3480156102fb57600080fd5b5061030f61030a3660046116a8565b610790565b604051610228919061171d565b34801561032857600080fd5b5061021e61080b565b34801561033d57600080fd5b5061035161034c3660046116a8565b61083c565b6040519015158152602001610228565b34801561036d57600080fd5b506102c061037c366004611730565b6108ac565b34801561038d57600080fd5b5061021e61039c3660046116a8565b610a11565b3480156103ad57600080fd5b506102c06103bc3660046116a8565b610a82565b3480156103cd57600080fd5b504761021e565b3480156103e057600080fd5b5061021e610b14565b3480156103f557600080fd5b506102c0610404366004611825565b610b92565b34801561041557600080fd5b5061021e610424366004611684565b6001600160a01b031660009081526001602052604090205490565b34801561044b57600080fd5b506102c061045a366004611730565b610c6e565b34801561046b57600080fd5b5061021e61047a366004611684565b6001600160a01b031660009081526003602052604090205490565b3480156104a157600080fd5b506102c06104b03660046118a5565b610e76565b3480156104c157600080fd5b506104d56104d03660046116a8565b610f38565b6040516001600160a01b039091168152602001610228565b3480156104f957600080fd5b5061021e6105083660046116a8565b610fa9565b34801561051957600080fd5b506104d56105283660046116a8565b610fdd565b34801561053957600080fd5b506102c06105483660046116a8565b611011565b34801561055957600080fd5b5061030f6105683660046116a8565b611284565b6102c061057b3660046116a8565b6112b8565b34801561058c57600080fd5b506102c061059b3660046118d1565b6113f0565b3480156105ac57600080fd5b5061021e60055481565b3480156105c257600080fd5b506102c06105d13660046118a5565b611461565b3480156105e257600080fd5b506102c06105f13660046116a8565b611563565b34801561060257600080fd5b5061021e610611366004611684565b60026020526000908152604090205481565b34801561062f57600080fd5b50600261021e565b34801561064357600080fd5b5061021e610652366004611684565b6001600160a01b031660009081526020819052604090205490565b336000908152602081905260409020548111156106eb5760405162461bcd60e51b815260206004820152603160248201527f596f7520646f6e2774206861766520656e6f7567682066756e647320696e20796044820152706f75722062616e6b206163636f756e742160781b60648201526084015b60405180910390fd5b60006106f561080b565b9050336108fc6107058385611917565b6040518115909202916000818181858888f1935050505015801561072d573d6000803e3d6000fd5b50336000908152602081905260408120805484929061074d908490611936565b909155505060408051338152602081018490527f884edad9ce6fa2440d8a54cc123490eb96d2768479d49ff9c7366125a942436491015b60405180910390a15050565b60048054604051633bb3a24d60e01b81529182018390526060916001600160a01b0390911690633bb3a24d906024015b600060405180830381865afa1580156107dd573d6000803e3d6000fd5b505050506040513d6000823e601f3d908101601f19168201604052610805919081019061194d565b92915050565b6000478161081e6402540be400836119c4565b90506509184e72a00081101561080557506509184e72a00092915050565b60048054604051634de2621160e01b81529182018390526000916001600160a01b0390911690634de2621190602401602060405180830381865afa158015610888573d6000803e3d6000fd5b505050506040513d601f19601f8201168201806040525081019061080591906119e6565b600480546040516368aaca9b60e01b81529182018490526000916001600160a01b03909116906368aaca9b90602401602060405180830381865afa1580156108f8573d6000803e3d6000fd5b505050506040513d601f19601f8201168201806040525081019061091c9190611a03565b60055490915061092c8284611936565b61093691906119c4565b3360009081526020819052604090205410156109645760405162461bcd60e51b81526004016106e290611a1c565b6005546109718284611936565b61097b91906119c4565b336000908152602081905260408120805490919061099a908490611936565b90915550506004805460405163fbb5b35f60e01b8152339281019290925260248201859052604482018490526001600160a01b03169063fbb5b35f906064015b600060405180830381600087803b1580156109f457600080fd5b505af1158015610a08573d6000803e3d6000fd5b50505050505050565b600480546040516368aaca9b60e01b81529182018390526000916001600160a01b03909116906368aaca9b906024015b602060405180830381865afa158015610a5e573d6000803e3d6000fd5b505050506040513d601f19601f820116820180604052508101906108059190611a03565b33600090815260208190526040902054811115610aed5760405162461bcd60e51b8152602060048201526024808201527f596f75206861766520696e73756666696369656e742066756e647320746f206260448201526375726e2160e01b60648201526084016106e2565b3360009081526020819052604081208054839290610b0c908490611936565b909155505050565b6000600460009054906101000a90046001600160a01b03166001600160a01b03166378a895676040518163ffffffff1660e01b8152600401602060405180830381865afa158015610b69573d6000803e3d6000fd5b505050506040513d601f19601f82011682018060405250810190610b8d9190611a03565b905090565b6004805460405163179c971d60e21b81526001600160a01b0390911691635e725c7491610bc9918891889188913391899101611a79565b600060405180830381600087803b158015610be357600080fd5b505af1158015610bf7573d6000803e3d6000fd5b5050505060055482610c0991906119c4565b336000908152602081905260409020541015610c375760405162461bcd60e51b81526004016106e290611a1c565b600554610c4490836119c4565b3360009081526020819052604081208054909190610c63908490611936565b909155505050505050565b33600090815260208190526040902054811115610cdb5760405162461bcd60e51b815260206004820152602560248201527f596f75206861766520696e73756666696369656e742066756e647320746f207360448201526474616b652160d81b60648201526084016106e2565b3360009081526001602052604090205415610d565760405162461bcd60e51b815260206004820152603560248201527f54686973206163636f756e742068617320616c72656164792065737461626c69604482015274736865642061207374616b652070726f636573732160581b60648201526084016106e2565b60008211610db25760405162461bcd60e51b8152602060048201526024808201527f4475726174696f6e2073686f756c64206265206120706f7369746976652076616044820152636c75652160e01b60648201526084016106e2565b3360009081526002602090815260408083208490559082905281208054839290610ddd908490611936565b90915550610ded90508242611ac7565b33600090815260016020526040902055610e0781836115c8565b336000908152600360209081526040808320849055600290915281208054909190610e33908490611ac7565b909155505060408051338152602081018390529081018390527f5af417134f72a9d41143ace85b0a26dce6f550f894f2cbc1eeee8810603d91b690606001610784565b6001600160a01b03821660009081526001602052604090205481811115610eee5760405162461bcd60e51b815260206004820152602660248201527f5374616b65206475726174696f6e20686173206e6f74206265656e20656e646560448201526564207965742160d01b60648201526084016106e2565b610ef783611603565b6040516001600160a01b03841681527fa413e42c61420bd7d37579e855fd30e0233a6fcce5217b742816c4a389b9b7d29060200160405180910390a1505050565b6004805460405163934689a960e01b81529182018390526000916001600160a01b039091169063934689a9906024015b602060405180830381865afa158015610f85573d6000803e3d6000fd5b505050506040513d601f19601f820116820180604052508101906108059190611adf565b6004805460405163a0cc0dc560e01b81529182018390526000916001600160a01b039091169063a0cc0dc590602401610a41565b6004805460405163a5cd761f60e01b81529182018390526000916001600160a01b039091169063a5cd761f90602401610f68565b600480546040516368aaca9b60e01b81529182018390526000916001600160a01b03909116906368aaca9b90602401602060405180830381865afa15801561105d573d6000803e3d6000fd5b505050506040513d601f19601f820116820180604052508101906110819190611a03565b905061108c8261083c565b15156001146110e75760405162461bcd60e51b815260206004820152602160248201527f546f6b656e206973206e6f7420617661696c61626c6520666f722074726164656044820152602160f81b60648201526084016106e2565b3360009081526020819052604090205460055461110490836119c4565b61110e9083611ac7565b11156111665760405162461bcd60e51b815260206004820152602160248201527f53656e64657220646f65736e2774206861766520656e6f7567682066756e64736044820152602160f81b60648201526084016106e2565b6004805460405163a5cd761f60e01b81529182018490526000916001600160a01b039091169063a5cd761f90602401602060405180830381865afa1580156111b2573d6000803e3d6000fd5b505050506040513d601f19601f820116820180604052508101906111d69190611adf565b905081600080836001600160a01b03166001600160a01b03168152602001908152602001600020600082825461120c9190611ac7565b909155505060055461121e90836119c4565b6112289083611ac7565b3360009081526020819052604081208054909190611247908490611936565b909155505060048054604051633a0e4d7960e11b81523392810192909252602482018590526001600160a01b03169063741c9af2906044016109da565b60048054604051631662a98160e31b81529182018390526060916001600160a01b039091169063b3154c08906024016107c0565b600134116113185760405162461bcd60e51b815260206004820152602760248201527f4465706f73697420616d6f756e74206d757374206265206d6f7265207468616e6044820152662031207765692160c81b60648201526084016106e2565b600061132261080b565b905061132e8183611917565b3410156113975760405162461bcd60e51b815260206004820152603160248201527f4465706f73697420616d6f756e7420776f727468206d757374206265206174206044820152706c656173742031206265726b636f696e2160781b60648201526084016106e2565b33600090815260208190526040812080548492906113b6908490611ac7565b9091555050604080513381523460208201527fe1fffcc4923d04b559f4d29a8bfc6cda04eb5b0d3c460751c2402c5c5cc9109c9101610784565b60048054604051631efd7df960e31b815233928101929092526024820184905282151560448301526001600160a01b03169063f7ebefc890606401600060405180830381600087803b15801561144557600080fd5b505af1158015611459573d6000803e3d6000fd5b505050505050565b336000908152602081905260409020548111156114cc5760405162461bcd60e51b8152602060048201526024808201527f596f7520646f6e2774206861766520656e6f7567682066756e647320746f2073604482015263656e642160e01b60648201526084016106e2565b33600090815260208190526040812080548392906114eb908490611936565b90915550506001600160a01b03821660009081526020819052604081208054839290611518908490611ac7565b9091555050604080513381526001600160a01b03841660208201529081018290527f3990db2d31862302a685e8086b5755072a6e2b5b780af1ee81ece35ee3cd334590606001610784565b6004805460405163412838a760e01b81529182018390523360248301526001600160a01b03169063412838a790604401600060405180830381600087803b1580156115ad57600080fd5b505af11580156115c1573d6000803e3d6000fd5b5050505050565b600060026115d68382611917565b905060648411156115ef576115ec816002611917565b90505b6115fb612710826119c4565b949350505050565b6001600160a01b038116600090815260026020908152604080832054918390528220805491929091611636908490611ac7565b90915550506001600160a01b03166000908152600160209081526040808320839055600282528083208390556003909152812055565b6001600160a01b038116811461168157600080fd5b50565b60006020828403121561169657600080fd5b81356116a18161166c565b9392505050565b6000602082840312156116ba57600080fd5b5035919050565b60005b838110156116dc5781810151838201526020016116c4565b838111156116eb576000848401525b50505050565b600081518084526117098160208601602086016116c1565b601f01601f19169290920160200192915050565b6020815260006116a160208301846116f1565b6000806040838503121561174357600080fd5b50508035926020909101359150565b634e487b7160e01b600052604160045260246000fd5b604051601f8201601f1916810167ffffffffffffffff8111828210171561179157611791611752565b604052919050565b600067ffffffffffffffff8211156117b3576117b3611752565b50601f01601f191660200190565b600082601f8301126117d257600080fd5b81356117e56117e082611799565b611768565b8181528460208386010111156117fa57600080fd5b816020850160208301376000918101602001919091529392505050565b801515811461168157600080fd5b6000806000806080858703121561183b57600080fd5b843567ffffffffffffffff8082111561185357600080fd5b61185f888389016117c1565b9550602087013591508082111561187557600080fd5b50611882878288016117c1565b93505060408501359150606085013561189a81611817565b939692955090935050565b600080604083850312156118b857600080fd5b82356118c38161166c565b946020939093013593505050565b600080604083850312156118e457600080fd5b8235915060208301356118f681611817565b809150509250929050565b634e487b7160e01b600052601160045260246000fd5b600081600019048311821515161561193157611931611901565b500290565b60008282101561194857611948611901565b500390565b60006020828403121561195f57600080fd5b815167ffffffffffffffff81111561197657600080fd5b8201601f8101841361198757600080fd5b80516119956117e082611799565b8181528560208385010111156119aa57600080fd5b6119bb8260208301602086016116c1565b95945050505050565b6000826119e157634e487b7160e01b600052601260045260246000fd5b500490565b6000602082840312156119f857600080fd5b81516116a181611817565b600060208284031215611a1557600080fd5b5051919050565b60208082526039908201527f53656e64657220646f65736e2774206861766520656e6f7567682066756e647360408201527f20746f2070617920726567697374726174696f6e206665652100000000000000606082015260800190565b60a081526000611a8c60a08301886116f1565b8281036020840152611a9e81886116f1565b604084019690965250506001600160a01b03929092166060830152151560809091015292915050565b60008219821115611ada57611ada611901565b500190565b600060208284031215611af157600080fd5b81516116a18161166c56fea2646970667358221220b7a2917689c6203eed846ea885746bd961f56dfd8e03f6f330ac5b5e66394ab264736f6c634300080c0033608060405234801561001057600080fd5b506001600081905561271090556110828061002c6000396000f3fe608060405234801561001057600080fd5b506004361061012c5760003560e01c806385d79102116100ad578063a5cd761f11610071578063a5cd761f14610315578063b3154c081461033e578063d082e38114610351578063f7ebefc81461035a578063fbb5b35f1461036d57600080fd5b806385d7910214610292578063934689a91461029a5780639ea2d712146102c65780639ed3edf0146102e9578063a0cc0dc5146102f257600080fd5b80634de26211116100f45780634de262111461020e5780635e725c741461024157806368aaca9b14610254578063741c9af21461027757806378a895671461028a57600080fd5b80630a09859d146101315780633bb3a24d1461015f578063411ba2351461017f578063412838a7146101b85780634b387691146101cd575b600080fd5b61014461013f366004610b2f565b610380565b60405161015696959493929190610ba4565b60405180910390f35b61017261016d366004610b2f565b6104d5565b6040516101569190610bfb565b6101aa61018d366004610cb8565b805160208183018101805160048252928201919093012091525481565b604051908152602001610156565b6101cb6101c6366004610d11565b610577565b005b6101f66101db366004610b2f565b6003602052600090815260409020546001600160a01b031681565b6040516001600160a01b039091168152602001610156565b61023161021c366004610b2f565b60009081526005602052604090205460ff1690565b6040519015158152602001610156565b6101cb61024f366004610d4d565b61064c565b6101aa610262366004610b2f565b60009081526002602052604090206005015490565b6101cb610285366004610ddc565b610888565b6101aa610914565b6001546101aa565b6101f66102a8366004610b2f565b6000908152600260205260409020600101546001600160a01b031690565b6102316102d4366004610b2f565b60056020526000908152604090205460ff1681565b6101aa60015481565b6101aa610300366004610b2f565b60009081526002602052604090206003015490565b6101f6610323366004610b2f565b6000908152600360205260409020546001600160a01b031690565b61017261034c366004610b2f565b61092a565b6101aa60005481565b6101cb610368366004610e06565b61094a565b6101cb61037b366004610e42565b6109d5565b60026020526000908152604090208054819061039b90610e75565b80601f01602080910402602001604051908101604052809291908181526020018280546103c790610e75565b80156104145780601f106103e957610100808354040283529160200191610414565b820191906000526020600020905b8154815290600101906020018083116103f757829003601f168201915b5050505060018301546002840154600385015460048601805495966001600160a01b0394851696949093169450909261044c90610e75565b80601f016020809104026020016040519081016040528092919081815260200182805461047890610e75565b80156104c55780601f1061049a576101008083540402835291602001916104c5565b820191906000526020600020905b8154815290600101906020018083116104a857829003601f168201915b5050505050908060050154905086565b60008181526002602052604090208054606091906104f290610e75565b80601f016020809104026020016040519081016040528092919081815260200182805461051e90610e75565b801561056b5780601f106105405761010080835404028352916020019161056b565b820191906000526020600020905b81548152906001019060200180831161054e57829003601f168201915b50505050509050919050565b600082815260026020819052604090912001546001600160a01b038281169116146105fd5760405162461bcd60e51b815260206004820152602b60248201527f53656e646572206d75737420626520746865206f776e6572206f66207468652060448201526a636f6c6c6563746962652160a81b60648201526084015b60405180910390fd5b600082815260026020526040808220905160049161061a91610eb0565b90815260408051602092819003830190209290925560009384526003905290912080546001600160a01b031916905550565b60048560405161065c9190610f4c565b9081526020016040518091039020546000146106ba5760405162461bcd60e51b815260206004820152601b60248201527f546f6b656e2055524920697320616c7265616479206f776e656421000000000060448201526064016105f4565b60006106c886868686610a59565b90506040518060c00160405280878152602001846001600160a01b03168152602001846001600160a01b031681526020018281526020018681526020018581525060026000805481526020019081526020016000206000820151816000019080519060200190610739929190610a96565b506020828101516001830180546001600160a01b039283166001600160a01b031991821617909155604085015160028501805491909316911617905560608301516003830155608083015180516107969260048501920190610a96565b5060a091909101516005918201556000805481526020919091526040808220805460ff1916851515179055905490516004906107d3908990610f4c565b9081526040519081900360200190205560008054849160039181806107f783610f7e565b91905055815260200190815260200160002060006101000a8154816001600160a01b0302191690836001600160a01b031602179055507ff87fe3264c3638b723b4ec8d76ef1445bea00685c4b9920442f5f2aa1c26732783600160005461085e9190610f99565b604080516001600160a01b03909316835260208301919091520160405180910390a1505050505050565b600081815260036020908152604080832080546001600160a01b03198082166001600160a01b0389811691821790945560028087529685902090960180549091168617905582519116808252928101939093528201839052907ff0f62f5e6af9b2c898cea739cd3c2921ac2f36806004128640c6da4181011165906060015b60405180910390a1505050565b600060016000546109259190610f99565b905090565b60008181526002602052604090206004018054606091906104f290610e75565b6000828152600360205260409020546001600160a01b038481169116146109835760405162461bcd60e51b81526004016105f490610fb0565b600082815260056020908152604091829020805460ff19168415159081179091558251858152918201527fbceceaa2f706c5eea8eca58ad8fe1aac1d7edb16d9d4ef2e0ef8ed5237b9c3839101610907565b6000828152600360205260409020546001600160a01b03848116911614610a0e5760405162461bcd60e51b81526004016105f490610fb0565b60008281526002602090815260409182902060050183905581518481529081018390527f6ef3bcfe7975df410c416dd608ae52ef55dc72f285111bc824da7962531f2df19101610907565b600084828585600054604051602001610a76959493929190610ff3565b604051602081830303815290604052805190602001209050949350505050565b828054610aa290610e75565b90600052602060002090601f016020900481019282610ac45760008555610b0a565b82601f10610add57805160ff1916838001178555610b0a565b82800160010185558215610b0a579182015b82811115610b0a578251825591602001919060010190610aef565b50610b16929150610b1a565b5090565b5b80821115610b165760008155600101610b1b565b600060208284031215610b4157600080fd5b5035919050565b60005b83811015610b63578181015183820152602001610b4b565b83811115610b72576000848401525b50505050565b60008151808452610b90816020860160208601610b48565b601f01601f19169290920160200192915050565b60c081526000610bb760c0830189610b78565b6001600160a01b03888116602085015287166040840152606083018690528281036080840152610be78186610b78565b9150508260a0830152979650505050505050565b602081526000610c0e6020830184610b78565b9392505050565b634e487b7160e01b600052604160045260246000fd5b600082601f830112610c3c57600080fd5b813567ffffffffffffffff80821115610c5757610c57610c15565b604051601f8301601f19908116603f01168101908282118183101715610c7f57610c7f610c15565b81604052838152866020858801011115610c9857600080fd5b836020870160208301376000602085830101528094505050505092915050565b600060208284031215610cca57600080fd5b813567ffffffffffffffff811115610ce157600080fd5b610ced84828501610c2b565b949350505050565b80356001600160a01b0381168114610d0c57600080fd5b919050565b60008060408385031215610d2457600080fd5b82359150610d3460208401610cf5565b90509250929050565b80358015158114610d0c57600080fd5b600080600080600060a08688031215610d6557600080fd5b853567ffffffffffffffff80821115610d7d57600080fd5b610d8989838a01610c2b565b96506020880135915080821115610d9f57600080fd5b50610dac88828901610c2b565b94505060408601359250610dc260608701610cf5565b9150610dd060808701610d3d565b90509295509295909350565b60008060408385031215610def57600080fd5b610df883610cf5565b946020939093013593505050565b600080600060608486031215610e1b57600080fd5b610e2484610cf5565b925060208401359150610e3960408501610d3d565b90509250925092565b600080600060608486031215610e5757600080fd5b610e6084610cf5565b95602085013595506040909401359392505050565b600181811c90821680610e8957607f821691505b60208210811415610eaa57634e487b7160e01b600052602260045260246000fd5b50919050565b600080835481600182811c915080831680610ecc57607f831692505b6020808410821415610eec57634e487b7160e01b86526022600452602486fd5b818015610f005760018114610f1157610f3e565b60ff19861689528489019650610f3e565b60008a81526020902060005b86811015610f365781548b820152908501908301610f1d565b505084890196505b509498975050505050505050565b60008251610f5e818460208701610b48565b9190910192915050565b634e487b7160e01b600052601160045260246000fd5b6000600019821415610f9257610f92610f68565b5060010190565b600082821015610fab57610fab610f68565b500390565b60208082526023908201527f53656e64657220646f65736e2774206f776e2074686520636f6c6c65637469626040820152626c652160e81b606082015260800190565b60008651611005818460208b01610b48565b606087901b6bffffffffffffffffffffffff19169083019081528551611032816014840160208a01610b48565b01601481019490945250506034820152605401939250505056fea26469706673582212203196b248058184a75e1813fcf061d7287e49eacb4ea66a9582bb6cf7d0fcc1b064736f6c634300080c0033",
  "immutableReferences": {},
  "source": "// SPDX-License-Identifier: MIT\r\n\r\n// I implemented a token for this project that allows users\r\n// trade, stake and transfer operations.\r\n// I also injected CollectibleToken contract and wrote some wrapped\r\n// functions to use NFT functionalities with this contract\r\n\r\npragma solidity ^0.8.0;\r\n\r\nimport \"./IBerkToken.sol\";\r\nimport \"./CollectibleToken.sol\";\r\n\r\ncontract BerkToken is IBerkToken {\r\n    mapping(address => uint256) public balances;\r\n    mapping(address => uint256) public accountStakeDates;\r\n    mapping(address => uint256) public accountStakeAmounts;\r\n    mapping(address => uint256) public latestStakeRewards;\r\n\r\n    // Stake reward rate\r\n    uint256 private constant interest = 2;\r\n    uint256 private constant minimumTokenValue = 10000000000000;\r\n    uint256 private constant maxSupply = 10000000000;\r\n\r\n    CollectibleToken private collectibleToken;\r\n    uint256 public collectibleFee;\r\n\r\n    constructor() {\r\n        collectibleToken = new CollectibleToken();\r\n        collectibleFee = collectibleToken.getTransactionFee();\r\n    }\r\n\r\n    /*\r\n     * Transaction is processed within contract:\r\n     * From: 0x23bc92ca3d8dd080dd65914e40bad5a5bec93769 : owner\r\n     * to:  0xd2d656253b91c5915cafdcd8b3a5249950739e10 : receiver\r\n     */\r\n\r\n    function send(address receiver, uint256 amount) public {\r\n        require(\r\n            balances[msg.sender] >= amount,\r\n            \"You don't have enough funds to send!\"\r\n        );\r\n\r\n        balances[msg.sender] -= amount;\r\n        balances[receiver] += amount;\r\n\r\n        emit Sent(msg.sender, receiver, amount);\r\n    }\r\n\r\n    // duration -> seconds\r\n    function stake(uint256 duration, uint256 amountToBeStaked) public {\r\n        require(\r\n            balances[msg.sender] >= amountToBeStaked,\r\n            \"You have insufficient funds to stake!\"\r\n        );\r\n\r\n        require(\r\n            accountStakeDates[msg.sender] == 0,\r\n            \"This account has already established a stake process!\"\r\n        );\r\n\r\n        require(duration > 0, \"Duration should be a positive value!\");\r\n\r\n        // Stake amounts of accounts:\r\n        accountStakeAmounts[msg.sender] = amountToBeStaked;\r\n\r\n        // Take out the staked amount from the user balance.\r\n        balances[msg.sender] -= amountToBeStaked;\r\n\r\n        // Timestamp for stake duration.\r\n        accountStakeDates[msg.sender] = block.timestamp + duration;\r\n\r\n        // Stake reward\r\n        latestStakeRewards[msg.sender] = calculateStakeReward(\r\n            amountToBeStaked,\r\n            duration\r\n        );\r\n\r\n        accountStakeAmounts[msg.sender] += latestStakeRewards[msg.sender];\r\n\r\n        emit Stake(msg.sender, amountToBeStaked, duration);\r\n    }\r\n\r\n    function calculateStakeReward(uint256 amountToBeStaked, uint256 duration)\r\n        private\r\n        pure\r\n        returns (uint256)\r\n    {\r\n        uint256 stakeRate = interest;\r\n        stakeRate = stakeRate * duration;\r\n\r\n        // More than 100 ETH:\r\n        if (amountToBeStaked > 100) {\r\n            stakeRate = stakeRate * 2;\r\n        }\r\n        return stakeRate / 10000;\r\n    }\r\n\r\n    function deposit(uint256 amount) public payable {\r\n        require(msg.value > 1, \"Deposit amount must be more than 1 wei!\");\r\n\r\n        uint256 tokenPrice = getTokenPrice();\r\n\r\n        require(\r\n            msg.value >= amount * tokenPrice,\r\n            \"Deposit amount worth must be at least 1 berkcoin!\"\r\n        );\r\n\r\n        // Here we get token amount based on the deposited ETH amount:\r\n        // If user deposit 1 ETH and current token price is 0.2 ETH, then\r\n        // user will have 5 tokens in his account address.\r\n\r\n        // uint256 depositedAmount = msg.value;\r\n        // balances[msg.sender] += depositedAmount / tokenPrice;\r\n        balances[msg.sender] += amount;\r\n        emit Deposit(msg.sender, msg.value);\r\n    }\r\n\r\n    function withdraw(uint256 amount) public {\r\n        require(\r\n            balances[msg.sender] >= amount,\r\n            \"You don't have enough funds in your bank account!\"\r\n        );\r\n\r\n        uint256 tokenPrice = getTokenPrice();\r\n\r\n        payable(msg.sender).transfer(amount * tokenPrice);\r\n        balances[msg.sender] -= amount;\r\n\r\n        emit Withdraw(msg.sender, amount);\r\n    }\r\n\r\n    function checkStakeStatus(address publicAddress, uint256 currentTimeStamp)\r\n        public\r\n    {\r\n        uint256 stakeTimeStamp = accountStakeDates[publicAddress];\r\n        require(\r\n            stakeTimeStamp <= currentTimeStamp,\r\n            \"Stake duration has not been ended yet!\"\r\n        );\r\n\r\n        handleCompletedStake(publicAddress);\r\n        emit StakeCompleted(publicAddress);\r\n    }\r\n\r\n    // If account's stake duration is over, then we set stake parameters as 0\r\n    // after adding up the staked amount to the current balance.\r\n\r\n    function handleCompletedStake(address publicAddress) private {\r\n        balances[publicAddress] += accountStakeAmounts[publicAddress];\r\n        accountStakeDates[publicAddress] = 0;\r\n        accountStakeAmounts[publicAddress] = 0;\r\n        latestStakeRewards[publicAddress] = 0;\r\n    }\r\n\r\n    function burnTokens(uint256 amountToBeBurned) public {\r\n        require(\r\n            balances[msg.sender] >= amountToBeBurned,\r\n            \"You have insufficient funds to burn!\"\r\n        );\r\n        balances[msg.sender] -= amountToBeBurned;\r\n    }\r\n\r\n    function getBalance(address publicAddress) public view returns (uint256) {\r\n        return balances[publicAddress];\r\n    }\r\n\r\n    function getStakeAmount(address publicAddress)\r\n        public\r\n        view\r\n        returns (uint256)\r\n    {\r\n        return accountStakeAmounts[publicAddress];\r\n    }\r\n\r\n    function getCurrentStakeReward(address publicAddress)\r\n        public\r\n        view\r\n        returns (uint256)\r\n    {\r\n        return latestStakeRewards[publicAddress];\r\n    }\r\n\r\n    function getStakeCompletionDate(address publicAddress)\r\n        public\r\n        view\r\n        returns (uint256)\r\n    {\r\n        return accountStakeDates[publicAddress];\r\n    }\r\n\r\n    function getInterest() public pure returns (uint256) {\r\n        return interest;\r\n    }\r\n\r\n    function getTokenPrice() public view returns (uint256) {\r\n        uint256 contractBalance = getContractBalance();\r\n        uint256 tokenPrice = contractBalance / maxSupply;\r\n\r\n        // If it is the first transaction on this smart contract,\r\n        // token price will be 0. To prevent multiply error, we\r\n        // assing token price with the lowest possible value 1.\r\n\r\n        // @var tokenPrice: minimum value of token\r\n        if (tokenPrice < minimumTokenValue) {\r\n            tokenPrice = minimumTokenValue;\r\n        }\r\n        return tokenPrice;\r\n    }\r\n\r\n    function getContractBalance() public view returns (uint256) {\r\n        return address(this).balance;\r\n    }\r\n\r\n    // NFT Handlers:\r\n\r\n    function registerNewCollectible(\r\n        string memory tokenUri,\r\n        string memory description,\r\n        uint256 price,\r\n        bool isAvailableToTrade\r\n    ) public {\r\n        collectibleToken.createNewCollectible(\r\n            tokenUri,\r\n            description,\r\n            price,\r\n            msg.sender,\r\n            isAvailableToTrade\r\n        );\r\n        require(\r\n            balances[msg.sender] >= price / collectibleFee,\r\n            \"Sender doesn't have enough funds to pay registration fee!\"\r\n        );\r\n        balances[msg.sender] -= price / collectibleFee;\r\n    }\r\n\r\n    function burnCollectible(uint256 tokenID) public {\r\n        collectibleToken.burnCollectible(tokenID, msg.sender);\r\n    }\r\n\r\n    function setPriceOfCollectible(uint256 tokenID, uint256 price) public {\r\n        uint256 oldPrice = collectibleToken.getPriceOfCollectible(tokenID);\r\n        require(\r\n            balances[msg.sender] >= (price - oldPrice) / collectibleFee,\r\n            \"Sender doesn't have enough funds to pay registration fee!\"\r\n        );\r\n        balances[msg.sender] -= (price - oldPrice) / collectibleFee;\r\n        collectibleToken.setPriceOfCollectible(msg.sender, tokenID, price);\r\n    }\r\n\r\n    function setAvailabilityOfCollectible(uint256 tokenID, bool availability)\r\n        public\r\n    {\r\n        collectibleToken.setAvailabilityOfCollectible(\r\n            msg.sender,\r\n            tokenID,\r\n            availability\r\n        );\r\n    }\r\n\r\n    function buyCollectible(uint256 tokenID) public {\r\n        uint256 price = collectibleToken.getPriceOfCollectible(tokenID);\r\n        require(\r\n            getAvailabilityOfToken(tokenID) == true,\r\n            \"Token is not available for trade!\"\r\n        );\r\n        require(\r\n            price + price / collectibleFee <= balances[msg.sender],\r\n            \"Sender doesn't have enough funds!\"\r\n        );\r\n\r\n        address collectibleOwner = collectibleToken.getTokenOwner(tokenID);\r\n        balances[collectibleOwner] += price;\r\n        balances[msg.sender] -= price + price / collectibleFee;\r\n        collectibleToken.transferCollectible(msg.sender, tokenID);\r\n    }\r\n\r\n    // NFT view functions:\r\n\r\n    function getTokenURI(uint256 tokenID) public view returns (string memory) {\r\n        return collectibleToken.getTokenURI(tokenID);\r\n    }\r\n\r\n    function getTokenCreator(uint256 tokenID) public view returns (address) {\r\n        return collectibleToken.getTokenCreator(tokenID);\r\n    }\r\n\r\n    function getTokenOwner(uint256 tokenID) public view returns (address) {\r\n        return collectibleToken.getTokenOwner(tokenID);\r\n    }\r\n\r\n    function getTokenDescription(uint256 tokenID)\r\n        public\r\n        view\r\n        returns (string memory)\r\n    {\r\n        return collectibleToken.getTokenDescription(tokenID);\r\n    }\r\n\r\n    function getTokenHash(uint256 tokenID) public view returns (bytes32) {\r\n        return collectibleToken.getTokenHash(tokenID);\r\n    }\r\n\r\n    function getPriceOfCollectible(uint256 tokenID)\r\n        public\r\n        view\r\n        returns (uint256)\r\n    {\r\n        return collectibleToken.getPriceOfCollectible(tokenID);\r\n    }\r\n\r\n    function getAvailabilityOfToken(uint256 tokenID)\r\n        public\r\n        view\r\n        returns (bool)\r\n    {\r\n        return collectibleToken.getAvailabilityOfToken(tokenID);\r\n    }\r\n\r\n    function getCollectibleFee() public view returns (uint256) {\r\n        return collectibleFee;\r\n    }\r\n\r\n    function getTokenCount() public view returns (uint256) {\r\n        return collectibleToken.getTokenCount();\r\n    }\r\n\r\n    event Sent(address from, address to, uint256 amount);\r\n\r\n    event Deposit(address from, uint256 amount);\r\n\r\n    event Withdraw(address from, uint256 amount);\r\n\r\n    event Stake(address from, uint256 amount, uint256 duration);\r\n\r\n    event StakeCompleted(address from);\r\n\r\n    event StakeIsActive(address from, uint256 duration);\r\n}\r\n",
  "sourcePath": "C:\\Users\\Berk\\Desktop\\GitHub Project Repositories\\berkcoin\\dapp\\contracts\\BerkToken.sol",
  "compiler": {
    "name": "solc",
    "version": "0.8.12+commit.f00d7308.Emscripten.clang"
  },
  "schemaVersion": "3.4.4",
  "updatedAt": "2022-02-18T16:04:56.307Z",
  "networkType": "ethereum",
  "devdoc": {
    "kind": "dev",
    "methods": {},
    "version": 1
  },
  "userdoc": {
    "kind": "user",
    "methods": {},
    "version": 1
  }
}