{
  "contractName": "BerkToken",
  "abi": [
    {
      "anonymous": false,
      "inputs": [
        {
          "indexed": false,
          "internalType": "address",
          "name": "from",
          "type": "address"
        },
        {
          "indexed": false,
          "internalType": "uint256",
          "name": "amount",
          "type": "uint256"
        }
      ],
      "name": "Deposit",
      "type": "event"
    },
    {
      "anonymous": false,
      "inputs": [
        {
          "indexed": false,
          "internalType": "address",
          "name": "from",
          "type": "address"
        },
        {
          "indexed": false,
          "internalType": "address",
          "name": "to",
          "type": "address"
        },
        {
          "indexed": false,
          "internalType": "uint256",
          "name": "amount",
          "type": "uint256"
        }
      ],
      "name": "Sent",
      "type": "event"
    },
    {
      "anonymous": false,
      "inputs": [
        {
          "indexed": false,
          "internalType": "address",
          "name": "from",
          "type": "address"
        },
        {
          "indexed": false,
          "internalType": "uint256",
          "name": "amount",
          "type": "uint256"
        },
        {
          "indexed": false,
          "internalType": "uint256",
          "name": "duration",
          "type": "uint256"
        }
      ],
      "name": "Stake",
      "type": "event"
    },
    {
      "anonymous": false,
      "inputs": [
        {
          "indexed": false,
          "internalType": "address",
          "name": "from",
          "type": "address"
        }
      ],
      "name": "StakeCompleted",
      "type": "event"
    },
    {
      "anonymous": false,
      "inputs": [
        {
          "indexed": false,
          "internalType": "address",
          "name": "from",
          "type": "address"
        },
        {
          "indexed": false,
          "internalType": "uint256",
          "name": "duration",
          "type": "uint256"
        }
      ],
      "name": "StakeIsActive",
      "type": "event"
    },
    {
      "anonymous": false,
      "inputs": [
        {
          "indexed": false,
          "internalType": "address",
          "name": "from",
          "type": "address"
        },
        {
          "indexed": false,
          "internalType": "uint256",
          "name": "amount",
          "type": "uint256"
        }
      ],
      "name": "Withdraw",
      "type": "event"
    },
    {
      "inputs": [
        {
          "internalType": "address",
          "name": "",
          "type": "address"
        }
      ],
      "name": "accountStakeAmounts",
      "outputs": [
        {
          "internalType": "uint256",
          "name": "",
          "type": "uint256"
        }
      ],
      "stateMutability": "view",
      "type": "function",
      "constant": true
    },
    {
      "inputs": [
        {
          "internalType": "address",
          "name": "",
          "type": "address"
        }
      ],
      "name": "accountStakeDates",
      "outputs": [
        {
          "internalType": "uint256",
          "name": "",
          "type": "uint256"
        }
      ],
      "stateMutability": "view",
      "type": "function",
      "constant": true
    },
    {
      "inputs": [
        {
          "internalType": "address",
          "name": "",
          "type": "address"
        }
      ],
      "name": "balances",
      "outputs": [
        {
          "internalType": "uint256",
          "name": "",
          "type": "uint256"
        }
      ],
      "stateMutability": "view",
      "type": "function",
      "constant": true
    },
    {
      "inputs": [
        {
          "internalType": "address",
          "name": "",
          "type": "address"
        }
      ],
      "name": "latestStakeRewards",
      "outputs": [
        {
          "internalType": "uint256",
          "name": "",
          "type": "uint256"
        }
      ],
      "stateMutability": "view",
      "type": "function",
      "constant": true
    },
    {
      "inputs": [
        {
          "internalType": "address",
          "name": "receiver",
          "type": "address"
        },
        {
          "internalType": "uint256",
          "name": "amount",
          "type": "uint256"
        }
      ],
      "name": "send",
      "outputs": [],
      "stateMutability": "nonpayable",
      "type": "function"
    },
    {
      "inputs": [
        {
          "internalType": "uint256",
          "name": "duration",
          "type": "uint256"
        },
        {
          "internalType": "uint256",
          "name": "amountToBeStaked",
          "type": "uint256"
        }
      ],
      "name": "stake",
      "outputs": [],
      "stateMutability": "nonpayable",
      "type": "function"
    },
    {
      "inputs": [
        {
          "internalType": "uint256",
          "name": "amount",
          "type": "uint256"
        }
      ],
      "name": "deposit",
      "outputs": [],
      "stateMutability": "payable",
      "type": "function",
      "payable": true
    },
    {
      "inputs": [
        {
          "internalType": "uint256",
          "name": "amount",
          "type": "uint256"
        }
      ],
      "name": "withdraw",
      "outputs": [],
      "stateMutability": "nonpayable",
      "type": "function"
    },
    {
      "inputs": [
        {
          "internalType": "address",
          "name": "publicAddress",
          "type": "address"
        },
        {
          "internalType": "uint256",
          "name": "currentTimeStamp",
          "type": "uint256"
        }
      ],
      "name": "checkStakeStatus",
      "outputs": [],
      "stateMutability": "nonpayable",
      "type": "function"
    },
    {
      "inputs": [
        {
          "internalType": "address",
          "name": "publicAddress",
          "type": "address"
        }
      ],
      "name": "getBalance",
      "outputs": [
        {
          "internalType": "uint256",
          "name": "",
          "type": "uint256"
        }
      ],
      "stateMutability": "view",
      "type": "function",
      "constant": true
    },
    {
      "inputs": [
        {
          "internalType": "address",
          "name": "publicAddress",
          "type": "address"
        }
      ],
      "name": "getStakeAmount",
      "outputs": [
        {
          "internalType": "uint256",
          "name": "",
          "type": "uint256"
        }
      ],
      "stateMutability": "view",
      "type": "function",
      "constant": true
    },
    {
      "inputs": [
        {
          "internalType": "address",
          "name": "publicAddress",
          "type": "address"
        }
      ],
      "name": "getCurrentStakeReward",
      "outputs": [
        {
          "internalType": "uint256",
          "name": "",
          "type": "uint256"
        }
      ],
      "stateMutability": "view",
      "type": "function",
      "constant": true
    },
    {
      "inputs": [
        {
          "internalType": "address",
          "name": "publicAddress",
          "type": "address"
        }
      ],
      "name": "getStakeCompletionDate",
      "outputs": [
        {
          "internalType": "uint256",
          "name": "",
          "type": "uint256"
        }
      ],
      "stateMutability": "view",
      "type": "function",
      "constant": true
    },
    {
      "inputs": [],
      "name": "getInterest",
      "outputs": [
        {
          "internalType": "uint256",
          "name": "",
          "type": "uint256"
        }
      ],
      "stateMutability": "pure",
      "type": "function",
      "constant": true
    },
    {
      "inputs": [],
      "name": "getTokenPrice",
      "outputs": [
        {
          "internalType": "uint256",
          "name": "",
          "type": "uint256"
        }
      ],
      "stateMutability": "view",
      "type": "function",
      "constant": true
    },
    {
      "inputs": [],
      "name": "getContractBalance",
      "outputs": [
        {
          "internalType": "uint256",
          "name": "",
          "type": "uint256"
        }
      ],
      "stateMutability": "view",
      "type": "function",
      "constant": true
    }
  ],
  "bytecode": "0x608060405234801561001057600080fd5b50610bb3806100206000396000f3fe6080604052600436106100f35760003560e01c80637b0472f01161008a578063d0679d3411610059578063d0679d34146102d0578063df5a4b64146102f0578063e5a4bed31461031d578063f8b2cb4f1461033157600080fd5b80637b0472f0146102475780637dd9ebca1461026757806380b891a41461029d578063b6b55f25146102bd57600080fd5b80632e6b640c116100c65780632e6b640c146101bc5780634b94f50e146101e95780636f9fb98a146101fe5780637a1ea1051461021157600080fd5b80630c2eb403146100f8578063196ebdfd1461014057806327e235e31461016d5780632e1a7d4d1461019a575b600080fd5b34801561010457600080fd5b5061012e610113366004610a70565b6001600160a01b031660009081526002602052604090205490565b60405190815260200160405180910390f35b34801561014c57600080fd5b5061012e61015b366004610a70565b60036020526000908152604090205481565b34801561017957600080fd5b5061012e610188366004610a70565b60006020819052908152604090205481565b3480156101a657600080fd5b506101ba6101b5366004610a92565b610367565b005b3480156101c857600080fd5b5061012e6101d7366004610a70565b60016020526000908152604090205481565b3480156101f557600080fd5b5061012e61048a565b34801561020a57600080fd5b504761012e565b34801561021d57600080fd5b5061012e61022c366004610a70565b6001600160a01b031660009081526001602052604090205490565b34801561025357600080fd5b506101ba610262366004610aab565b6104ac565b34801561027357600080fd5b5061012e610282366004610a70565b6001600160a01b031660009081526003602052604090205490565b3480156102a957600080fd5b506101ba6102b8366004610acd565b6106b4565b6101ba6102cb366004610a92565b610776565b3480156102dc57600080fd5b506101ba6102eb366004610acd565b6108ae565b3480156102fc57600080fd5b5061012e61030b366004610a70565b60026020526000908152604090205481565b34801561032957600080fd5b50600561012e565b34801561033d57600080fd5b5061012e61034c366004610a70565b6001600160a01b031660009081526020819052604090205490565b336000908152602081905260409020548111156103e55760405162461bcd60e51b815260206004820152603160248201527f596f7520646f6e2774206861766520656e6f7567682066756e647320696e20796044820152706f75722062616e6b206163636f756e742160781b60648201526084015b60405180910390fd5b60006103ef61048a565b9050336108fc6103ff8385610b0d565b6040518115909202916000818181858888f19350505050158015610427573d6000803e3d6000fd5b503360009081526020819052604081208054849290610447908490610b2c565b909155505060408051338152602081018490527f884edad9ce6fa2440d8a54cc123490eb96d2768479d49ff9c7366125a942436491015b60405180910390a15050565b6000478161049b6298968083610b43565b9050806104a6575060015b92915050565b336000908152602081905260409020548111156105195760405162461bcd60e51b815260206004820152602560248201527f596f75206861766520696e73756666696369656e742066756e647320746f207360448201526474616b652160d81b60648201526084016103dc565b33600090815260016020526040902054156105945760405162461bcd60e51b815260206004820152603560248201527f54686973206163636f756e742068617320616c72656164792065737461626c69604482015274736865642061207374616b652070726f636573732160581b60648201526084016103dc565b600082116105f05760405162461bcd60e51b8152602060048201526024808201527f4475726174696f6e2073686f756c64206265206120706f7369746976652076616044820152636c75652160e01b60648201526084016103dc565b336000908152600260209081526040808320849055908290528120805483929061061b908490610b2c565b9091555061062b90508242610b65565b3360009081526001602052604090205561064581836109b0565b336000908152600360209081526040808320849055600290915281208054909190610671908490610b65565b909155505060408051338152602081018390529081018390527f5af417134f72a9d41143ace85b0a26dce6f550f894f2cbc1eeee8810603d91b69060600161047e565b6001600160a01b0382166000908152600160205260409020548181111561072c5760405162461bcd60e51b815260206004820152602660248201527f5374616b65206475726174696f6e20686173206e6f74206265656e20656e646560448201526564207965742160d01b60648201526084016103dc565b610735836109eb565b6040516001600160a01b03841681527fa413e42c61420bd7d37579e855fd30e0233a6fcce5217b742816c4a389b9b7d29060200160405180910390a1505050565b600134116107d65760405162461bcd60e51b815260206004820152602760248201527f4465706f73697420616d6f756e74206d757374206265206d6f7265207468616e6044820152662031207765692160c81b60648201526084016103dc565b60006107e061048a565b90506107ec8183610b0d565b3410156108555760405162461bcd60e51b815260206004820152603160248201527f4465706f73697420616d6f756e7420776f727468206d757374206265206174206044820152706c656173742031206265726b636f696e2160781b60648201526084016103dc565b3360009081526020819052604081208054849290610874908490610b65565b9091555050604080513381523460208201527fe1fffcc4923d04b559f4d29a8bfc6cda04eb5b0d3c460751c2402c5c5cc9109c910161047e565b336000908152602081905260409020548111156109195760405162461bcd60e51b8152602060048201526024808201527f596f7520646f6e2774206861766520656e6f7567682066756e647320746f2073604482015263656e642160e01b60648201526084016103dc565b3360009081526020819052604081208054839290610938908490610b2c565b90915550506001600160a01b03821660009081526020819052604081208054839290610965908490610b65565b9091555050604080513381526001600160a01b03841660208201529081018290527f3990db2d31862302a685e8086b5755072a6e2b5b780af1ee81ece35ee3cd33459060600161047e565b600060056109be8382610b0d565b905060648411156109d7576109d4816002610b0d565b90505b6109e361271082610b43565b949350505050565b6001600160a01b038116600090815260026020908152604080832054918390528220805491929091610a1e908490610b65565b90915550506001600160a01b03166000908152600160209081526040808320839055600282528083208390556003909152812055565b80356001600160a01b0381168114610a6b57600080fd5b919050565b600060208284031215610a8257600080fd5b610a8b82610a54565b9392505050565b600060208284031215610aa457600080fd5b5035919050565b60008060408385031215610abe57600080fd5b50508035926020909101359150565b60008060408385031215610ae057600080fd5b610ae983610a54565b946020939093013593505050565b634e487b7160e01b600052601160045260246000fd5b6000816000190483118215151615610b2757610b27610af7565b500290565b600082821015610b3e57610b3e610af7565b500390565b600082610b6057634e487b7160e01b600052601260045260246000fd5b500490565b60008219821115610b7857610b78610af7565b50019056fea2646970667358221220dcb762b875c36e678bc2ac226af2ece080af610398fe36dd75f7dda6be687fee64736f6c634300080b0033",
  "immutableReferences": {},
  "source": "// SPDX-License-Identifier: MIT\r\n\r\n// For this project, I can merge my previous two smart contracts into one contract\r\n// or i can use the same layout ( Stakers can provide services in a different node.)\r\n// So, users can buy (swap) tokens with ETH and stake them via a staker.\r\n\r\n// ETH stake provider contract; peers can stake their funds to gain rewards.\r\n\r\npragma solidity ^0.8.0;\r\n\r\nimport \"./IToken.sol\";\r\n\r\ncontract BerkToken is IToken {\r\n    mapping(address => uint256) public balances;\r\n    mapping(address => uint256) public accountStakeDates;\r\n    mapping(address => uint256) public accountStakeAmounts;\r\n    mapping(address => uint256) public latestStakeRewards;\r\n\r\n    // Stake reward rate\r\n    uint256 private constant interest = 5;\r\n\r\n    uint256 private constant maxSupply = 10000000;\r\n\r\n    /*\r\n     * Transaction is processed within contract:\r\n     * From: 0x23bc92ca3d8dd080dd65914e40bad5a5bec93769 : owner\r\n     * to:  0xd2d656253b91c5915cafdcd8b3a5249950739e10 : receiver\r\n     */\r\n\r\n    function send(address receiver, uint256 amount) public {\r\n        require(\r\n            balances[msg.sender] >= amount,\r\n            \"You don't have enough funds to send!\"\r\n        );\r\n\r\n        balances[msg.sender] -= amount;\r\n        balances[receiver] += amount;\r\n\r\n        emit Sent(msg.sender, receiver, amount);\r\n    }\r\n\r\n    // duration -> seconds\r\n    function stake(uint256 duration, uint256 amountToBeStaked) public {\r\n        require(\r\n            balances[msg.sender] >= amountToBeStaked,\r\n            \"You have insufficient funds to stake!\"\r\n        );\r\n\r\n        require(\r\n            accountStakeDates[msg.sender] == 0,\r\n            \"This account has already established a stake process!\"\r\n        );\r\n\r\n        require(duration > 0, \"Duration should be a positive value!\");\r\n\r\n        // Stake amounts of accounts:\r\n        accountStakeAmounts[msg.sender] = amountToBeStaked;\r\n\r\n        // Take out the staked amount from the user balance.\r\n        balances[msg.sender] -= amountToBeStaked;\r\n\r\n        // Timestamp for stake duration.\r\n        accountStakeDates[msg.sender] = block.timestamp + duration;\r\n\r\n        // Stake reward\r\n        latestStakeRewards[msg.sender] = calculateStakeReward(\r\n            amountToBeStaked,\r\n            duration\r\n        );\r\n\r\n        accountStakeAmounts[msg.sender] += latestStakeRewards[msg.sender];\r\n\r\n        emit Stake(msg.sender, amountToBeStaked, duration);\r\n    }\r\n\r\n    function calculateStakeReward(uint256 amountToBeStaked, uint256 duration)\r\n        private\r\n        pure\r\n        returns (uint256)\r\n    {\r\n        uint256 stakeRate = interest;\r\n\r\n        stakeRate = stakeRate * duration;\r\n\r\n        // More than 100 ETH:\r\n        if (amountToBeStaked > 100) {\r\n            stakeRate = stakeRate * 2;\r\n        }\r\n        return stakeRate / 10000;\r\n    }\r\n\r\n    function deposit(uint256 amount) public payable {\r\n        require(msg.value > 1, \"Deposit amount must be more than 1 wei!\");\r\n\r\n        uint256 tokenPrice = getTokenPrice();\r\n\r\n        require(\r\n            msg.value >= amount * tokenPrice,\r\n            \"Deposit amount worth must be at least 1 berkcoin!\"\r\n        );\r\n\r\n        // Here we get token amount based on the deposited ETH amount:\r\n        // If user deposit 1 ETH and current token price is 0.2 ETH, then\r\n        // user will have 5 tokens in his account address.\r\n\r\n        // uint256 depositedAmount = msg.value;\r\n        // balances[msg.sender] += depositedAmount / tokenPrice;\r\n        balances[msg.sender] += amount;\r\n        emit Deposit(msg.sender, msg.value);\r\n    }\r\n\r\n    function withdraw(uint256 amount) public {\r\n        require(\r\n            balances[msg.sender] >= amount,\r\n            \"You don't have enough funds in your bank account!\"\r\n        );\r\n\r\n        uint256 tokenPrice = getTokenPrice();\r\n\r\n        payable(msg.sender).transfer(amount * tokenPrice);\r\n        balances[msg.sender] -= amount;\r\n\r\n        emit Withdraw(msg.sender, amount);\r\n    }\r\n\r\n    function checkStakeStatus(address publicAddress, uint256 currentTimeStamp)\r\n        public\r\n    {\r\n        uint256 stakeTimeStamp = accountStakeDates[publicAddress];\r\n        require(\r\n            stakeTimeStamp <= currentTimeStamp,\r\n            \"Stake duration has not been ended yet!\"\r\n        );\r\n\r\n        handleCompletedStake(publicAddress);\r\n        emit StakeCompleted(publicAddress);\r\n    }\r\n\r\n    // If account's stake duration is over, then we set stake parameters as 0\r\n    // after adding up the staked amount to the current balance.\r\n\r\n    function handleCompletedStake(address publicAddress) private {\r\n        balances[publicAddress] += accountStakeAmounts[publicAddress];\r\n        accountStakeDates[publicAddress] = 0;\r\n        accountStakeAmounts[publicAddress] = 0;\r\n        latestStakeRewards[publicAddress] = 0;\r\n    }\r\n\r\n    function getBalance(address publicAddress) public view returns (uint256) {\r\n        return balances[publicAddress];\r\n    }\r\n\r\n    function getStakeAmount(address publicAddress)\r\n        public\r\n        view\r\n        returns (uint256)\r\n    {\r\n        return accountStakeAmounts[publicAddress];\r\n    }\r\n\r\n    function getCurrentStakeReward(address publicAddress)\r\n        public\r\n        view\r\n        returns (uint256)\r\n    {\r\n        return latestStakeRewards[publicAddress];\r\n    }\r\n\r\n    function getStakeCompletionDate(address publicAddress)\r\n        public\r\n        view\r\n        returns (uint256)\r\n    {\r\n        return accountStakeDates[publicAddress];\r\n    }\r\n\r\n    function getInterest() public pure returns (uint256) {\r\n        return interest;\r\n    }\r\n\r\n    function getTokenPrice() public view returns (uint256) {\r\n        uint256 contractBalance = getContractBalance();\r\n        uint256 tokenPrice = contractBalance / maxSupply;\r\n\r\n        // If it is the first transaction on this smart contract,\r\n        // token price will be 0. To prevent multiply error, we\r\n        // assing token price with the lowest possible value 1.\r\n\r\n        if (tokenPrice == 0) {\r\n            tokenPrice = 1;\r\n        }\r\n        return tokenPrice;\r\n    }\r\n\r\n    function getContractBalance() public view returns (uint256) {\r\n        return address(this).balance;\r\n    }\r\n\r\n    event Sent(address from, address to, uint256 amount);\r\n\r\n    event Deposit(address from, uint256 amount);\r\n\r\n    event Withdraw(address from, uint256 amount);\r\n\r\n    event Stake(address from, uint256 amount, uint256 duration);\r\n\r\n    event StakeCompleted(address from);\r\n\r\n    event StakeIsActive(address from, uint256 duration);\r\n}\r\n",
  "sourcePath": "C:\\Users\\Berk\\Desktop\\GitHub Project Repositories\\berkcoin\\dapp\\contracts\\BerkToken.sol",
  "compiler": {
    "name": "solc",
    "version": "0.8.11+commit.d7f03943.Emscripten.clang"
  },
  "schemaVersion": "3.4.4",
  "updatedAt": "2022-02-13T17:42:30.957Z",
  "networkType": "ethereum",
  "devdoc": {
    "kind": "dev",
    "methods": {},
    "version": 1
  },
  "userdoc": {
    "kind": "user",
    "methods": {},
    "version": 1
  }
}