{
  "contractName": "BerkToken",
  "abi": [
    {
      "inputs": [],
      "stateMutability": "nonpayable",
      "type": "constructor"
    },
    {
      "anonymous": false,
      "inputs": [
        {
          "indexed": false,
          "internalType": "address",
          "name": "from",
          "type": "address"
        },
        {
          "indexed": false,
          "internalType": "uint256",
          "name": "amount",
          "type": "uint256"
        }
      ],
      "name": "Deposit",
      "type": "event"
    },
    {
      "anonymous": false,
      "inputs": [
        {
          "indexed": false,
          "internalType": "address",
          "name": "from",
          "type": "address"
        },
        {
          "indexed": false,
          "internalType": "address",
          "name": "to",
          "type": "address"
        },
        {
          "indexed": false,
          "internalType": "uint256",
          "name": "amount",
          "type": "uint256"
        }
      ],
      "name": "Sent",
      "type": "event"
    },
    {
      "anonymous": false,
      "inputs": [
        {
          "indexed": false,
          "internalType": "address",
          "name": "from",
          "type": "address"
        },
        {
          "indexed": false,
          "internalType": "uint256",
          "name": "amount",
          "type": "uint256"
        },
        {
          "indexed": false,
          "internalType": "uint256",
          "name": "duration",
          "type": "uint256"
        }
      ],
      "name": "Stake",
      "type": "event"
    },
    {
      "anonymous": false,
      "inputs": [
        {
          "indexed": false,
          "internalType": "address",
          "name": "from",
          "type": "address"
        }
      ],
      "name": "StakeCompleted",
      "type": "event"
    },
    {
      "anonymous": false,
      "inputs": [
        {
          "indexed": false,
          "internalType": "address",
          "name": "from",
          "type": "address"
        },
        {
          "indexed": false,
          "internalType": "uint256",
          "name": "duration",
          "type": "uint256"
        }
      ],
      "name": "StakeIsActive",
      "type": "event"
    },
    {
      "anonymous": false,
      "inputs": [
        {
          "indexed": false,
          "internalType": "address",
          "name": "from",
          "type": "address"
        },
        {
          "indexed": false,
          "internalType": "uint256",
          "name": "amount",
          "type": "uint256"
        }
      ],
      "name": "Withdraw",
      "type": "event"
    },
    {
      "inputs": [
        {
          "internalType": "address",
          "name": "",
          "type": "address"
        }
      ],
      "name": "accountStakeAmounts",
      "outputs": [
        {
          "internalType": "uint256",
          "name": "",
          "type": "uint256"
        }
      ],
      "stateMutability": "view",
      "type": "function",
      "constant": true
    },
    {
      "inputs": [
        {
          "internalType": "address",
          "name": "",
          "type": "address"
        }
      ],
      "name": "accountStakeDates",
      "outputs": [
        {
          "internalType": "uint256",
          "name": "",
          "type": "uint256"
        }
      ],
      "stateMutability": "view",
      "type": "function",
      "constant": true
    },
    {
      "inputs": [
        {
          "internalType": "address",
          "name": "",
          "type": "address"
        }
      ],
      "name": "balances",
      "outputs": [
        {
          "internalType": "uint256",
          "name": "",
          "type": "uint256"
        }
      ],
      "stateMutability": "view",
      "type": "function",
      "constant": true
    },
    {
      "inputs": [],
      "name": "collectibleFee",
      "outputs": [
        {
          "internalType": "uint256",
          "name": "",
          "type": "uint256"
        }
      ],
      "stateMutability": "view",
      "type": "function",
      "constant": true
    },
    {
      "inputs": [
        {
          "internalType": "address",
          "name": "",
          "type": "address"
        }
      ],
      "name": "latestStakeRewards",
      "outputs": [
        {
          "internalType": "uint256",
          "name": "",
          "type": "uint256"
        }
      ],
      "stateMutability": "view",
      "type": "function",
      "constant": true
    },
    {
      "inputs": [
        {
          "internalType": "address",
          "name": "receiver",
          "type": "address"
        },
        {
          "internalType": "uint256",
          "name": "amount",
          "type": "uint256"
        }
      ],
      "name": "send",
      "outputs": [],
      "stateMutability": "nonpayable",
      "type": "function"
    },
    {
      "inputs": [
        {
          "internalType": "uint256",
          "name": "duration",
          "type": "uint256"
        },
        {
          "internalType": "uint256",
          "name": "amountToBeStaked",
          "type": "uint256"
        }
      ],
      "name": "stake",
      "outputs": [],
      "stateMutability": "nonpayable",
      "type": "function"
    },
    {
      "inputs": [
        {
          "internalType": "uint256",
          "name": "amount",
          "type": "uint256"
        }
      ],
      "name": "deposit",
      "outputs": [],
      "stateMutability": "payable",
      "type": "function",
      "payable": true
    },
    {
      "inputs": [
        {
          "internalType": "uint256",
          "name": "amount",
          "type": "uint256"
        }
      ],
      "name": "withdraw",
      "outputs": [],
      "stateMutability": "nonpayable",
      "type": "function"
    },
    {
      "inputs": [
        {
          "internalType": "address",
          "name": "publicAddress",
          "type": "address"
        },
        {
          "internalType": "uint256",
          "name": "currentTimeStamp",
          "type": "uint256"
        }
      ],
      "name": "checkStakeStatus",
      "outputs": [],
      "stateMutability": "nonpayable",
      "type": "function"
    },
    {
      "inputs": [
        {
          "internalType": "address",
          "name": "publicAddress",
          "type": "address"
        }
      ],
      "name": "getBalance",
      "outputs": [
        {
          "internalType": "uint256",
          "name": "",
          "type": "uint256"
        }
      ],
      "stateMutability": "view",
      "type": "function",
      "constant": true
    },
    {
      "inputs": [
        {
          "internalType": "address",
          "name": "publicAddress",
          "type": "address"
        }
      ],
      "name": "getStakeAmount",
      "outputs": [
        {
          "internalType": "uint256",
          "name": "",
          "type": "uint256"
        }
      ],
      "stateMutability": "view",
      "type": "function",
      "constant": true
    },
    {
      "inputs": [
        {
          "internalType": "address",
          "name": "publicAddress",
          "type": "address"
        }
      ],
      "name": "getCurrentStakeReward",
      "outputs": [
        {
          "internalType": "uint256",
          "name": "",
          "type": "uint256"
        }
      ],
      "stateMutability": "view",
      "type": "function",
      "constant": true
    },
    {
      "inputs": [
        {
          "internalType": "address",
          "name": "publicAddress",
          "type": "address"
        }
      ],
      "name": "getStakeCompletionDate",
      "outputs": [
        {
          "internalType": "uint256",
          "name": "",
          "type": "uint256"
        }
      ],
      "stateMutability": "view",
      "type": "function",
      "constant": true
    },
    {
      "inputs": [],
      "name": "getInterest",
      "outputs": [
        {
          "internalType": "uint256",
          "name": "",
          "type": "uint256"
        }
      ],
      "stateMutability": "pure",
      "type": "function",
      "constant": true
    },
    {
      "inputs": [],
      "name": "getTokenPrice",
      "outputs": [
        {
          "internalType": "uint256",
          "name": "",
          "type": "uint256"
        }
      ],
      "stateMutability": "view",
      "type": "function",
      "constant": true
    },
    {
      "inputs": [],
      "name": "getContractBalance",
      "outputs": [
        {
          "internalType": "uint256",
          "name": "",
          "type": "uint256"
        }
      ],
      "stateMutability": "view",
      "type": "function",
      "constant": true
    },
    {
      "inputs": [
        {
          "internalType": "string",
          "name": "tokenUri",
          "type": "string"
        },
        {
          "internalType": "string",
          "name": "description",
          "type": "string"
        },
        {
          "internalType": "uint256",
          "name": "price",
          "type": "uint256"
        }
      ],
      "name": "registerNewCollectible",
      "outputs": [],
      "stateMutability": "nonpayable",
      "type": "function"
    },
    {
      "inputs": [
        {
          "internalType": "uint256",
          "name": "tokenID",
          "type": "uint256"
        },
        {
          "internalType": "uint256",
          "name": "price",
          "type": "uint256"
        }
      ],
      "name": "setPriceOfCollectible",
      "outputs": [],
      "stateMutability": "nonpayable",
      "type": "function"
    },
    {
      "inputs": [
        {
          "internalType": "uint256",
          "name": "tokenID",
          "type": "uint256"
        }
      ],
      "name": "buyCollectible",
      "outputs": [],
      "stateMutability": "nonpayable",
      "type": "function"
    },
    {
      "inputs": [
        {
          "internalType": "uint256",
          "name": "tokenID",
          "type": "uint256"
        }
      ],
      "name": "getTokenURI",
      "outputs": [
        {
          "internalType": "string",
          "name": "",
          "type": "string"
        }
      ],
      "stateMutability": "view",
      "type": "function",
      "constant": true
    },
    {
      "inputs": [
        {
          "internalType": "uint256",
          "name": "tokenID",
          "type": "uint256"
        }
      ],
      "name": "getTokenCreator",
      "outputs": [
        {
          "internalType": "address",
          "name": "",
          "type": "address"
        }
      ],
      "stateMutability": "view",
      "type": "function",
      "constant": true
    },
    {
      "inputs": [
        {
          "internalType": "uint256",
          "name": "tokenID",
          "type": "uint256"
        }
      ],
      "name": "getTokenOwner",
      "outputs": [
        {
          "internalType": "address",
          "name": "",
          "type": "address"
        }
      ],
      "stateMutability": "view",
      "type": "function",
      "constant": true
    },
    {
      "inputs": [
        {
          "internalType": "uint256",
          "name": "tokenID",
          "type": "uint256"
        }
      ],
      "name": "getTokenDescription",
      "outputs": [
        {
          "internalType": "string",
          "name": "",
          "type": "string"
        }
      ],
      "stateMutability": "view",
      "type": "function",
      "constant": true
    },
    {
      "inputs": [
        {
          "internalType": "uint256",
          "name": "tokenID",
          "type": "uint256"
        }
      ],
      "name": "getTokenHash",
      "outputs": [
        {
          "internalType": "bytes32",
          "name": "",
          "type": "bytes32"
        }
      ],
      "stateMutability": "view",
      "type": "function",
      "constant": true
    },
    {
      "inputs": [
        {
          "internalType": "uint256",
          "name": "tokenID",
          "type": "uint256"
        }
      ],
      "name": "getPriceOfCollectible",
      "outputs": [
        {
          "internalType": "uint256",
          "name": "",
          "type": "uint256"
        }
      ],
      "stateMutability": "view",
      "type": "function",
      "constant": true
    },
    {
      "inputs": [],
      "name": "getCollectibleFee",
      "outputs": [
        {
          "internalType": "uint256",
          "name": "",
          "type": "uint256"
        }
      ],
      "stateMutability": "view",
      "type": "function",
      "constant": true
    },
    {
      "inputs": [],
      "name": "getTokenCount",
      "outputs": [
        {
          "internalType": "uint256",
          "name": "",
          "type": "uint256"
        }
      ],
      "stateMutability": "view",
      "type": "function",
      "constant": true
    }
  ],
  "bytecode": "0x608060405234801561001057600080fd5b5060405161001d906100bd565b604051809103906000f080158015610039573d6000803e3d6000fd5b50600480546001600160a01b0319166001600160a01b03929092169182178155604080516342ebc88160e11b815290516385d79102928281019260209291908290030181865afa158015610091573d6000803e3d6000fd5b505050506040513d601f19601f820116820180604052508101906100b591906100cb565b6005556100e4565b610d6280620017b383390190565b6000602082840312156100dd57600080fd5b5051919050565b6116bf80620000f46000396000f3fe6080604052600436106101b75760003560e01c80637b0472f0116100ec578063b3154c081161008a578063d0679d3411610064578063d0679d341461051a578063df5a4b641461053a578063e5a4bed314610567578063f8b2cb4f1461057b57600080fd5b8063b3154c08146104d1578063b6b55f25146104f1578063c4e6e3e51461050457600080fd5b8063934689a9116100c6578063934689a914610439578063a0cc0dc514610471578063a5cd761f14610491578063b04c8e87146104b157600080fd5b80637b0472f0146103c35780637dd9ebca146103e357806380b891a41461041957600080fd5b80634b94f50e1161015957806368aaca9b1161013357806368aaca9b146103455780636f9fb98a1461036557806378a89567146103785780637a1ea1051461038d57600080fd5b80634b94f50e146102f05780635a9880d314610305578063683a12391461032557600080fd5b806327e235e31161019557806327e235e3146102475780632e1a7d4d146102745780632e6b640c146102965780633bb3a24d146102c357600080fd5b80630c2eb403146101bc578063196ebdfd1461020557806321685a4d14610232575b600080fd5b3480156101c857600080fd5b506101f26101d73660046112e3565b6001600160a01b031660009081526002602052604090205490565b6040519081526020015b60405180910390f35b34801561021157600080fd5b506101f26102203660046112e3565b60036020526000908152604090205481565b34801561023e57600080fd5b506005546101f2565b34801561025357600080fd5b506101f26102623660046112e3565b60006020819052908152604090205481565b34801561028057600080fd5b5061029461028f366004611307565b6105b1565b005b3480156102a257600080fd5b506101f26102b13660046112e3565b60016020526000908152604090205481565b3480156102cf57600080fd5b506102e36102de366004611307565b6106d4565b6040516101fc919061137c565b3480156102fc57600080fd5b506101f261074f565b34801561031157600080fd5b50610294610320366004611454565b610773565b34801561033157600080fd5b506102946103403660046114c1565b6108a2565b34801561035157600080fd5b506101f2610360366004611307565b610912565b34801561037157600080fd5b50476101f2565b34801561038457600080fd5b506101f2610983565b34801561039957600080fd5b506101f26103a83660046112e3565b6001600160a01b031660009081526001602052604090205490565b3480156103cf57600080fd5b506102946103de3660046114c1565b610a01565b3480156103ef57600080fd5b506101f26103fe3660046112e3565b6001600160a01b031660009081526003602052604090205490565b34801561042557600080fd5b506102946104343660046114e3565b610c09565b34801561044557600080fd5b50610459610454366004611307565b610ccb565b6040516001600160a01b0390911681526020016101fc565b34801561047d57600080fd5b506101f261048c366004611307565b610d3c565b34801561049d57600080fd5b506104596104ac366004611307565b610d70565b3480156104bd57600080fd5b506102946104cc366004611307565b610da4565b3480156104dd57600080fd5b506102e36104ec366004611307565b610fb9565b6102946104ff366004611307565b610fed565b34801561051057600080fd5b506101f260055481565b34801561052657600080fd5b506102946105353660046114e3565b611125565b34801561054657600080fd5b506101f26105553660046112e3565b60026020526000908152604090205481565b34801561057357600080fd5b5060056101f2565b34801561058757600080fd5b506101f26105963660046112e3565b6001600160a01b031660009081526020819052604090205490565b3360009081526020819052604090205481111561062f5760405162461bcd60e51b815260206004820152603160248201527f596f7520646f6e2774206861766520656e6f7567682066756e647320696e20796044820152706f75722062616e6b206163636f756e742160781b60648201526084015b60405180910390fd5b600061063961074f565b9050336108fc6106498385611525565b6040518115909202916000818181858888f19350505050158015610671573d6000803e3d6000fd5b503360009081526020819052604081208054849290610691908490611544565b909155505060408051338152602081018490527f884edad9ce6fa2440d8a54cc123490eb96d2768479d49ff9c7366125a942436491015b60405180910390a15050565b60048054604051633bb3a24d60e01b81529182018390526060916001600160a01b0390911690633bb3a24d906024015b600060405180830381865afa158015610721573d6000803e3d6000fd5b505050506040513d6000823e601f3d908101601f19168201604052610749919081019061155b565b92915050565b60004781610761633b9aca00836115d2565b90508061074957506298968092915050565b60048054604051631791fab960e21b81526001600160a01b0390911691635e47eae4916107a8918791879187913391016115f4565b600060405180830381600087803b1580156107c257600080fd5b505af11580156107d6573d6000803e3d6000fd5b50505050600554816107e891906115d2565b33600090815260208190526040902054101561086c5760405162461bcd60e51b815260206004820152603960248201527f53656e64657220646f65736e2774206861766520656e6f7567682066756e647360448201527f20746f2070617920726567697374726174696f6e2066656521000000000000006064820152608401610626565b60055461087990826115d2565b3360009081526020819052604081208054909190610898908490611544565b9091555050505050565b6004805460405163fbb5b35f60e01b8152339281019290925260248201849052604482018390526001600160a01b03169063fbb5b35f90606401600060405180830381600087803b1580156108f657600080fd5b505af115801561090a573d6000803e3d6000fd5b505050505050565b600480546040516368aaca9b60e01b81529182018390526000916001600160a01b03909116906368aaca9b906024015b602060405180830381865afa15801561095f573d6000803e3d6000fd5b505050506040513d601f19601f82011682018060405250810190610749919061163b565b6000600460009054906101000a90046001600160a01b03166001600160a01b03166378a895676040518163ffffffff1660e01b8152600401602060405180830381865afa1580156109d8573d6000803e3d6000fd5b505050506040513d601f19601f820116820180604052508101906109fc919061163b565b905090565b33600090815260208190526040902054811115610a6e5760405162461bcd60e51b815260206004820152602560248201527f596f75206861766520696e73756666696369656e742066756e647320746f207360448201526474616b652160d81b6064820152608401610626565b3360009081526001602052604090205415610ae95760405162461bcd60e51b815260206004820152603560248201527f54686973206163636f756e742068617320616c72656164792065737461626c69604482015274736865642061207374616b652070726f636573732160581b6064820152608401610626565b60008211610b455760405162461bcd60e51b8152602060048201526024808201527f4475726174696f6e2073686f756c64206265206120706f7369746976652076616044820152636c75652160e01b6064820152608401610626565b3360009081526002602090815260408083208490559082905281208054839290610b70908490611544565b90915550610b8090508242611654565b33600090815260016020526040902055610b9a8183611227565b336000908152600360209081526040808320849055600290915281208054909190610bc6908490611654565b909155505060408051338152602081018390529081018390527f5af417134f72a9d41143ace85b0a26dce6f550f894f2cbc1eeee8810603d91b6906060016106c8565b6001600160a01b03821660009081526001602052604090205481811115610c815760405162461bcd60e51b815260206004820152602660248201527f5374616b65206475726174696f6e20686173206e6f74206265656e20656e646560448201526564207965742160d01b6064820152608401610626565b610c8a83611262565b6040516001600160a01b03841681527fa413e42c61420bd7d37579e855fd30e0233a6fcce5217b742816c4a389b9b7d29060200160405180910390a1505050565b6004805460405163934689a960e01b81529182018390526000916001600160a01b039091169063934689a9906024015b602060405180830381865afa158015610d18573d6000803e3d6000fd5b505050506040513d601f19601f82011682018060405250810190610749919061166c565b6004805460405163a0cc0dc560e01b81529182018390526000916001600160a01b039091169063a0cc0dc590602401610942565b6004805460405163a5cd761f60e01b81529182018390526000916001600160a01b039091169063a5cd761f90602401610cfb565b600480546040516368aaca9b60e01b81529182018390526000916001600160a01b03909116906368aaca9b90602401602060405180830381865afa158015610df0573d6000803e3d6000fd5b505050506040513d601f19601f82011682018060405250810190610e14919061163b565b33600090815260208190526040902054909150811115610e805760405162461bcd60e51b815260206004820152602160248201527f53656e64657220646f65736e2774206861766520656e6f7567682066756e64736044820152602160f81b6064820152608401610626565b6004805460405163a5cd761f60e01b81529182018490526000916001600160a01b039091169063a5cd761f90602401602060405180830381865afa158015610ecc573d6000803e3d6000fd5b505050506040513d601f19601f82011682018060405250810190610ef0919061166c565b905081600080836001600160a01b03166001600160a01b031681526020019081526020016000206000828254610f269190611654565b90915550503360009081526020819052604081208054849290610f4a908490611544565b909155505060048054604051633a0e4d7960e11b81523392810192909252602482018590526001600160a01b03169063741c9af290604401600060405180830381600087803b158015610f9c57600080fd5b505af1158015610fb0573d6000803e3d6000fd5b50505050505050565b60048054604051631662a98160e31b81529182018390526060916001600160a01b039091169063b3154c0890602401610704565b6001341161104d5760405162461bcd60e51b815260206004820152602760248201527f4465706f73697420616d6f756e74206d757374206265206d6f7265207468616e6044820152662031207765692160c81b6064820152608401610626565b600061105761074f565b90506110638183611525565b3410156110cc5760405162461bcd60e51b815260206004820152603160248201527f4465706f73697420616d6f756e7420776f727468206d757374206265206174206044820152706c656173742031206265726b636f696e2160781b6064820152608401610626565b33600090815260208190526040812080548492906110eb908490611654565b9091555050604080513381523460208201527fe1fffcc4923d04b559f4d29a8bfc6cda04eb5b0d3c460751c2402c5c5cc9109c91016106c8565b336000908152602081905260409020548111156111905760405162461bcd60e51b8152602060048201526024808201527f596f7520646f6e2774206861766520656e6f7567682066756e647320746f2073604482015263656e642160e01b6064820152608401610626565b33600090815260208190526040812080548392906111af908490611544565b90915550506001600160a01b038216600090815260208190526040812080548392906111dc908490611654565b9091555050604080513381526001600160a01b03841660208201529081018290527f3990db2d31862302a685e8086b5755072a6e2b5b780af1ee81ece35ee3cd3345906060016106c8565b600060056112358382611525565b9050606484111561124e5761124b816002611525565b90505b61125a612710826115d2565b949350505050565b6001600160a01b038116600090815260026020908152604080832054918390528220805491929091611295908490611654565b90915550506001600160a01b03166000908152600160209081526040808320839055600282528083208390556003909152812055565b6001600160a01b03811681146112e057600080fd5b50565b6000602082840312156112f557600080fd5b8135611300816112cb565b9392505050565b60006020828403121561131957600080fd5b5035919050565b60005b8381101561133b578181015183820152602001611323565b8381111561134a576000848401525b50505050565b60008151808452611368816020860160208601611320565b601f01601f19169290920160200192915050565b6020815260006113006020830184611350565b634e487b7160e01b600052604160045260246000fd5b604051601f8201601f1916810167ffffffffffffffff811182821017156113ce576113ce61138f565b604052919050565b600067ffffffffffffffff8211156113f0576113f061138f565b50601f01601f191660200190565b600082601f83011261140f57600080fd5b813561142261141d826113d6565b6113a5565b81815284602083860101111561143757600080fd5b816020850160208301376000918101602001919091529392505050565b60008060006060848603121561146957600080fd5b833567ffffffffffffffff8082111561148157600080fd5b61148d878388016113fe565b945060208601359150808211156114a357600080fd5b506114b0868287016113fe565b925050604084013590509250925092565b600080604083850312156114d457600080fd5b50508035926020909101359150565b600080604083850312156114f657600080fd5b8235611501816112cb565b946020939093013593505050565b634e487b7160e01b600052601160045260246000fd5b600081600019048311821515161561153f5761153f61150f565b500290565b6000828210156115565761155661150f565b500390565b60006020828403121561156d57600080fd5b815167ffffffffffffffff81111561158457600080fd5b8201601f8101841361159557600080fd5b80516115a361141d826113d6565b8181528560208385010111156115b857600080fd5b6115c9826020830160208601611320565b95945050505050565b6000826115ef57634e487b7160e01b600052601260045260246000fd5b500490565b6080815260006116076080830187611350565b82810360208401526116198187611350565b604084019590955250506001600160a01b039190911660609091015292915050565b60006020828403121561164d57600080fd5b5051919050565b600082198211156116675761166761150f565b500190565b60006020828403121561167e57600080fd5b8151611300816112cb56fea2646970667358221220bdf942770804faa8040b597cf318917abea7f6741b92134302d8a932cf5356a564736f6c634300080c0033608060405234801561001057600080fd5b50600160008190556127109055610d368061002c6000396000f3fe608060405234801561001057600080fd5b50600436106101005760003560e01c806385d7910211610097578063a5cd761f11610066578063a5cd761f14610280578063b3154c08146102a9578063d082e381146102bc578063fbb5b35f146102c557600080fd5b806385d7910214610220578063934689a9146102285780639ed3edf014610254578063a0cc0dc51461025d57600080fd5b80635e47eae4116100d35780635e47eae4146101cd57806368aaca9b146101e2578063741c9af21461020557806378a895671461021857600080fd5b80630a09859d146101055780633bb3a24d14610133578063411ba235146101535780634b3876911461018c575b600080fd5b61011861011336600461094b565b6102d8565b60405161012a969594939291906109c0565b60405180910390f35b61014661014136600461094b565b61042d565b60405161012a9190610a17565b61017e610161366004610ad4565b805160208183018101805160048252928201919093012091525481565b60405190815260200161012a565b6101b561019a36600461094b565b6003602052600090815260409020546001600160a01b031681565b6040516001600160a01b03909116815260200161012a565b6101e06101db366004610b2d565b6104cf565b005b61017e6101f036600461094b565b60009081526002602052604090206005015490565b6101e0610213366004610bab565b6106f3565b61017e61077f565b60015461017e565b6101b561023636600461094b565b6000908152600260205260409020600101546001600160a01b031690565b61017e60015481565b61017e61026b36600461094b565b60009081526002602052604090206003015490565b6101b561028e36600461094b565b6000908152600360205260409020546001600160a01b031690565b6101466102b736600461094b565b610795565b61017e60005481565b6101e06102d3366004610bd5565b6107b5565b6002602052600090815260409020805481906102f390610c08565b80601f016020809104026020016040519081016040528092919081815260200182805461031f90610c08565b801561036c5780601f106103415761010080835404028352916020019161036c565b820191906000526020600020905b81548152906001019060200180831161034f57829003601f168201915b5050505060018301546002840154600385015460048601805495966001600160a01b039485169694909316945090926103a490610c08565b80601f01602080910402602001604051908101604052809291908181526020018280546103d090610c08565b801561041d5780601f106103f25761010080835404028352916020019161041d565b820191906000526020600020905b81548152906001019060200180831161040057829003601f168201915b5050505050908060050154905086565b600081815260026020526040902080546060919061044a90610c08565b80601f016020809104026020016040519081016040528092919081815260200182805461047690610c08565b80156104c35780601f10610498576101008083540402835291602001916104c3565b820191906000526020600020905b8154815290600101906020018083116104a657829003601f168201915b50505050509050919050565b6004846040516104df9190610c43565b9081526020016040518091039020546000146105425760405162461bcd60e51b815260206004820152601b60248201527f546f6b656e2055524920697320616c7265616479206f776e656421000000000060448201526064015b60405180910390fd5b600061055085858585610875565b90506040518060c00160405280868152602001836001600160a01b03168152602001836001600160a01b0316815260200182815260200185815260200184815250600260008054815260200190815260200160002060008201518160000190805190602001906105c19291906108b2565b506020828101516001830180546001600160a01b039283166001600160a01b0319918216179091556040850151600285018054919093169116179055606083015160038301556080830151805161061e92600485019201906108b2565b5060a0820151816005015590505060005460048660405161063f9190610c43565b90815260405190819003602001902055600080548391600391818061066383610c75565b91905055815260200190815260200160002060006101000a8154816001600160a01b0302191690836001600160a01b031602179055507ff87fe3264c3638b723b4ec8d76ef1445bea00685c4b9920442f5f2aa1c2673278260016000546106ca9190610c90565b604080516001600160a01b03909316835260208301919091520160405180910390a15050505050565b600081815260036020908152604080832080546001600160a01b03198082166001600160a01b0389811691821790945560028087529685902090960180549091168617905582519116808252928101939093528201839052907ff0f62f5e6af9b2c898cea739cd3c2921ac2f36806004128640c6da4181011165906060015b60405180910390a1505050565b600060016000546107909190610c90565b905090565b600081815260026020526040902060040180546060919061044a90610c08565b6000828152600360205260409020546001600160a01b0384811691161461082a5760405162461bcd60e51b815260206004820152602360248201527f53656e64657220646f65736e2774206f776e2074686520636f6c6c65637469626044820152626c652160e81b6064820152608401610539565b60008281526002602090815260409182902060050183905581518481529081018390527f6ef3bcfe7975df410c416dd608ae52ef55dc72f285111bc824da7962531f2df19101610772565b600084828585600054604051602001610892959493929190610ca7565b604051602081830303815290604052805190602001209050949350505050565b8280546108be90610c08565b90600052602060002090601f0160209004810192826108e05760008555610926565b82601f106108f957805160ff1916838001178555610926565b82800160010185558215610926579182015b8281111561092657825182559160200191906001019061090b565b50610932929150610936565b5090565b5b808211156109325760008155600101610937565b60006020828403121561095d57600080fd5b5035919050565b60005b8381101561097f578181015183820152602001610967565b8381111561098e576000848401525b50505050565b600081518084526109ac816020860160208601610964565b601f01601f19169290920160200192915050565b60c0815260006109d360c0830189610994565b6001600160a01b03888116602085015287166040840152606083018690528281036080840152610a038186610994565b9150508260a0830152979650505050505050565b602081526000610a2a6020830184610994565b9392505050565b634e487b7160e01b600052604160045260246000fd5b600082601f830112610a5857600080fd5b813567ffffffffffffffff80821115610a7357610a73610a31565b604051601f8301601f19908116603f01168101908282118183101715610a9b57610a9b610a31565b81604052838152866020858801011115610ab457600080fd5b836020870160208301376000602085830101528094505050505092915050565b600060208284031215610ae657600080fd5b813567ffffffffffffffff811115610afd57600080fd5b610b0984828501610a47565b949350505050565b80356001600160a01b0381168114610b2857600080fd5b919050565b60008060008060808587031215610b4357600080fd5b843567ffffffffffffffff80821115610b5b57600080fd5b610b6788838901610a47565b95506020870135915080821115610b7d57600080fd5b50610b8a87828801610a47565b93505060408501359150610ba060608601610b11565b905092959194509250565b60008060408385031215610bbe57600080fd5b610bc783610b11565b946020939093013593505050565b600080600060608486031215610bea57600080fd5b610bf384610b11565b95602085013595506040909401359392505050565b600181811c90821680610c1c57607f821691505b60208210811415610c3d57634e487b7160e01b600052602260045260246000fd5b50919050565b60008251610c55818460208701610964565b9190910192915050565b634e487b7160e01b600052601160045260246000fd5b6000600019821415610c8957610c89610c5f565b5060010190565b600082821015610ca257610ca2610c5f565b500390565b60008651610cb9818460208b01610964565b606087901b6bffffffffffffffffffffffff19169083019081528551610ce6816014840160208a01610964565b01601481019490945250506034820152605401939250505056fea2646970667358221220aeca3113ae427e3d297b5f72f7c6ce61e3dcede4f01e3a2b796b1079ab3c01ca64736f6c634300080c0033",
  "immutableReferences": {},
  "source": "// SPDX-License-Identifier: MIT\r\n\r\n// For this project, I can merge my previous two smart contracts into one contract\r\n// or i can use the same layout ( Stakers can provide services in a different node.)\r\n// So, users can buy (swap) tokens with ETH and stake them via a staker.\r\n\r\n// ETH stake provider contract; peers can stake their funds to gain rewards.\r\n\r\npragma solidity ^0.8.0;\r\n\r\nimport \"./IToken.sol\";\r\nimport \"./CollectibleToken.sol\";\r\n\r\ncontract BerkToken is IToken {\r\n    mapping(address => uint256) public balances;\r\n    mapping(address => uint256) public accountStakeDates;\r\n    mapping(address => uint256) public accountStakeAmounts;\r\n    mapping(address => uint256) public latestStakeRewards;\r\n\r\n    // Stake reward rate\r\n    uint256 private constant interest = 5;\r\n    uint256 private constant maxSupply = 1000000000;\r\n\r\n    CollectibleToken private collectibleToken;\r\n    uint256 public collectibleFee;\r\n\r\n    constructor() {\r\n        collectibleToken = new CollectibleToken();\r\n        collectibleFee = collectibleToken.getTransactionFee();\r\n    }\r\n\r\n    /*\r\n     * Transaction is processed within contract:\r\n     * From: 0x23bc92ca3d8dd080dd65914e40bad5a5bec93769 : owner\r\n     * to:  0xd2d656253b91c5915cafdcd8b3a5249950739e10 : receiver\r\n     */\r\n\r\n    function send(address receiver, uint256 amount) public {\r\n        require(\r\n            balances[msg.sender] >= amount,\r\n            \"You don't have enough funds to send!\"\r\n        );\r\n\r\n        balances[msg.sender] -= amount;\r\n        balances[receiver] += amount;\r\n\r\n        emit Sent(msg.sender, receiver, amount);\r\n    }\r\n\r\n    // duration -> seconds\r\n    function stake(uint256 duration, uint256 amountToBeStaked) public {\r\n        require(\r\n            balances[msg.sender] >= amountToBeStaked,\r\n            \"You have insufficient funds to stake!\"\r\n        );\r\n\r\n        require(\r\n            accountStakeDates[msg.sender] == 0,\r\n            \"This account has already established a stake process!\"\r\n        );\r\n\r\n        require(duration > 0, \"Duration should be a positive value!\");\r\n\r\n        // Stake amounts of accounts:\r\n        accountStakeAmounts[msg.sender] = amountToBeStaked;\r\n\r\n        // Take out the staked amount from the user balance.\r\n        balances[msg.sender] -= amountToBeStaked;\r\n\r\n        // Timestamp for stake duration.\r\n        accountStakeDates[msg.sender] = block.timestamp + duration;\r\n\r\n        // Stake reward\r\n        latestStakeRewards[msg.sender] = calculateStakeReward(\r\n            amountToBeStaked,\r\n            duration\r\n        );\r\n\r\n        accountStakeAmounts[msg.sender] += latestStakeRewards[msg.sender];\r\n\r\n        emit Stake(msg.sender, amountToBeStaked, duration);\r\n    }\r\n\r\n    function calculateStakeReward(uint256 amountToBeStaked, uint256 duration)\r\n        private\r\n        pure\r\n        returns (uint256)\r\n    {\r\n        uint256 stakeRate = interest;\r\n        stakeRate = stakeRate * duration;\r\n\r\n        // More than 100 ETH:\r\n        if (amountToBeStaked > 100) {\r\n            stakeRate = stakeRate * 2;\r\n        }\r\n        return stakeRate / 10000;\r\n    }\r\n\r\n    function deposit(uint256 amount) public payable {\r\n        require(msg.value > 1, \"Deposit amount must be more than 1 wei!\");\r\n\r\n        uint256 tokenPrice = getTokenPrice();\r\n\r\n        require(\r\n            msg.value >= amount * tokenPrice,\r\n            \"Deposit amount worth must be at least 1 berkcoin!\"\r\n        );\r\n\r\n        // Here we get token amount based on the deposited ETH amount:\r\n        // If user deposit 1 ETH and current token price is 0.2 ETH, then\r\n        // user will have 5 tokens in his account address.\r\n\r\n        // uint256 depositedAmount = msg.value;\r\n        // balances[msg.sender] += depositedAmount / tokenPrice;\r\n        balances[msg.sender] += amount;\r\n        emit Deposit(msg.sender, msg.value);\r\n    }\r\n\r\n    function withdraw(uint256 amount) public {\r\n        require(\r\n            balances[msg.sender] >= amount,\r\n            \"You don't have enough funds in your bank account!\"\r\n        );\r\n\r\n        uint256 tokenPrice = getTokenPrice();\r\n\r\n        payable(msg.sender).transfer(amount * tokenPrice);\r\n        balances[msg.sender] -= amount;\r\n\r\n        emit Withdraw(msg.sender, amount);\r\n    }\r\n\r\n    function checkStakeStatus(address publicAddress, uint256 currentTimeStamp)\r\n        public\r\n    {\r\n        uint256 stakeTimeStamp = accountStakeDates[publicAddress];\r\n        require(\r\n            stakeTimeStamp <= currentTimeStamp,\r\n            \"Stake duration has not been ended yet!\"\r\n        );\r\n\r\n        handleCompletedStake(publicAddress);\r\n        emit StakeCompleted(publicAddress);\r\n    }\r\n\r\n    // If account's stake duration is over, then we set stake parameters as 0\r\n    // after adding up the staked amount to the current balance.\r\n\r\n    function handleCompletedStake(address publicAddress) private {\r\n        balances[publicAddress] += accountStakeAmounts[publicAddress];\r\n        accountStakeDates[publicAddress] = 0;\r\n        accountStakeAmounts[publicAddress] = 0;\r\n        latestStakeRewards[publicAddress] = 0;\r\n    }\r\n\r\n    function getBalance(address publicAddress) public view returns (uint256) {\r\n        return balances[publicAddress];\r\n    }\r\n\r\n    function getStakeAmount(address publicAddress)\r\n        public\r\n        view\r\n        returns (uint256)\r\n    {\r\n        return accountStakeAmounts[publicAddress];\r\n    }\r\n\r\n    function getCurrentStakeReward(address publicAddress)\r\n        public\r\n        view\r\n        returns (uint256)\r\n    {\r\n        return latestStakeRewards[publicAddress];\r\n    }\r\n\r\n    function getStakeCompletionDate(address publicAddress)\r\n        public\r\n        view\r\n        returns (uint256)\r\n    {\r\n        return accountStakeDates[publicAddress];\r\n    }\r\n\r\n    function getInterest() public pure returns (uint256) {\r\n        return interest;\r\n    }\r\n\r\n    function getTokenPrice() public view returns (uint256) {\r\n        uint256 contractBalance = getContractBalance();\r\n        uint256 tokenPrice = contractBalance / maxSupply;\r\n\r\n        // If it is the first transaction on this smart contract,\r\n        // token price will be 0. To prevent multiply error, we\r\n        // assing token price with the lowest possible value 1.\r\n\r\n        if (tokenPrice == 0) {\r\n            tokenPrice = 10000000;\r\n        }\r\n        return tokenPrice;\r\n    }\r\n\r\n    function getContractBalance() public view returns (uint256) {\r\n        return address(this).balance;\r\n    }\r\n\r\n    // NFT Handlers:\r\n\r\n    function registerNewCollectible(\r\n        string memory tokenUri,\r\n        string memory description,\r\n        uint256 price\r\n    ) public {\r\n        collectibleToken.createNewCollectible(\r\n            tokenUri,\r\n            description,\r\n            price,\r\n            msg.sender\r\n        );\r\n        require(\r\n            balances[msg.sender] >= price / collectibleFee,\r\n            \"Sender doesn't have enough funds to pay registration fee!\"\r\n        );\r\n        balances[msg.sender] -= price / collectibleFee;\r\n    }\r\n\r\n    function setPriceOfCollectible(uint256 tokenID, uint256 price) public {\r\n        collectibleToken.setPriceOfCollectible(msg.sender, tokenID, price);\r\n    }\r\n\r\n    function buyCollectible(uint256 tokenID) public {\r\n        uint256 price = collectibleToken.getPriceOfCollectible(tokenID);\r\n        require(\r\n            price <= balances[msg.sender],\r\n            \"Sender doesn't have enough funds!\"\r\n        );\r\n\r\n        address collectibleOwner = collectibleToken.getTokenOwner(tokenID);\r\n        balances[collectibleOwner] += price;\r\n        balances[msg.sender] -= price;\r\n        collectibleToken.transferCollectible(msg.sender, tokenID);\r\n    }\r\n\r\n    function getTokenURI(uint256 tokenID) public view returns (string memory) {\r\n        return collectibleToken.getTokenURI(tokenID);\r\n    }\r\n\r\n    function getTokenCreator(uint256 tokenID) public view returns (address) {\r\n        return collectibleToken.getTokenCreator(tokenID);\r\n    }\r\n\r\n    function getTokenOwner(uint256 tokenID) public view returns (address) {\r\n        return collectibleToken.getTokenOwner(tokenID);\r\n    }\r\n\r\n    function getTokenDescription(uint256 tokenID)\r\n        public\r\n        view\r\n        returns (string memory)\r\n    {\r\n        return collectibleToken.getTokenDescription(tokenID);\r\n    }\r\n\r\n    function getTokenHash(uint256 tokenID) public view returns (bytes32) {\r\n        return collectibleToken.getTokenHash(tokenID);\r\n    }\r\n\r\n    function getPriceOfCollectible(uint256 tokenID)\r\n        public\r\n        view\r\n        returns (uint256)\r\n    {\r\n        return collectibleToken.getPriceOfCollectible(tokenID);\r\n    }\r\n\r\n    function getCollectibleFee() public view returns (uint256) {\r\n        return collectibleFee;\r\n    }\r\n\r\n    function getTokenCount() public view returns (uint256) {\r\n        return collectibleToken.getTokenCount();\r\n    }\r\n\r\n    event Sent(address from, address to, uint256 amount);\r\n\r\n    event Deposit(address from, uint256 amount);\r\n\r\n    event Withdraw(address from, uint256 amount);\r\n\r\n    event Stake(address from, uint256 amount, uint256 duration);\r\n\r\n    event StakeCompleted(address from);\r\n\r\n    event StakeIsActive(address from, uint256 duration);\r\n}\r\n",
  "sourcePath": "C:\\Users\\Berk\\Desktop\\GitHub Project Repositories\\berkcoin\\dapp\\contracts\\BerkToken.sol",
  "compiler": {
    "name": "solc",
    "version": "0.8.12+commit.f00d7308.Emscripten.clang"
  },
  "schemaVersion": "3.4.4",
  "updatedAt": "2022-02-18T08:41:12.936Z",
  "networkType": "ethereum",
  "devdoc": {
    "kind": "dev",
    "methods": {},
    "version": 1
  },
  "userdoc": {
    "kind": "user",
    "methods": {},
    "version": 1
  }
}