{
  "contractName": "CollectibleToken",
  "abi": [
    {
      "inputs": [],
      "stateMutability": "nonpayable",
      "type": "constructor"
    },
    {
      "anonymous": false,
      "inputs": [
        {
          "indexed": false,
          "internalType": "address",
          "name": "from",
          "type": "address"
        },
        {
          "indexed": false,
          "internalType": "address",
          "name": "to",
          "type": "address"
        },
        {
          "indexed": false,
          "internalType": "uint256",
          "name": "tokendID",
          "type": "uint256"
        }
      ],
      "name": "CollectibleTransfer",
      "type": "event"
    },
    {
      "anonymous": false,
      "inputs": [
        {
          "indexed": false,
          "internalType": "uint256",
          "name": "tokenID",
          "type": "uint256"
        },
        {
          "indexed": false,
          "internalType": "bool",
          "name": "availability",
          "type": "bool"
        }
      ],
      "name": "NewAvailabilityStatus",
      "type": "event"
    },
    {
      "anonymous": false,
      "inputs": [
        {
          "indexed": false,
          "internalType": "address",
          "name": "from",
          "type": "address"
        },
        {
          "indexed": false,
          "internalType": "uint256",
          "name": "tokendID",
          "type": "uint256"
        }
      ],
      "name": "NewCollectible",
      "type": "event"
    },
    {
      "anonymous": false,
      "inputs": [
        {
          "indexed": false,
          "internalType": "uint256",
          "name": "tokenID",
          "type": "uint256"
        },
        {
          "indexed": false,
          "internalType": "uint256",
          "name": "price",
          "type": "uint256"
        }
      ],
      "name": "NewCollectiblePrice",
      "type": "event"
    },
    {
      "inputs": [
        {
          "internalType": "uint256",
          "name": "",
          "type": "uint256"
        }
      ],
      "name": "availableToTradeCollectibles",
      "outputs": [
        {
          "internalType": "bool",
          "name": "",
          "type": "bool"
        }
      ],
      "stateMutability": "view",
      "type": "function",
      "constant": true
    },
    {
      "inputs": [
        {
          "internalType": "uint256",
          "name": "",
          "type": "uint256"
        }
      ],
      "name": "burnedCollectibles",
      "outputs": [
        {
          "internalType": "bool",
          "name": "",
          "type": "bool"
        }
      ],
      "stateMutability": "view",
      "type": "function",
      "constant": true
    },
    {
      "inputs": [
        {
          "internalType": "uint256",
          "name": "",
          "type": "uint256"
        }
      ],
      "name": "collectibleOwners",
      "outputs": [
        {
          "internalType": "address",
          "name": "",
          "type": "address"
        }
      ],
      "stateMutability": "view",
      "type": "function",
      "constant": true
    },
    {
      "inputs": [
        {
          "internalType": "string",
          "name": "",
          "type": "string"
        }
      ],
      "name": "collectibleURIs",
      "outputs": [
        {
          "internalType": "uint256",
          "name": "",
          "type": "uint256"
        }
      ],
      "stateMutability": "view",
      "type": "function",
      "constant": true
    },
    {
      "inputs": [
        {
          "internalType": "uint256",
          "name": "",
          "type": "uint256"
        }
      ],
      "name": "collectibles",
      "outputs": [
        {
          "internalType": "string",
          "name": "tokenURI",
          "type": "string"
        },
        {
          "internalType": "address",
          "name": "creator",
          "type": "address"
        },
        {
          "internalType": "address",
          "name": "ownerAddress",
          "type": "address"
        },
        {
          "internalType": "bytes32",
          "name": "collectibleHash",
          "type": "bytes32"
        },
        {
          "internalType": "string",
          "name": "collectibleDescription",
          "type": "string"
        },
        {
          "internalType": "uint256",
          "name": "lastTokenPrice",
          "type": "uint256"
        }
      ],
      "stateMutability": "view",
      "type": "function",
      "constant": true
    },
    {
      "inputs": [],
      "name": "tokenCounter",
      "outputs": [
        {
          "internalType": "uint256",
          "name": "",
          "type": "uint256"
        }
      ],
      "stateMutability": "view",
      "type": "function",
      "constant": true
    },
    {
      "inputs": [],
      "name": "transactionFee",
      "outputs": [
        {
          "internalType": "uint256",
          "name": "",
          "type": "uint256"
        }
      ],
      "stateMutability": "view",
      "type": "function",
      "constant": true
    },
    {
      "inputs": [
        {
          "internalType": "string",
          "name": "tokenURI",
          "type": "string"
        },
        {
          "internalType": "string",
          "name": "description",
          "type": "string"
        },
        {
          "internalType": "uint256",
          "name": "price",
          "type": "uint256"
        },
        {
          "internalType": "address",
          "name": "owner",
          "type": "address"
        },
        {
          "internalType": "bool",
          "name": "isAvailableToTrade",
          "type": "bool"
        }
      ],
      "name": "createNewCollectible",
      "outputs": [],
      "stateMutability": "nonpayable",
      "type": "function"
    },
    {
      "inputs": [
        {
          "internalType": "address",
          "name": "to",
          "type": "address"
        },
        {
          "internalType": "uint256",
          "name": "tokenID",
          "type": "uint256"
        }
      ],
      "name": "transferCollectible",
      "outputs": [],
      "stateMutability": "nonpayable",
      "type": "function"
    },
    {
      "inputs": [
        {
          "internalType": "uint256",
          "name": "tokenID",
          "type": "uint256"
        },
        {
          "internalType": "address",
          "name": "sender",
          "type": "address"
        }
      ],
      "name": "burnCollectible",
      "outputs": [],
      "stateMutability": "nonpayable",
      "type": "function"
    },
    {
      "inputs": [
        {
          "internalType": "address",
          "name": "owner",
          "type": "address"
        },
        {
          "internalType": "uint256",
          "name": "tokenID",
          "type": "uint256"
        },
        {
          "internalType": "uint256",
          "name": "price",
          "type": "uint256"
        }
      ],
      "name": "setPriceOfCollectible",
      "outputs": [],
      "stateMutability": "nonpayable",
      "type": "function"
    },
    {
      "inputs": [
        {
          "internalType": "address",
          "name": "owner",
          "type": "address"
        },
        {
          "internalType": "uint256",
          "name": "tokenID",
          "type": "uint256"
        },
        {
          "internalType": "bool",
          "name": "availability",
          "type": "bool"
        }
      ],
      "name": "setAvailabilityOfCollectible",
      "outputs": [],
      "stateMutability": "nonpayable",
      "type": "function"
    },
    {
      "inputs": [
        {
          "internalType": "uint256",
          "name": "tokenID",
          "type": "uint256"
        }
      ],
      "name": "getAccessibility",
      "outputs": [
        {
          "internalType": "bool",
          "name": "",
          "type": "bool"
        }
      ],
      "stateMutability": "view",
      "type": "function",
      "constant": true
    },
    {
      "inputs": [
        {
          "internalType": "uint256",
          "name": "tokenID",
          "type": "uint256"
        }
      ],
      "name": "getTokenURI",
      "outputs": [
        {
          "internalType": "string",
          "name": "",
          "type": "string"
        }
      ],
      "stateMutability": "view",
      "type": "function",
      "constant": true
    },
    {
      "inputs": [
        {
          "internalType": "uint256",
          "name": "tokenID",
          "type": "uint256"
        }
      ],
      "name": "getTokenCreator",
      "outputs": [
        {
          "internalType": "address",
          "name": "",
          "type": "address"
        }
      ],
      "stateMutability": "view",
      "type": "function",
      "constant": true
    },
    {
      "inputs": [
        {
          "internalType": "uint256",
          "name": "tokenID",
          "type": "uint256"
        }
      ],
      "name": "getTokenOwner",
      "outputs": [
        {
          "internalType": "address",
          "name": "",
          "type": "address"
        }
      ],
      "stateMutability": "view",
      "type": "function",
      "constant": true
    },
    {
      "inputs": [
        {
          "internalType": "uint256",
          "name": "tokenID",
          "type": "uint256"
        }
      ],
      "name": "getTokenHash",
      "outputs": [
        {
          "internalType": "bytes32",
          "name": "",
          "type": "bytes32"
        }
      ],
      "stateMutability": "view",
      "type": "function",
      "constant": true
    },
    {
      "inputs": [
        {
          "internalType": "uint256",
          "name": "tokenID",
          "type": "uint256"
        }
      ],
      "name": "getTokenDescription",
      "outputs": [
        {
          "internalType": "string",
          "name": "",
          "type": "string"
        }
      ],
      "stateMutability": "view",
      "type": "function",
      "constant": true
    },
    {
      "inputs": [
        {
          "internalType": "uint256",
          "name": "tokenID",
          "type": "uint256"
        }
      ],
      "name": "getPriceOfCollectible",
      "outputs": [
        {
          "internalType": "uint256",
          "name": "",
          "type": "uint256"
        }
      ],
      "stateMutability": "view",
      "type": "function",
      "constant": true
    },
    {
      "inputs": [
        {
          "internalType": "uint256",
          "name": "tokenID",
          "type": "uint256"
        }
      ],
      "name": "getAvailabilityOfToken",
      "outputs": [
        {
          "internalType": "bool",
          "name": "",
          "type": "bool"
        }
      ],
      "stateMutability": "view",
      "type": "function",
      "constant": true
    },
    {
      "inputs": [],
      "name": "getTokenCount",
      "outputs": [
        {
          "internalType": "uint256",
          "name": "",
          "type": "uint256"
        }
      ],
      "stateMutability": "view",
      "type": "function",
      "constant": true
    },
    {
      "inputs": [],
      "name": "getTransactionFee",
      "outputs": [
        {
          "internalType": "uint256",
          "name": "",
          "type": "uint256"
        }
      ],
      "stateMutability": "view",
      "type": "function",
      "constant": true
    }
  ],
  "bytecode": "0x608060405234801561001057600080fd5b506001600081905561271090556110f18061002c6000396000f3fe608060405234801561001057600080fd5b50600436106101425760003560e01c806385d79102116100b8578063a5cd761f1161007c578063a5cd761f1461034e578063addbf70314610377578063b3154c081461039b578063d082e381146103ae578063f7ebefc8146103b7578063fbb5b35f146103ca57600080fd5b806385d79102146102cb578063934689a9146102d35780639ea2d712146102ff5780639ed3edf014610322578063a0cc0dc51461032b57600080fd5b80634b3876911161010a5780634b387691146102165780634de26211146102575780635e725c741461027a57806368aaca9b1461028d578063741c9af2146102b057806378a89567146102c357600080fd5b80630a09859d146101475780631570d294146101755780633bb3a24d146101a8578063411ba235146101c8578063412838a714610201575b600080fd5b61015a610155366004610b9e565b6103dd565b60405161016c96959493929190610c13565b60405180910390f35b610198610183366004610b9e565b60066020526000908152604090205460ff1681565b604051901515815260200161016c565b6101bb6101b6366004610b9e565b610532565b60405161016c9190610c6a565b6101f36101d6366004610d27565b805160208183018101805160048252928201919093012091525481565b60405190815260200161016c565b61021461020f366004610d80565b6105d4565b005b61023f610224366004610b9e565b6003602052600090815260409020546001600160a01b031681565b6040516001600160a01b03909116815260200161016c565b610198610265366004610b9e565b60009081526005602052604090205460ff1690565b610214610288366004610dbc565b6106bb565b6101f361029b366004610b9e565b60009081526002602052604090206005015490565b6102146102be366004610e4b565b6108f7565b6101f3610983565b6001546101f3565b61023f6102e1366004610b9e565b6000908152600260205260409020600101546001600160a01b031690565b61019861030d366004610b9e565b60056020526000908152604090205460ff1681565b6101f360015481565b6101f3610339366004610b9e565b60009081526002602052604090206003015490565b61023f61035c366004610b9e565b6000908152600360205260409020546001600160a01b031690565b610198610385366004610b9e565b60009081526006602052604090205460ff161590565b6101bb6103a9366004610b9e565b610999565b6101f360005481565b6102146103c5366004610e75565b6109b9565b6102146103d8366004610eb1565b610a44565b6002602052600090815260409020805481906103f890610ee4565b80601f016020809104026020016040519081016040528092919081815260200182805461042490610ee4565b80156104715780601f1061044657610100808354040283529160200191610471565b820191906000526020600020905b81548152906001019060200180831161045457829003601f168201915b5050505060018301546002840154600385015460048601805495966001600160a01b039485169694909316945090926104a990610ee4565b80601f01602080910402602001604051908101604052809291908181526020018280546104d590610ee4565b80156105225780601f106104f757610100808354040283529160200191610522565b820191906000526020600020905b81548152906001019060200180831161050557829003601f168201915b5050505050908060050154905086565b600081815260026020526040902080546060919061054f90610ee4565b80601f016020809104026020016040519081016040528092919081815260200182805461057b90610ee4565b80156105c85780601f1061059d576101008083540402835291602001916105c8565b820191906000526020600020905b8154815290600101906020018083116105ab57829003601f168201915b50505050509050919050565b600082815260026020819052604090912001546001600160a01b0382811691161461065a5760405162461bcd60e51b815260206004820152602b60248201527f53656e646572206d75737420626520746865206f776e6572206f66207468652060448201526a636f6c6c6563746962652160a81b60648201526084015b60405180910390fd5b600082815260026020526040808220905160049161067791610f1f565b90815260408051602092819003830190209290925560009384526003815281842080546001600160a01b031916905560069052909120805460ff1916600117905550565b6004856040516106cb9190610fbb565b9081526020016040518091039020546000146107295760405162461bcd60e51b815260206004820152601b60248201527f546f6b656e2055524920697320616c7265616479206f776e65642100000000006044820152606401610651565b600061073786868686610ac8565b90506040518060c00160405280878152602001846001600160a01b03168152602001846001600160a01b0316815260200182815260200186815260200185815250600260008054815260200190815260200160002060008201518160000190805190602001906107a8929190610b05565b506020828101516001830180546001600160a01b039283166001600160a01b031991821617909155604085015160028501805491909316911617905560608301516003830155608083015180516108059260048501920190610b05565b5060a091909101516005918201556000805481526020919091526040808220805460ff191685151517905590549051600490610842908990610fbb565b90815260405190819003602001902055600080548491600391818061086683610fed565b91905055815260200190815260200160002060006101000a8154816001600160a01b0302191690836001600160a01b031602179055507ff87fe3264c3638b723b4ec8d76ef1445bea00685c4b9920442f5f2aa1c2673278360016000546108cd9190611008565b604080516001600160a01b03909316835260208301919091520160405180910390a1505050505050565b600081815260036020908152604080832080546001600160a01b03198082166001600160a01b0389811691821790945560028087529685902090960180549091168617905582519116808252928101939093528201839052907ff0f62f5e6af9b2c898cea739cd3c2921ac2f36806004128640c6da4181011165906060015b60405180910390a1505050565b600060016000546109949190611008565b905090565b600081815260026020526040902060040180546060919061054f90610ee4565b6000828152600360205260409020546001600160a01b038481169116146109f25760405162461bcd60e51b81526004016106519061101f565b600082815260056020908152604091829020805460ff19168415159081179091558251858152918201527fbceceaa2f706c5eea8eca58ad8fe1aac1d7edb16d9d4ef2e0ef8ed5237b9c3839101610976565b6000828152600360205260409020546001600160a01b03848116911614610a7d5760405162461bcd60e51b81526004016106519061101f565b60008281526002602090815260409182902060050183905581518481529081018390527f6ef3bcfe7975df410c416dd608ae52ef55dc72f285111bc824da7962531f2df19101610976565b600084828585600054604051602001610ae5959493929190611062565b604051602081830303815290604052805190602001209050949350505050565b828054610b1190610ee4565b90600052602060002090601f016020900481019282610b335760008555610b79565b82601f10610b4c57805160ff1916838001178555610b79565b82800160010185558215610b79579182015b82811115610b79578251825591602001919060010190610b5e565b50610b85929150610b89565b5090565b5b80821115610b855760008155600101610b8a565b600060208284031215610bb057600080fd5b5035919050565b60005b83811015610bd2578181015183820152602001610bba565b83811115610be1576000848401525b50505050565b60008151808452610bff816020860160208601610bb7565b601f01601f19169290920160200192915050565b60c081526000610c2660c0830189610be7565b6001600160a01b03888116602085015287166040840152606083018690528281036080840152610c568186610be7565b9150508260a0830152979650505050505050565b602081526000610c7d6020830184610be7565b9392505050565b634e487b7160e01b600052604160045260246000fd5b600082601f830112610cab57600080fd5b813567ffffffffffffffff80821115610cc657610cc6610c84565b604051601f8301601f19908116603f01168101908282118183101715610cee57610cee610c84565b81604052838152866020858801011115610d0757600080fd5b836020870160208301376000602085830101528094505050505092915050565b600060208284031215610d3957600080fd5b813567ffffffffffffffff811115610d5057600080fd5b610d5c84828501610c9a565b949350505050565b80356001600160a01b0381168114610d7b57600080fd5b919050565b60008060408385031215610d9357600080fd5b82359150610da360208401610d64565b90509250929050565b80358015158114610d7b57600080fd5b600080600080600060a08688031215610dd457600080fd5b853567ffffffffffffffff80821115610dec57600080fd5b610df889838a01610c9a565b96506020880135915080821115610e0e57600080fd5b50610e1b88828901610c9a565b94505060408601359250610e3160608701610d64565b9150610e3f60808701610dac565b90509295509295909350565b60008060408385031215610e5e57600080fd5b610e6783610d64565b946020939093013593505050565b600080600060608486031215610e8a57600080fd5b610e9384610d64565b925060208401359150610ea860408501610dac565b90509250925092565b600080600060608486031215610ec657600080fd5b610ecf84610d64565b95602085013595506040909401359392505050565b600181811c90821680610ef857607f821691505b60208210811415610f1957634e487b7160e01b600052602260045260246000fd5b50919050565b600080835481600182811c915080831680610f3b57607f831692505b6020808410821415610f5b57634e487b7160e01b86526022600452602486fd5b818015610f6f5760018114610f8057610fad565b60ff19861689528489019650610fad565b60008a81526020902060005b86811015610fa55781548b820152908501908301610f8c565b505084890196505b509498975050505050505050565b60008251610fcd818460208701610bb7565b9190910192915050565b634e487b7160e01b600052601160045260246000fd5b600060001982141561100157611001610fd7565b5060010190565b60008282101561101a5761101a610fd7565b500390565b60208082526023908201527f53656e64657220646f65736e2774206f776e2074686520636f6c6c65637469626040820152626c652160e81b606082015260800190565b60008651611074818460208b01610bb7565b606087901b6bffffffffffffffffffffffff191690830190815285516110a1816014840160208a01610bb7565b01601481019490945250506034820152605401939250505056fea26469706673582212207fa6216a1139a47049f77043b29ccd60d1ffa9d8fca71fdd0697061475e4751664736f6c634300080c0033",
  "immutableReferences": {},
  "source": "// SPDX-License-Identifier: MIT\r\n\r\npragma solidity ^0.8.0;\r\n\r\n// I used a similar approach that ERC721 token has but I didn't\r\n// exactly inherited it to my implementation since this token won't\r\n// be used in a production environment.\r\n\r\ncontract CollectibleToken {\r\n    struct Collectible {\r\n        string tokenURI;\r\n        address creator;\r\n        address ownerAddress;\r\n        bytes32 collectibleHash;\r\n        string collectibleDescription;\r\n        uint256 lastTokenPrice;\r\n    }\r\n\r\n    uint256 public tokenCounter;\r\n    uint256 public transactionFee;\r\n\r\n    mapping(uint256 => Collectible) public collectibles;\r\n    mapping(uint256 => address) public collectibleOwners;\r\n    mapping(string => uint256) public collectibleURIs;\r\n    mapping(uint256 => bool) public availableToTradeCollectibles;\r\n    mapping(uint256 => bool) public burnedCollectibles;\r\n\r\n    //ERC721(\"berkcoin\", \"BERK\")\r\n    constructor() {\r\n        tokenCounter = 1;\r\n        transactionFee = 10000;\r\n    }\r\n\r\n    function createNewCollectible(\r\n        string memory tokenURI,\r\n        string memory description,\r\n        uint256 price,\r\n        address owner,\r\n        bool isAvailableToTrade\r\n    ) public {\r\n        require(collectibleURIs[tokenURI] == 0, \"Token URI is already owned!\");\r\n\r\n        bytes32 computedHash = calculateCollectibleHash(\r\n            tokenURI,\r\n            description,\r\n            price,\r\n            owner\r\n        );\r\n        collectibles[tokenCounter] = Collectible(\r\n            tokenURI,\r\n            owner,\r\n            owner,\r\n            computedHash,\r\n            description,\r\n            price\r\n        );\r\n        availableToTradeCollectibles[tokenCounter] = isAvailableToTrade;\r\n        collectibleURIs[tokenURI] = tokenCounter;\r\n        collectibleOwners[tokenCounter++] = owner;\r\n\r\n        emit NewCollectible(owner, tokenCounter - 1);\r\n    }\r\n\r\n    function calculateCollectibleHash(\r\n        string memory tokenURI,\r\n        string memory description,\r\n        uint256 price,\r\n        address owner\r\n    ) private view returns (bytes32) {\r\n        return\r\n            keccak256(\r\n                abi.encodePacked(\r\n                    tokenURI,\r\n                    owner,\r\n                    description,\r\n                    price,\r\n                    tokenCounter\r\n                )\r\n            );\r\n    }\r\n\r\n    function transferCollectible(address to, uint256 tokenID) public {\r\n        address oldOwner = collectibleOwners[tokenID];\r\n        collectibleOwners[tokenID] = to;\r\n        collectibles[tokenID].ownerAddress = to;\r\n\r\n        emit CollectibleTransfer(oldOwner, to, tokenID);\r\n    }\r\n\r\n    function burnCollectible(uint256 tokenID, address sender) public {\r\n        require(\r\n            collectibles[tokenID].ownerAddress == sender,\r\n            \"Sender must be the owner of the collectibe!\"\r\n        );\r\n        collectibleURIs[collectibles[tokenID].tokenURI] = 0;\r\n        collectibleOwners[tokenID] = address(0);\r\n        burnedCollectibles[tokenID] = true;\r\n    }\r\n\r\n    function setPriceOfCollectible(\r\n        address owner,\r\n        uint256 tokenID,\r\n        uint256 price\r\n    ) public {\r\n        require(\r\n            collectibleOwners[tokenID] == owner,\r\n            \"Sender doesn't own the collectible!\"\r\n        );\r\n        collectibles[tokenID].lastTokenPrice = price;\r\n\r\n        emit NewCollectiblePrice(tokenID, price);\r\n    }\r\n\r\n    function setAvailabilityOfCollectible(\r\n        address owner,\r\n        uint256 tokenID,\r\n        bool availability\r\n    ) public {\r\n        require(\r\n            collectibleOwners[tokenID] == owner,\r\n            \"Sender doesn't own the collectible!\"\r\n        );\r\n        availableToTradeCollectibles[tokenID] = availability;\r\n\r\n        emit NewAvailabilityStatus(tokenID, availability);\r\n    }\r\n\r\n    // View Collectible Info\r\n\r\n    // The burned collectibles will have an address of 0x0..\r\n    function getAccessibility(uint256 tokenID) public view returns (bool) {\r\n        return !burnedCollectibles[tokenID];\r\n    }\r\n\r\n    function getTokenURI(uint256 tokenID) public view returns (string memory) {\r\n        return collectibles[tokenID].tokenURI;\r\n    }\r\n\r\n    function getTokenCreator(uint256 tokenID) public view returns (address) {\r\n        return collectibles[tokenID].creator;\r\n    }\r\n\r\n    function getTokenOwner(uint256 tokenID) public view returns (address) {\r\n        return collectibleOwners[tokenID];\r\n    }\r\n\r\n    function getTokenHash(uint256 tokenID) public view returns (bytes32) {\r\n        return collectibles[tokenID].collectibleHash;\r\n    }\r\n\r\n    function getTokenDescription(uint256 tokenID)\r\n        public\r\n        view\r\n        returns (string memory)\r\n    {\r\n        return collectibles[tokenID].collectibleDescription;\r\n    }\r\n\r\n    function getPriceOfCollectible(uint256 tokenID)\r\n        public\r\n        view\r\n        returns (uint256)\r\n    {\r\n        return collectibles[tokenID].lastTokenPrice;\r\n    }\r\n\r\n    function getAvailabilityOfToken(uint256 tokenID)\r\n        public\r\n        view\r\n        returns (bool)\r\n    {\r\n        return availableToTradeCollectibles[tokenID];\r\n    }\r\n\r\n    function getTokenCount() public view returns (uint256) {\r\n        return tokenCounter - 1;\r\n    }\r\n\r\n    function getTransactionFee() public view returns (uint256) {\r\n        return transactionFee;\r\n    }\r\n\r\n    event NewCollectible(address from, uint256 tokendID);\r\n\r\n    event CollectibleTransfer(address from, address to, uint256 tokendID);\r\n\r\n    event NewCollectiblePrice(uint256 tokenID, uint256 price);\r\n\r\n    event NewAvailabilityStatus(uint256 tokenID, bool availability);\r\n}\r\n",
  "sourcePath": "C:\\Users\\Berk\\Desktop\\GitHub Project Repositories\\berkcoin\\dapp\\contracts\\CollectibleToken.sol",
  "compiler": {
    "name": "solc",
    "version": "0.8.12+commit.f00d7308.Emscripten.clang"
  },
  "schemaVersion": "3.4.4",
  "updatedAt": "2022-02-19T10:53:41.155Z",
  "networkType": "ethereum",
  "devdoc": {
    "kind": "dev",
    "methods": {},
    "version": 1
  },
  "userdoc": {
    "kind": "user",
    "methods": {},
    "version": 1
  }
}