{
  "contractName": "CollectibleToken",
  "abi": [
    {
      "inputs": [],
      "stateMutability": "nonpayable",
      "type": "constructor"
    },
    {
      "anonymous": false,
      "inputs": [
        {
          "indexed": false,
          "internalType": "address",
          "name": "from",
          "type": "address"
        },
        {
          "indexed": false,
          "internalType": "address",
          "name": "to",
          "type": "address"
        },
        {
          "indexed": false,
          "internalType": "uint256",
          "name": "tokendID",
          "type": "uint256"
        }
      ],
      "name": "CollectibleTransfer",
      "type": "event"
    },
    {
      "anonymous": false,
      "inputs": [
        {
          "indexed": false,
          "internalType": "uint256",
          "name": "tokenID",
          "type": "uint256"
        },
        {
          "indexed": false,
          "internalType": "bool",
          "name": "availability",
          "type": "bool"
        }
      ],
      "name": "NewAvailabilityStatus",
      "type": "event"
    },
    {
      "anonymous": false,
      "inputs": [
        {
          "indexed": false,
          "internalType": "address",
          "name": "from",
          "type": "address"
        },
        {
          "indexed": false,
          "internalType": "uint256",
          "name": "tokendID",
          "type": "uint256"
        }
      ],
      "name": "NewCollectible",
      "type": "event"
    },
    {
      "anonymous": false,
      "inputs": [
        {
          "indexed": false,
          "internalType": "uint256",
          "name": "tokenID",
          "type": "uint256"
        },
        {
          "indexed": false,
          "internalType": "uint256",
          "name": "price",
          "type": "uint256"
        }
      ],
      "name": "NewCollectiblePrice",
      "type": "event"
    },
    {
      "inputs": [
        {
          "internalType": "uint256",
          "name": "",
          "type": "uint256"
        }
      ],
      "name": "availableToTradeCollectibles",
      "outputs": [
        {
          "internalType": "bool",
          "name": "",
          "type": "bool"
        }
      ],
      "stateMutability": "view",
      "type": "function",
      "constant": true
    },
    {
      "inputs": [
        {
          "internalType": "uint256",
          "name": "",
          "type": "uint256"
        }
      ],
      "name": "collectibleOwners",
      "outputs": [
        {
          "internalType": "address",
          "name": "",
          "type": "address"
        }
      ],
      "stateMutability": "view",
      "type": "function",
      "constant": true
    },
    {
      "inputs": [
        {
          "internalType": "string",
          "name": "",
          "type": "string"
        }
      ],
      "name": "collectibleURIs",
      "outputs": [
        {
          "internalType": "uint256",
          "name": "",
          "type": "uint256"
        }
      ],
      "stateMutability": "view",
      "type": "function",
      "constant": true
    },
    {
      "inputs": [
        {
          "internalType": "uint256",
          "name": "",
          "type": "uint256"
        }
      ],
      "name": "collectibles",
      "outputs": [
        {
          "internalType": "string",
          "name": "tokenURI",
          "type": "string"
        },
        {
          "internalType": "address",
          "name": "creator",
          "type": "address"
        },
        {
          "internalType": "address",
          "name": "ownerAddress",
          "type": "address"
        },
        {
          "internalType": "bytes32",
          "name": "collectibleHash",
          "type": "bytes32"
        },
        {
          "internalType": "string",
          "name": "collectibleDescription",
          "type": "string"
        },
        {
          "internalType": "uint256",
          "name": "lastTokenPrice",
          "type": "uint256"
        }
      ],
      "stateMutability": "view",
      "type": "function",
      "constant": true
    },
    {
      "inputs": [],
      "name": "tokenCounter",
      "outputs": [
        {
          "internalType": "uint256",
          "name": "",
          "type": "uint256"
        }
      ],
      "stateMutability": "view",
      "type": "function",
      "constant": true
    },
    {
      "inputs": [],
      "name": "transactionFee",
      "outputs": [
        {
          "internalType": "uint256",
          "name": "",
          "type": "uint256"
        }
      ],
      "stateMutability": "view",
      "type": "function",
      "constant": true
    },
    {
      "inputs": [
        {
          "internalType": "string",
          "name": "tokenURI",
          "type": "string"
        },
        {
          "internalType": "string",
          "name": "description",
          "type": "string"
        },
        {
          "internalType": "uint256",
          "name": "price",
          "type": "uint256"
        },
        {
          "internalType": "address",
          "name": "owner",
          "type": "address"
        },
        {
          "internalType": "bool",
          "name": "isAvailableToTrade",
          "type": "bool"
        }
      ],
      "name": "createNewCollectible",
      "outputs": [],
      "stateMutability": "nonpayable",
      "type": "function"
    },
    {
      "inputs": [
        {
          "internalType": "address",
          "name": "to",
          "type": "address"
        },
        {
          "internalType": "uint256",
          "name": "tokenID",
          "type": "uint256"
        }
      ],
      "name": "transferCollectible",
      "outputs": [],
      "stateMutability": "nonpayable",
      "type": "function"
    },
    {
      "inputs": [
        {
          "internalType": "uint256",
          "name": "tokenID",
          "type": "uint256"
        },
        {
          "internalType": "address",
          "name": "sender",
          "type": "address"
        }
      ],
      "name": "burnCollectible",
      "outputs": [],
      "stateMutability": "nonpayable",
      "type": "function"
    },
    {
      "inputs": [
        {
          "internalType": "address",
          "name": "owner",
          "type": "address"
        },
        {
          "internalType": "uint256",
          "name": "tokenID",
          "type": "uint256"
        },
        {
          "internalType": "uint256",
          "name": "price",
          "type": "uint256"
        }
      ],
      "name": "setPriceOfCollectible",
      "outputs": [],
      "stateMutability": "nonpayable",
      "type": "function"
    },
    {
      "inputs": [
        {
          "internalType": "address",
          "name": "owner",
          "type": "address"
        },
        {
          "internalType": "uint256",
          "name": "tokenID",
          "type": "uint256"
        },
        {
          "internalType": "bool",
          "name": "availability",
          "type": "bool"
        }
      ],
      "name": "setAvailabilityOfCollectible",
      "outputs": [],
      "stateMutability": "nonpayable",
      "type": "function"
    },
    {
      "inputs": [
        {
          "internalType": "uint256",
          "name": "tokenID",
          "type": "uint256"
        }
      ],
      "name": "getAccessibility",
      "outputs": [
        {
          "internalType": "bool",
          "name": "",
          "type": "bool"
        }
      ],
      "stateMutability": "view",
      "type": "function",
      "constant": true
    },
    {
      "inputs": [
        {
          "internalType": "uint256",
          "name": "tokenID",
          "type": "uint256"
        }
      ],
      "name": "getTokenURI",
      "outputs": [
        {
          "internalType": "string",
          "name": "",
          "type": "string"
        }
      ],
      "stateMutability": "view",
      "type": "function",
      "constant": true
    },
    {
      "inputs": [
        {
          "internalType": "uint256",
          "name": "tokenID",
          "type": "uint256"
        }
      ],
      "name": "getTokenCreator",
      "outputs": [
        {
          "internalType": "address",
          "name": "",
          "type": "address"
        }
      ],
      "stateMutability": "view",
      "type": "function",
      "constant": true
    },
    {
      "inputs": [
        {
          "internalType": "uint256",
          "name": "tokenID",
          "type": "uint256"
        }
      ],
      "name": "getTokenOwner",
      "outputs": [
        {
          "internalType": "address",
          "name": "",
          "type": "address"
        }
      ],
      "stateMutability": "view",
      "type": "function",
      "constant": true
    },
    {
      "inputs": [
        {
          "internalType": "uint256",
          "name": "tokenID",
          "type": "uint256"
        }
      ],
      "name": "getTokenHash",
      "outputs": [
        {
          "internalType": "bytes32",
          "name": "",
          "type": "bytes32"
        }
      ],
      "stateMutability": "view",
      "type": "function",
      "constant": true
    },
    {
      "inputs": [
        {
          "internalType": "uint256",
          "name": "tokenID",
          "type": "uint256"
        }
      ],
      "name": "getTokenDescription",
      "outputs": [
        {
          "internalType": "string",
          "name": "",
          "type": "string"
        }
      ],
      "stateMutability": "view",
      "type": "function",
      "constant": true
    },
    {
      "inputs": [
        {
          "internalType": "uint256",
          "name": "tokenID",
          "type": "uint256"
        }
      ],
      "name": "getPriceOfCollectible",
      "outputs": [
        {
          "internalType": "uint256",
          "name": "",
          "type": "uint256"
        }
      ],
      "stateMutability": "view",
      "type": "function",
      "constant": true
    },
    {
      "inputs": [
        {
          "internalType": "uint256",
          "name": "tokenID",
          "type": "uint256"
        }
      ],
      "name": "getAvailabilityOfToken",
      "outputs": [
        {
          "internalType": "bool",
          "name": "",
          "type": "bool"
        }
      ],
      "stateMutability": "view",
      "type": "function",
      "constant": true
    },
    {
      "inputs": [],
      "name": "getTokenCount",
      "outputs": [
        {
          "internalType": "uint256",
          "name": "",
          "type": "uint256"
        }
      ],
      "stateMutability": "view",
      "type": "function",
      "constant": true
    },
    {
      "inputs": [],
      "name": "getTransactionFee",
      "outputs": [
        {
          "internalType": "uint256",
          "name": "",
          "type": "uint256"
        }
      ],
      "stateMutability": "view",
      "type": "function",
      "constant": true
    }
  ],
  "bytecode": "0x608060405234801561001057600080fd5b506001600081905561271090556110cf8061002c6000396000f3fe608060405234801561001057600080fd5b50600436106101375760003560e01c806385d79102116100b8578063a5cd761f1161007c578063a5cd761f14610320578063addbf70314610349578063b3154c081461035c578063d082e3811461036f578063f7ebefc814610378578063fbb5b35f1461038b57600080fd5b806385d791021461029d578063934689a9146102a55780639ea2d712146102d15780639ed3edf0146102f4578063a0cc0dc5146102fd57600080fd5b80634de26211116100ff5780634de26211146102195780635e725c741461024c57806368aaca9b1461025f578063741c9af21461028257806378a895671461029557600080fd5b80630a09859d1461013c5780633bb3a24d1461016a578063411ba2351461018a578063412838a7146101c35780634b387691146101d8575b600080fd5b61014f61014a366004610b81565b61039e565b60405161016196959493929190610bf6565b60405180910390f35b61017d610178366004610b81565b6104f3565b6040516101619190610c4d565b6101b5610198366004610d0a565b805160208183018101805160048252928201919093012091525481565b604051908152602001610161565b6101d66101d1366004610d5e565b610595565b005b6102016101e6366004610b81565b6003602052600090815260409020546001600160a01b031681565b6040516001600160a01b039091168152602001610161565b61023c610227366004610b81565b60009081526005602052604090205460ff1690565b6040519015158152602001610161565b6101d661025a366004610d9a565b61066a565b6101b561026d366004610b81565b60009081526002602052604090206005015490565b6101d6610290366004610e29565b6108a6565b6101b5610932565b6001546101b5565b6102016102b3366004610b81565b6000908152600260205260409020600101546001600160a01b031690565b61023c6102df366004610b81565b60056020526000908152604090205460ff1681565b6101b560015481565b6101b561030b366004610b81565b60009081526002602052604090206003015490565b61020161032e366004610b81565b6000908152600360205260409020546001600160a01b031690565b61023c610357366004610b81565b610948565b61017d61036a366004610b81565b61097c565b6101b560005481565b6101d6610386366004610e53565b61099c565b6101d6610399366004610e8f565b610a27565b6002602052600090815260409020805481906103b990610ec2565b80601f01602080910402602001604051908101604052809291908181526020018280546103e590610ec2565b80156104325780601f1061040757610100808354040283529160200191610432565b820191906000526020600020905b81548152906001019060200180831161041557829003601f168201915b5050505060018301546002840154600385015460048601805495966001600160a01b0394851696949093169450909261046a90610ec2565b80601f016020809104026020016040519081016040528092919081815260200182805461049690610ec2565b80156104e35780601f106104b8576101008083540402835291602001916104e3565b820191906000526020600020905b8154815290600101906020018083116104c657829003601f168201915b5050505050908060050154905086565b600081815260026020526040902080546060919061051090610ec2565b80601f016020809104026020016040519081016040528092919081815260200182805461053c90610ec2565b80156105895780601f1061055e57610100808354040283529160200191610589565b820191906000526020600020905b81548152906001019060200180831161056c57829003601f168201915b50505050509050919050565b600082815260026020819052604090912001546001600160a01b0382811691161461061b5760405162461bcd60e51b815260206004820152602b60248201527f53656e646572206d75737420626520746865206f776e6572206f66207468652060448201526a636f6c6c6563746962652160a81b60648201526084015b60405180910390fd5b600082815260026020526040808220905160049161063891610efd565b90815260408051602092819003830190209290925560009384526003905290912080546001600160a01b031916905550565b60048560405161067a9190610f99565b9081526020016040518091039020546000146106d85760405162461bcd60e51b815260206004820152601b60248201527f546f6b656e2055524920697320616c7265616479206f776e65642100000000006044820152606401610612565b60006106e686868686610aab565b90506040518060c00160405280878152602001846001600160a01b03168152602001846001600160a01b031681526020018281526020018681526020018581525060026000805481526020019081526020016000206000820151816000019080519060200190610757929190610ae8565b506020828101516001830180546001600160a01b039283166001600160a01b031991821617909155604085015160028501805491909316911617905560608301516003830155608083015180516107b49260048501920190610ae8565b5060a091909101516005918201556000805481526020919091526040808220805460ff1916851515179055905490516004906107f1908990610f99565b90815260405190819003602001902055600080548491600391818061081583610fcb565b91905055815260200190815260200160002060006101000a8154816001600160a01b0302191690836001600160a01b031602179055507ff87fe3264c3638b723b4ec8d76ef1445bea00685c4b9920442f5f2aa1c26732783600160005461087c9190610fe6565b604080516001600160a01b03909316835260208301919091520160405180910390a1505050505050565b600081815260036020908152604080832080546001600160a01b03198082166001600160a01b0389811691821790945560028087529685902090960180549091168617905582519116808252928101939093528201839052907ff0f62f5e6af9b2c898cea739cd3c2921ac2f36806004128640c6da4181011165906060015b60405180910390a1505050565b600060016000546109439190610fe6565b905090565b6000818152600260208190526040822001546001600160a01b031661096f57506000919050565b506001919050565b919050565b600081815260026020526040902060040180546060919061051090610ec2565b6000828152600360205260409020546001600160a01b038481169116146109d55760405162461bcd60e51b815260040161061290610ffd565b600082815260056020908152604091829020805460ff19168415159081179091558251858152918201527fbceceaa2f706c5eea8eca58ad8fe1aac1d7edb16d9d4ef2e0ef8ed5237b9c3839101610925565b6000828152600360205260409020546001600160a01b03848116911614610a605760405162461bcd60e51b815260040161061290610ffd565b60008281526002602090815260409182902060050183905581518481529081018390527f6ef3bcfe7975df410c416dd608ae52ef55dc72f285111bc824da7962531f2df19101610925565b600084828585600054604051602001610ac8959493929190611040565b604051602081830303815290604052805190602001209050949350505050565b828054610af490610ec2565b90600052602060002090601f016020900481019282610b165760008555610b5c565b82601f10610b2f57805160ff1916838001178555610b5c565b82800160010185558215610b5c579182015b82811115610b5c578251825591602001919060010190610b41565b50610b68929150610b6c565b5090565b5b80821115610b685760008155600101610b6d565b600060208284031215610b9357600080fd5b5035919050565b60005b83811015610bb5578181015183820152602001610b9d565b83811115610bc4576000848401525b50505050565b60008151808452610be2816020860160208601610b9a565b601f01601f19169290920160200192915050565b60c081526000610c0960c0830189610bca565b6001600160a01b03888116602085015287166040840152606083018690528281036080840152610c398186610bca565b9150508260a0830152979650505050505050565b602081526000610c606020830184610bca565b9392505050565b634e487b7160e01b600052604160045260246000fd5b600082601f830112610c8e57600080fd5b813567ffffffffffffffff80821115610ca957610ca9610c67565b604051601f8301601f19908116603f01168101908282118183101715610cd157610cd1610c67565b81604052838152866020858801011115610cea57600080fd5b836020870160208301376000602085830101528094505050505092915050565b600060208284031215610d1c57600080fd5b813567ffffffffffffffff811115610d3357600080fd5b610d3f84828501610c7d565b949350505050565b80356001600160a01b038116811461097757600080fd5b60008060408385031215610d7157600080fd5b82359150610d8160208401610d47565b90509250929050565b8035801515811461097757600080fd5b600080600080600060a08688031215610db257600080fd5b853567ffffffffffffffff80821115610dca57600080fd5b610dd689838a01610c7d565b96506020880135915080821115610dec57600080fd5b50610df988828901610c7d565b94505060408601359250610e0f60608701610d47565b9150610e1d60808701610d8a565b90509295509295909350565b60008060408385031215610e3c57600080fd5b610e4583610d47565b946020939093013593505050565b600080600060608486031215610e6857600080fd5b610e7184610d47565b925060208401359150610e8660408501610d8a565b90509250925092565b600080600060608486031215610ea457600080fd5b610ead84610d47565b95602085013595506040909401359392505050565b600181811c90821680610ed657607f821691505b60208210811415610ef757634e487b7160e01b600052602260045260246000fd5b50919050565b600080835481600182811c915080831680610f1957607f831692505b6020808410821415610f3957634e487b7160e01b86526022600452602486fd5b818015610f4d5760018114610f5e57610f8b565b60ff19861689528489019650610f8b565b60008a81526020902060005b86811015610f835781548b820152908501908301610f6a565b505084890196505b509498975050505050505050565b60008251610fab818460208701610b9a565b9190910192915050565b634e487b7160e01b600052601160045260246000fd5b6000600019821415610fdf57610fdf610fb5565b5060010190565b600082821015610ff857610ff8610fb5565b500390565b60208082526023908201527f53656e64657220646f65736e2774206f776e2074686520636f6c6c65637469626040820152626c652160e81b606082015260800190565b60008651611052818460208b01610b9a565b606087901b6bffffffffffffffffffffffff1916908301908152855161107f816014840160208a01610b9a565b01601481019490945250506034820152605401939250505056fea264697066735822122080d21032609d49c1916674f6d5236719f4e576f25e906dc173474254b703308364736f6c634300080c0033",
  "immutableReferences": {},
  "source": "// SPDX-License-Identifier: MIT\r\n\r\npragma solidity ^0.8.0;\r\n\r\n// I used a similar approach that ERC721 token has but I didn't\r\n// exactly inherited it to my implementation since this token won't\r\n// be used in a production environment.\r\n\r\ncontract CollectibleToken {\r\n    struct Collectible {\r\n        string tokenURI;\r\n        address creator;\r\n        address ownerAddress;\r\n        bytes32 collectibleHash;\r\n        string collectibleDescription;\r\n        uint256 lastTokenPrice;\r\n    }\r\n\r\n    uint256 public tokenCounter;\r\n    uint256 public transactionFee;\r\n\r\n    mapping(uint256 => Collectible) public collectibles;\r\n    mapping(uint256 => address) public collectibleOwners;\r\n    mapping(string => uint256) public collectibleURIs;\r\n    mapping(uint256 => bool) public availableToTradeCollectibles;\r\n\r\n    //ERC721(\"berkcoin\", \"BERK\")\r\n    constructor() {\r\n        tokenCounter = 1;\r\n        transactionFee = 10000;\r\n    }\r\n\r\n    function createNewCollectible(\r\n        string memory tokenURI,\r\n        string memory description,\r\n        uint256 price,\r\n        address owner,\r\n        bool isAvailableToTrade\r\n    ) public {\r\n        require(collectibleURIs[tokenURI] == 0, \"Token URI is already owned!\");\r\n\r\n        bytes32 computedHash = calculateCollectibleHash(\r\n            tokenURI,\r\n            description,\r\n            price,\r\n            owner\r\n        );\r\n        collectibles[tokenCounter] = Collectible(\r\n            tokenURI,\r\n            owner,\r\n            owner,\r\n            computedHash,\r\n            description,\r\n            price\r\n        );\r\n        availableToTradeCollectibles[tokenCounter] = isAvailableToTrade;\r\n        collectibleURIs[tokenURI] = tokenCounter;\r\n        collectibleOwners[tokenCounter++] = owner;\r\n\r\n        emit NewCollectible(owner, tokenCounter - 1);\r\n    }\r\n\r\n    function calculateCollectibleHash(\r\n        string memory tokenURI,\r\n        string memory description,\r\n        uint256 price,\r\n        address owner\r\n    ) private view returns (bytes32) {\r\n        return\r\n            keccak256(\r\n                abi.encodePacked(\r\n                    tokenURI,\r\n                    owner,\r\n                    description,\r\n                    price,\r\n                    tokenCounter\r\n                )\r\n            );\r\n    }\r\n\r\n    function transferCollectible(address to, uint256 tokenID) public {\r\n        address oldOwner = collectibleOwners[tokenID];\r\n        collectibleOwners[tokenID] = to;\r\n        collectibles[tokenID].ownerAddress = to;\r\n\r\n        emit CollectibleTransfer(oldOwner, to, tokenID);\r\n    }\r\n\r\n    function burnCollectible(uint256 tokenID, address sender) public {\r\n        require(\r\n            collectibles[tokenID].ownerAddress == sender,\r\n            \"Sender must be the owner of the collectibe!\"\r\n        );\r\n        collectibleURIs[collectibles[tokenID].tokenURI] = 0;\r\n        collectibleOwners[tokenID] = address(0);\r\n    }\r\n\r\n    function setPriceOfCollectible(\r\n        address owner,\r\n        uint256 tokenID,\r\n        uint256 price\r\n    ) public {\r\n        require(\r\n            collectibleOwners[tokenID] == owner,\r\n            \"Sender doesn't own the collectible!\"\r\n        );\r\n        collectibles[tokenID].lastTokenPrice = price;\r\n\r\n        emit NewCollectiblePrice(tokenID, price);\r\n    }\r\n\r\n    function setAvailabilityOfCollectible(\r\n        address owner,\r\n        uint256 tokenID,\r\n        bool availability\r\n    ) public {\r\n        require(\r\n            collectibleOwners[tokenID] == owner,\r\n            \"Sender doesn't own the collectible!\"\r\n        );\r\n        availableToTradeCollectibles[tokenID] = availability;\r\n\r\n        emit NewAvailabilityStatus(tokenID, availability);\r\n    }\r\n\r\n    // View Collectible Info\r\n\r\n    // The burned collectibles will have an address of 0x0..\r\n    function getAccessibility(uint256 tokenID) public view returns (bool) {\r\n        if (\r\n            collectibles[tokenID].ownerAddress ==\r\n            address(0x0000000000000000000000000000000000000000)\r\n        ) {\r\n            return false;\r\n        } else {\r\n            return true;\r\n        }\r\n    }\r\n\r\n    function getTokenURI(uint256 tokenID) public view returns (string memory) {\r\n        return collectibles[tokenID].tokenURI;\r\n    }\r\n\r\n    function getTokenCreator(uint256 tokenID) public view returns (address) {\r\n        return collectibles[tokenID].creator;\r\n    }\r\n\r\n    function getTokenOwner(uint256 tokenID) public view returns (address) {\r\n        return collectibleOwners[tokenID];\r\n    }\r\n\r\n    function getTokenHash(uint256 tokenID) public view returns (bytes32) {\r\n        return collectibles[tokenID].collectibleHash;\r\n    }\r\n\r\n    function getTokenDescription(uint256 tokenID)\r\n        public\r\n        view\r\n        returns (string memory)\r\n    {\r\n        return collectibles[tokenID].collectibleDescription;\r\n    }\r\n\r\n    function getPriceOfCollectible(uint256 tokenID)\r\n        public\r\n        view\r\n        returns (uint256)\r\n    {\r\n        return collectibles[tokenID].lastTokenPrice;\r\n    }\r\n\r\n    function getAvailabilityOfToken(uint256 tokenID)\r\n        public\r\n        view\r\n        returns (bool)\r\n    {\r\n        return availableToTradeCollectibles[tokenID];\r\n    }\r\n\r\n    function getTokenCount() public view returns (uint256) {\r\n        return tokenCounter - 1;\r\n    }\r\n\r\n    function getTransactionFee() public view returns (uint256) {\r\n        return transactionFee;\r\n    }\r\n\r\n    event NewCollectible(address from, uint256 tokendID);\r\n\r\n    event CollectibleTransfer(address from, address to, uint256 tokendID);\r\n\r\n    event NewCollectiblePrice(uint256 tokenID, uint256 price);\r\n\r\n    event NewAvailabilityStatus(uint256 tokenID, bool availability);\r\n}\r\n",
  "sourcePath": "C:\\Users\\Berk\\Desktop\\GitHub Project Repositories\\berkcoin\\dapp\\contracts\\CollectibleToken.sol",
  "compiler": {
    "name": "solc",
    "version": "0.8.12+commit.f00d7308.Emscripten.clang"
  },
  "schemaVersion": "3.4.4",
  "updatedAt": "2022-02-19T10:07:20.537Z",
  "networkType": "ethereum",
  "devdoc": {
    "kind": "dev",
    "methods": {},
    "version": 1
  },
  "userdoc": {
    "kind": "user",
    "methods": {},
    "version": 1
  }
}