{
  "contractName": "CollectibleToken",
  "abi": [
    {
      "inputs": [],
      "stateMutability": "nonpayable",
      "type": "constructor"
    },
    {
      "anonymous": false,
      "inputs": [
        {
          "indexed": false,
          "internalType": "address",
          "name": "from",
          "type": "address"
        },
        {
          "indexed": false,
          "internalType": "address",
          "name": "to",
          "type": "address"
        },
        {
          "indexed": false,
          "internalType": "uint256",
          "name": "tokendID",
          "type": "uint256"
        }
      ],
      "name": "CollectibleTransfer",
      "type": "event"
    },
    {
      "anonymous": false,
      "inputs": [
        {
          "indexed": false,
          "internalType": "address",
          "name": "from",
          "type": "address"
        },
        {
          "indexed": false,
          "internalType": "uint256",
          "name": "tokendID",
          "type": "uint256"
        }
      ],
      "name": "NewCollectible",
      "type": "event"
    },
    {
      "anonymous": false,
      "inputs": [
        {
          "indexed": false,
          "internalType": "uint256",
          "name": "tokenID",
          "type": "uint256"
        },
        {
          "indexed": false,
          "internalType": "uint256",
          "name": "price",
          "type": "uint256"
        }
      ],
      "name": "NewCollectiblePrice",
      "type": "event"
    },
    {
      "inputs": [
        {
          "internalType": "uint256",
          "name": "",
          "type": "uint256"
        }
      ],
      "name": "collectibleOwners",
      "outputs": [
        {
          "internalType": "address",
          "name": "",
          "type": "address"
        }
      ],
      "stateMutability": "view",
      "type": "function",
      "constant": true
    },
    {
      "inputs": [
        {
          "internalType": "string",
          "name": "",
          "type": "string"
        }
      ],
      "name": "collectibleURIs",
      "outputs": [
        {
          "internalType": "uint256",
          "name": "",
          "type": "uint256"
        }
      ],
      "stateMutability": "view",
      "type": "function",
      "constant": true
    },
    {
      "inputs": [
        {
          "internalType": "uint256",
          "name": "",
          "type": "uint256"
        }
      ],
      "name": "collectibles",
      "outputs": [
        {
          "internalType": "string",
          "name": "tokenURI",
          "type": "string"
        },
        {
          "internalType": "address",
          "name": "creator",
          "type": "address"
        },
        {
          "internalType": "address",
          "name": "ownerAddress",
          "type": "address"
        },
        {
          "internalType": "bytes32",
          "name": "collectibleHash",
          "type": "bytes32"
        },
        {
          "internalType": "string",
          "name": "collectibleDescription",
          "type": "string"
        },
        {
          "internalType": "uint256",
          "name": "lastTokenPrice",
          "type": "uint256"
        }
      ],
      "stateMutability": "view",
      "type": "function",
      "constant": true
    },
    {
      "inputs": [],
      "name": "tokenCounter",
      "outputs": [
        {
          "internalType": "uint256",
          "name": "",
          "type": "uint256"
        }
      ],
      "stateMutability": "view",
      "type": "function",
      "constant": true
    },
    {
      "inputs": [],
      "name": "transactionFee",
      "outputs": [
        {
          "internalType": "uint256",
          "name": "",
          "type": "uint256"
        }
      ],
      "stateMutability": "view",
      "type": "function",
      "constant": true
    },
    {
      "inputs": [
        {
          "internalType": "string",
          "name": "tokenURI",
          "type": "string"
        },
        {
          "internalType": "string",
          "name": "description",
          "type": "string"
        },
        {
          "internalType": "uint256",
          "name": "price",
          "type": "uint256"
        },
        {
          "internalType": "address",
          "name": "owner",
          "type": "address"
        }
      ],
      "name": "createNewCollectible",
      "outputs": [],
      "stateMutability": "nonpayable",
      "type": "function"
    },
    {
      "inputs": [
        {
          "internalType": "address",
          "name": "to",
          "type": "address"
        },
        {
          "internalType": "uint256",
          "name": "tokenID",
          "type": "uint256"
        }
      ],
      "name": "transferCollectible",
      "outputs": [],
      "stateMutability": "nonpayable",
      "type": "function"
    },
    {
      "inputs": [
        {
          "internalType": "address",
          "name": "owner",
          "type": "address"
        },
        {
          "internalType": "uint256",
          "name": "tokenID",
          "type": "uint256"
        },
        {
          "internalType": "uint256",
          "name": "price",
          "type": "uint256"
        }
      ],
      "name": "setPriceOfCollectible",
      "outputs": [],
      "stateMutability": "nonpayable",
      "type": "function"
    },
    {
      "inputs": [
        {
          "internalType": "uint256",
          "name": "tokenID",
          "type": "uint256"
        }
      ],
      "name": "getTokenURI",
      "outputs": [
        {
          "internalType": "string",
          "name": "",
          "type": "string"
        }
      ],
      "stateMutability": "view",
      "type": "function",
      "constant": true
    },
    {
      "inputs": [
        {
          "internalType": "uint256",
          "name": "tokenID",
          "type": "uint256"
        }
      ],
      "name": "getTokenCreator",
      "outputs": [
        {
          "internalType": "address",
          "name": "",
          "type": "address"
        }
      ],
      "stateMutability": "view",
      "type": "function",
      "constant": true
    },
    {
      "inputs": [
        {
          "internalType": "uint256",
          "name": "tokenID",
          "type": "uint256"
        }
      ],
      "name": "getTokenOwner",
      "outputs": [
        {
          "internalType": "address",
          "name": "",
          "type": "address"
        }
      ],
      "stateMutability": "view",
      "type": "function",
      "constant": true
    },
    {
      "inputs": [
        {
          "internalType": "uint256",
          "name": "tokenID",
          "type": "uint256"
        }
      ],
      "name": "getTokenHash",
      "outputs": [
        {
          "internalType": "bytes32",
          "name": "",
          "type": "bytes32"
        }
      ],
      "stateMutability": "view",
      "type": "function",
      "constant": true
    },
    {
      "inputs": [
        {
          "internalType": "uint256",
          "name": "tokenID",
          "type": "uint256"
        }
      ],
      "name": "getTokenDescription",
      "outputs": [
        {
          "internalType": "string",
          "name": "",
          "type": "string"
        }
      ],
      "stateMutability": "view",
      "type": "function",
      "constant": true
    },
    {
      "inputs": [
        {
          "internalType": "uint256",
          "name": "tokenID",
          "type": "uint256"
        }
      ],
      "name": "getPriceOfCollectible",
      "outputs": [
        {
          "internalType": "uint256",
          "name": "",
          "type": "uint256"
        }
      ],
      "stateMutability": "view",
      "type": "function",
      "constant": true
    },
    {
      "inputs": [],
      "name": "getTokenCount",
      "outputs": [
        {
          "internalType": "uint256",
          "name": "",
          "type": "uint256"
        }
      ],
      "stateMutability": "view",
      "type": "function",
      "constant": true
    },
    {
      "inputs": [],
      "name": "getTransactionFee",
      "outputs": [
        {
          "internalType": "uint256",
          "name": "",
          "type": "uint256"
        }
      ],
      "stateMutability": "view",
      "type": "function",
      "constant": true
    }
  ],
  "bytecode": "0x608060405234801561001057600080fd5b50600160008190556127109055610d368061002c6000396000f3fe608060405234801561001057600080fd5b50600436106101005760003560e01c806385d7910211610097578063a5cd761f11610066578063a5cd761f14610280578063b3154c08146102a9578063d082e381146102bc578063fbb5b35f146102c557600080fd5b806385d7910214610220578063934689a9146102285780639ed3edf014610254578063a0cc0dc51461025d57600080fd5b80635e47eae4116100d35780635e47eae4146101cd57806368aaca9b146101e2578063741c9af21461020557806378a895671461021857600080fd5b80630a09859d146101055780633bb3a24d14610133578063411ba235146101535780634b3876911461018c575b600080fd5b61011861011336600461094b565b6102d8565b60405161012a969594939291906109c0565b60405180910390f35b61014661014136600461094b565b61042d565b60405161012a9190610a17565b61017e610161366004610ad4565b805160208183018101805160048252928201919093012091525481565b60405190815260200161012a565b6101b561019a36600461094b565b6003602052600090815260409020546001600160a01b031681565b6040516001600160a01b03909116815260200161012a565b6101e06101db366004610b2d565b6104cf565b005b61017e6101f036600461094b565b60009081526002602052604090206005015490565b6101e0610213366004610bab565b6106f3565b61017e61077f565b60015461017e565b6101b561023636600461094b565b6000908152600260205260409020600101546001600160a01b031690565b61017e60015481565b61017e61026b36600461094b565b60009081526002602052604090206003015490565b6101b561028e36600461094b565b6000908152600360205260409020546001600160a01b031690565b6101466102b736600461094b565b610795565b61017e60005481565b6101e06102d3366004610bd5565b6107b5565b6002602052600090815260409020805481906102f390610c08565b80601f016020809104026020016040519081016040528092919081815260200182805461031f90610c08565b801561036c5780601f106103415761010080835404028352916020019161036c565b820191906000526020600020905b81548152906001019060200180831161034f57829003601f168201915b5050505060018301546002840154600385015460048601805495966001600160a01b039485169694909316945090926103a490610c08565b80601f01602080910402602001604051908101604052809291908181526020018280546103d090610c08565b801561041d5780601f106103f25761010080835404028352916020019161041d565b820191906000526020600020905b81548152906001019060200180831161040057829003601f168201915b5050505050908060050154905086565b600081815260026020526040902080546060919061044a90610c08565b80601f016020809104026020016040519081016040528092919081815260200182805461047690610c08565b80156104c35780601f10610498576101008083540402835291602001916104c3565b820191906000526020600020905b8154815290600101906020018083116104a657829003601f168201915b50505050509050919050565b6004846040516104df9190610c43565b9081526020016040518091039020546000146105425760405162461bcd60e51b815260206004820152601b60248201527f546f6b656e2055524920697320616c7265616479206f776e656421000000000060448201526064015b60405180910390fd5b600061055085858585610875565b90506040518060c00160405280868152602001836001600160a01b03168152602001836001600160a01b0316815260200182815260200185815260200184815250600260008054815260200190815260200160002060008201518160000190805190602001906105c19291906108b2565b506020828101516001830180546001600160a01b039283166001600160a01b0319918216179091556040850151600285018054919093169116179055606083015160038301556080830151805161061e92600485019201906108b2565b5060a0820151816005015590505060005460048660405161063f9190610c43565b90815260405190819003602001902055600080548391600391818061066383610c75565b91905055815260200190815260200160002060006101000a8154816001600160a01b0302191690836001600160a01b031602179055507ff87fe3264c3638b723b4ec8d76ef1445bea00685c4b9920442f5f2aa1c2673278260016000546106ca9190610c90565b604080516001600160a01b03909316835260208301919091520160405180910390a15050505050565b600081815260036020908152604080832080546001600160a01b03198082166001600160a01b0389811691821790945560028087529685902090960180549091168617905582519116808252928101939093528201839052907ff0f62f5e6af9b2c898cea739cd3c2921ac2f36806004128640c6da4181011165906060015b60405180910390a1505050565b600060016000546107909190610c90565b905090565b600081815260026020526040902060040180546060919061044a90610c08565b6000828152600360205260409020546001600160a01b0384811691161461082a5760405162461bcd60e51b815260206004820152602360248201527f53656e64657220646f65736e2774206f776e2074686520636f6c6c65637469626044820152626c652160e81b6064820152608401610539565b60008281526002602090815260409182902060050183905581518481529081018390527f6ef3bcfe7975df410c416dd608ae52ef55dc72f285111bc824da7962531f2df19101610772565b600084828585600054604051602001610892959493929190610ca7565b604051602081830303815290604052805190602001209050949350505050565b8280546108be90610c08565b90600052602060002090601f0160209004810192826108e05760008555610926565b82601f106108f957805160ff1916838001178555610926565b82800160010185558215610926579182015b8281111561092657825182559160200191906001019061090b565b50610932929150610936565b5090565b5b808211156109325760008155600101610937565b60006020828403121561095d57600080fd5b5035919050565b60005b8381101561097f578181015183820152602001610967565b8381111561098e576000848401525b50505050565b600081518084526109ac816020860160208601610964565b601f01601f19169290920160200192915050565b60c0815260006109d360c0830189610994565b6001600160a01b03888116602085015287166040840152606083018690528281036080840152610a038186610994565b9150508260a0830152979650505050505050565b602081526000610a2a6020830184610994565b9392505050565b634e487b7160e01b600052604160045260246000fd5b600082601f830112610a5857600080fd5b813567ffffffffffffffff80821115610a7357610a73610a31565b604051601f8301601f19908116603f01168101908282118183101715610a9b57610a9b610a31565b81604052838152866020858801011115610ab457600080fd5b836020870160208301376000602085830101528094505050505092915050565b600060208284031215610ae657600080fd5b813567ffffffffffffffff811115610afd57600080fd5b610b0984828501610a47565b949350505050565b80356001600160a01b0381168114610b2857600080fd5b919050565b60008060008060808587031215610b4357600080fd5b843567ffffffffffffffff80821115610b5b57600080fd5b610b6788838901610a47565b95506020870135915080821115610b7d57600080fd5b50610b8a87828801610a47565b93505060408501359150610ba060608601610b11565b905092959194509250565b60008060408385031215610bbe57600080fd5b610bc783610b11565b946020939093013593505050565b600080600060608486031215610bea57600080fd5b610bf384610b11565b95602085013595506040909401359392505050565b600181811c90821680610c1c57607f821691505b60208210811415610c3d57634e487b7160e01b600052602260045260246000fd5b50919050565b60008251610c55818460208701610964565b9190910192915050565b634e487b7160e01b600052601160045260246000fd5b6000600019821415610c8957610c89610c5f565b5060010190565b600082821015610ca257610ca2610c5f565b500390565b60008651610cb9818460208b01610964565b606087901b6bffffffffffffffffffffffff19169083019081528551610ce6816014840160208a01610964565b01601481019490945250506034820152605401939250505056fea2646970667358221220aeca3113ae427e3d297b5f72f7c6ce61e3dcede4f01e3a2b796b1079ab3c01ca64736f6c634300080c0033",
  "immutableReferences": {},
  "source": "// SPDX-License-Identifier: MIT\r\n\r\npragma solidity ^0.8.0;\r\n\r\n// import \"@openzeppelin/contracts/token/ERC721/ERC721.sol\";\r\n\r\ncontract CollectibleToken {\r\n    struct Collectible {\r\n        string tokenURI;\r\n        address creator;\r\n        address ownerAddress;\r\n        bytes32 collectibleHash;\r\n        string collectibleDescription;\r\n        uint256 lastTokenPrice;\r\n    }\r\n\r\n    uint256 public tokenCounter;\r\n    uint256 public transactionFee;\r\n\r\n    mapping(uint256 => Collectible) public collectibles;\r\n    mapping(uint256 => address) public collectibleOwners;\r\n    mapping(string => uint256) public collectibleURIs;\r\n\r\n    //ERC721(\"berkcoin\", \"BERK\")\r\n    constructor() {\r\n        tokenCounter = 1;\r\n        transactionFee = 10000;\r\n    }\r\n\r\n    function createNewCollectible(\r\n        string memory tokenURI,\r\n        string memory description,\r\n        uint256 price,\r\n        address owner\r\n    ) public {\r\n        require(collectibleURIs[tokenURI] == 0, \"Token URI is already owned!\");\r\n\r\n        bytes32 computedHash = calculateCollectibleHash(\r\n            tokenURI,\r\n            description,\r\n            price,\r\n            owner\r\n        );\r\n        collectibles[tokenCounter] = Collectible(\r\n            tokenURI,\r\n            owner,\r\n            owner,\r\n            computedHash,\r\n            description,\r\n            price\r\n        );\r\n        collectibleURIs[tokenURI] = tokenCounter;\r\n        collectibleOwners[tokenCounter++] = owner;\r\n\r\n        emit NewCollectible(owner, tokenCounter - 1);\r\n    }\r\n\r\n    function calculateCollectibleHash(\r\n        string memory tokenURI,\r\n        string memory description,\r\n        uint256 price,\r\n        address owner\r\n    ) private view returns (bytes32) {\r\n        return\r\n            keccak256(\r\n                abi.encodePacked(\r\n                    tokenURI,\r\n                    owner,\r\n                    description,\r\n                    price,\r\n                    tokenCounter\r\n                )\r\n            );\r\n    }\r\n\r\n    function transferCollectible(address to, uint256 tokenID) public {\r\n        address oldOwner = collectibleOwners[tokenID];\r\n        collectibleOwners[tokenID] = to;\r\n        collectibles[tokenID].ownerAddress = to;\r\n\r\n        emit CollectibleTransfer(oldOwner, to, tokenID);\r\n    }\r\n\r\n    function setPriceOfCollectible(\r\n        address owner,\r\n        uint256 tokenID,\r\n        uint256 price\r\n    ) public {\r\n        require(\r\n            collectibleOwners[tokenID] == owner,\r\n            \"Sender doesn't own the collectible!\"\r\n        );\r\n        collectibles[tokenID].lastTokenPrice = price;\r\n\r\n        emit NewCollectiblePrice(tokenID, price);\r\n    }\r\n\r\n    // View Collectible Info\r\n\r\n    function getTokenURI(uint256 tokenID) public view returns (string memory) {\r\n        return collectibles[tokenID].tokenURI;\r\n    }\r\n\r\n    function getTokenCreator(uint256 tokenID) public view returns (address) {\r\n        return collectibles[tokenID].creator;\r\n    }\r\n\r\n    function getTokenOwner(uint256 tokenID) public view returns (address) {\r\n        return collectibleOwners[tokenID];\r\n    }\r\n\r\n    function getTokenHash(uint256 tokenID) public view returns (bytes32) {\r\n        return collectibles[tokenID].collectibleHash;\r\n    }\r\n\r\n    function getTokenDescription(uint256 tokenID)\r\n        public\r\n        view\r\n        returns (string memory)\r\n    {\r\n        return collectibles[tokenID].collectibleDescription;\r\n    }\r\n\r\n    function getPriceOfCollectible(uint256 tokenID)\r\n        public\r\n        view\r\n        returns (uint256)\r\n    {\r\n        return collectibles[tokenID].lastTokenPrice;\r\n    }\r\n\r\n    function getTokenCount() public view returns (uint256) {\r\n        return tokenCounter - 1;\r\n    }\r\n\r\n    function getTransactionFee() public view returns (uint256) {\r\n        return transactionFee;\r\n    }\r\n\r\n    event NewCollectible(address from, uint256 tokendID);\r\n\r\n    event CollectibleTransfer(address from, address to, uint256 tokendID);\r\n\r\n    event NewCollectiblePrice(uint256 tokenID, uint256 price);\r\n}\r\n",
  "sourcePath": "C:\\Users\\Berk\\Desktop\\GitHub Project Repositories\\berkcoin\\dapp\\contracts\\CollectibleToken.sol",
  "compiler": {
    "name": "solc",
    "version": "0.8.12+commit.f00d7308.Emscripten.clang"
  },
  "schemaVersion": "3.4.4",
  "updatedAt": "2022-02-18T08:41:12.953Z",
  "networkType": "ethereum",
  "devdoc": {
    "kind": "dev",
    "methods": {},
    "version": 1
  },
  "userdoc": {
    "kind": "user",
    "methods": {},
    "version": 1
  }
}