{
  "contractName": "CollectibleToken",
  "abi": [
    {
      "inputs": [],
      "stateMutability": "nonpayable",
      "type": "constructor"
    },
    {
      "anonymous": false,
      "inputs": [
        {
          "indexed": false,
          "internalType": "address",
          "name": "from",
          "type": "address"
        },
        {
          "indexed": false,
          "internalType": "address",
          "name": "to",
          "type": "address"
        },
        {
          "indexed": false,
          "internalType": "uint256",
          "name": "tokendID",
          "type": "uint256"
        }
      ],
      "name": "CollectibleTransfer",
      "type": "event"
    },
    {
      "anonymous": false,
      "inputs": [
        {
          "indexed": false,
          "internalType": "uint256",
          "name": "tokenID",
          "type": "uint256"
        },
        {
          "indexed": false,
          "internalType": "bool",
          "name": "availability",
          "type": "bool"
        }
      ],
      "name": "NewAvailabilityStatus",
      "type": "event"
    },
    {
      "anonymous": false,
      "inputs": [
        {
          "indexed": false,
          "internalType": "address",
          "name": "from",
          "type": "address"
        },
        {
          "indexed": false,
          "internalType": "uint256",
          "name": "tokendID",
          "type": "uint256"
        }
      ],
      "name": "NewCollectible",
      "type": "event"
    },
    {
      "anonymous": false,
      "inputs": [
        {
          "indexed": false,
          "internalType": "uint256",
          "name": "tokenID",
          "type": "uint256"
        },
        {
          "indexed": false,
          "internalType": "uint256",
          "name": "price",
          "type": "uint256"
        }
      ],
      "name": "NewCollectiblePrice",
      "type": "event"
    },
    {
      "inputs": [
        {
          "internalType": "uint256",
          "name": "",
          "type": "uint256"
        }
      ],
      "name": "availableToTradeCollectibles",
      "outputs": [
        {
          "internalType": "bool",
          "name": "",
          "type": "bool"
        }
      ],
      "stateMutability": "view",
      "type": "function",
      "constant": true
    },
    {
      "inputs": [
        {
          "internalType": "uint256",
          "name": "",
          "type": "uint256"
        }
      ],
      "name": "collectibleOwners",
      "outputs": [
        {
          "internalType": "address",
          "name": "",
          "type": "address"
        }
      ],
      "stateMutability": "view",
      "type": "function",
      "constant": true
    },
    {
      "inputs": [
        {
          "internalType": "string",
          "name": "",
          "type": "string"
        }
      ],
      "name": "collectibleURIs",
      "outputs": [
        {
          "internalType": "uint256",
          "name": "",
          "type": "uint256"
        }
      ],
      "stateMutability": "view",
      "type": "function",
      "constant": true
    },
    {
      "inputs": [
        {
          "internalType": "uint256",
          "name": "",
          "type": "uint256"
        }
      ],
      "name": "collectibles",
      "outputs": [
        {
          "internalType": "string",
          "name": "tokenURI",
          "type": "string"
        },
        {
          "internalType": "address",
          "name": "creator",
          "type": "address"
        },
        {
          "internalType": "address",
          "name": "ownerAddress",
          "type": "address"
        },
        {
          "internalType": "bytes32",
          "name": "collectibleHash",
          "type": "bytes32"
        },
        {
          "internalType": "string",
          "name": "collectibleDescription",
          "type": "string"
        },
        {
          "internalType": "uint256",
          "name": "lastTokenPrice",
          "type": "uint256"
        }
      ],
      "stateMutability": "view",
      "type": "function",
      "constant": true
    },
    {
      "inputs": [],
      "name": "tokenCounter",
      "outputs": [
        {
          "internalType": "uint256",
          "name": "",
          "type": "uint256"
        }
      ],
      "stateMutability": "view",
      "type": "function",
      "constant": true
    },
    {
      "inputs": [],
      "name": "transactionFee",
      "outputs": [
        {
          "internalType": "uint256",
          "name": "",
          "type": "uint256"
        }
      ],
      "stateMutability": "view",
      "type": "function",
      "constant": true
    },
    {
      "inputs": [
        {
          "internalType": "string",
          "name": "tokenURI",
          "type": "string"
        },
        {
          "internalType": "string",
          "name": "description",
          "type": "string"
        },
        {
          "internalType": "uint256",
          "name": "price",
          "type": "uint256"
        },
        {
          "internalType": "address",
          "name": "owner",
          "type": "address"
        },
        {
          "internalType": "bool",
          "name": "isAvailableToTrade",
          "type": "bool"
        }
      ],
      "name": "createNewCollectible",
      "outputs": [],
      "stateMutability": "nonpayable",
      "type": "function"
    },
    {
      "inputs": [
        {
          "internalType": "address",
          "name": "to",
          "type": "address"
        },
        {
          "internalType": "uint256",
          "name": "tokenID",
          "type": "uint256"
        }
      ],
      "name": "transferCollectible",
      "outputs": [],
      "stateMutability": "nonpayable",
      "type": "function"
    },
    {
      "inputs": [
        {
          "internalType": "uint256",
          "name": "tokenID",
          "type": "uint256"
        },
        {
          "internalType": "address",
          "name": "sender",
          "type": "address"
        }
      ],
      "name": "burnCollectible",
      "outputs": [],
      "stateMutability": "nonpayable",
      "type": "function"
    },
    {
      "inputs": [
        {
          "internalType": "address",
          "name": "owner",
          "type": "address"
        },
        {
          "internalType": "uint256",
          "name": "tokenID",
          "type": "uint256"
        },
        {
          "internalType": "uint256",
          "name": "price",
          "type": "uint256"
        }
      ],
      "name": "setPriceOfCollectible",
      "outputs": [],
      "stateMutability": "nonpayable",
      "type": "function"
    },
    {
      "inputs": [
        {
          "internalType": "address",
          "name": "owner",
          "type": "address"
        },
        {
          "internalType": "uint256",
          "name": "tokenID",
          "type": "uint256"
        },
        {
          "internalType": "bool",
          "name": "availability",
          "type": "bool"
        }
      ],
      "name": "setAvailabilityOfCollectible",
      "outputs": [],
      "stateMutability": "nonpayable",
      "type": "function"
    },
    {
      "inputs": [
        {
          "internalType": "uint256",
          "name": "tokenID",
          "type": "uint256"
        }
      ],
      "name": "getTokenURI",
      "outputs": [
        {
          "internalType": "string",
          "name": "",
          "type": "string"
        }
      ],
      "stateMutability": "view",
      "type": "function",
      "constant": true
    },
    {
      "inputs": [
        {
          "internalType": "uint256",
          "name": "tokenID",
          "type": "uint256"
        }
      ],
      "name": "getTokenCreator",
      "outputs": [
        {
          "internalType": "address",
          "name": "",
          "type": "address"
        }
      ],
      "stateMutability": "view",
      "type": "function",
      "constant": true
    },
    {
      "inputs": [
        {
          "internalType": "uint256",
          "name": "tokenID",
          "type": "uint256"
        }
      ],
      "name": "getTokenOwner",
      "outputs": [
        {
          "internalType": "address",
          "name": "",
          "type": "address"
        }
      ],
      "stateMutability": "view",
      "type": "function",
      "constant": true
    },
    {
      "inputs": [
        {
          "internalType": "uint256",
          "name": "tokenID",
          "type": "uint256"
        }
      ],
      "name": "getTokenHash",
      "outputs": [
        {
          "internalType": "bytes32",
          "name": "",
          "type": "bytes32"
        }
      ],
      "stateMutability": "view",
      "type": "function",
      "constant": true
    },
    {
      "inputs": [
        {
          "internalType": "uint256",
          "name": "tokenID",
          "type": "uint256"
        }
      ],
      "name": "getTokenDescription",
      "outputs": [
        {
          "internalType": "string",
          "name": "",
          "type": "string"
        }
      ],
      "stateMutability": "view",
      "type": "function",
      "constant": true
    },
    {
      "inputs": [
        {
          "internalType": "uint256",
          "name": "tokenID",
          "type": "uint256"
        }
      ],
      "name": "getPriceOfCollectible",
      "outputs": [
        {
          "internalType": "uint256",
          "name": "",
          "type": "uint256"
        }
      ],
      "stateMutability": "view",
      "type": "function",
      "constant": true
    },
    {
      "inputs": [
        {
          "internalType": "uint256",
          "name": "tokenID",
          "type": "uint256"
        }
      ],
      "name": "getAvailabilityOfToken",
      "outputs": [
        {
          "internalType": "bool",
          "name": "",
          "type": "bool"
        }
      ],
      "stateMutability": "view",
      "type": "function",
      "constant": true
    },
    {
      "inputs": [],
      "name": "getTokenCount",
      "outputs": [
        {
          "internalType": "uint256",
          "name": "",
          "type": "uint256"
        }
      ],
      "stateMutability": "view",
      "type": "function",
      "constant": true
    },
    {
      "inputs": [],
      "name": "getTransactionFee",
      "outputs": [
        {
          "internalType": "uint256",
          "name": "",
          "type": "uint256"
        }
      ],
      "stateMutability": "view",
      "type": "function",
      "constant": true
    }
  ],
  "bytecode": "0x608060405234801561001057600080fd5b506001600081905561271090556110828061002c6000396000f3fe608060405234801561001057600080fd5b506004361061012c5760003560e01c806385d79102116100ad578063a5cd761f11610071578063a5cd761f14610315578063b3154c081461033e578063d082e38114610351578063f7ebefc81461035a578063fbb5b35f1461036d57600080fd5b806385d7910214610292578063934689a91461029a5780639ea2d712146102c65780639ed3edf0146102e9578063a0cc0dc5146102f257600080fd5b80634de26211116100f45780634de262111461020e5780635e725c741461024157806368aaca9b14610254578063741c9af21461027757806378a895671461028a57600080fd5b80630a09859d146101315780633bb3a24d1461015f578063411ba2351461017f578063412838a7146101b85780634b387691146101cd575b600080fd5b61014461013f366004610b2f565b610380565b60405161015696959493929190610ba4565b60405180910390f35b61017261016d366004610b2f565b6104d5565b6040516101569190610bfb565b6101aa61018d366004610cb8565b805160208183018101805160048252928201919093012091525481565b604051908152602001610156565b6101cb6101c6366004610d11565b610577565b005b6101f66101db366004610b2f565b6003602052600090815260409020546001600160a01b031681565b6040516001600160a01b039091168152602001610156565b61023161021c366004610b2f565b60009081526005602052604090205460ff1690565b6040519015158152602001610156565b6101cb61024f366004610d4d565b61064c565b6101aa610262366004610b2f565b60009081526002602052604090206005015490565b6101cb610285366004610ddc565b610888565b6101aa610914565b6001546101aa565b6101f66102a8366004610b2f565b6000908152600260205260409020600101546001600160a01b031690565b6102316102d4366004610b2f565b60056020526000908152604090205460ff1681565b6101aa60015481565b6101aa610300366004610b2f565b60009081526002602052604090206003015490565b6101f6610323366004610b2f565b6000908152600360205260409020546001600160a01b031690565b61017261034c366004610b2f565b61092a565b6101aa60005481565b6101cb610368366004610e06565b61094a565b6101cb61037b366004610e42565b6109d5565b60026020526000908152604090208054819061039b90610e75565b80601f01602080910402602001604051908101604052809291908181526020018280546103c790610e75565b80156104145780601f106103e957610100808354040283529160200191610414565b820191906000526020600020905b8154815290600101906020018083116103f757829003601f168201915b5050505060018301546002840154600385015460048601805495966001600160a01b0394851696949093169450909261044c90610e75565b80601f016020809104026020016040519081016040528092919081815260200182805461047890610e75565b80156104c55780601f1061049a576101008083540402835291602001916104c5565b820191906000526020600020905b8154815290600101906020018083116104a857829003601f168201915b5050505050908060050154905086565b60008181526002602052604090208054606091906104f290610e75565b80601f016020809104026020016040519081016040528092919081815260200182805461051e90610e75565b801561056b5780601f106105405761010080835404028352916020019161056b565b820191906000526020600020905b81548152906001019060200180831161054e57829003601f168201915b50505050509050919050565b600082815260026020819052604090912001546001600160a01b038281169116146105fd5760405162461bcd60e51b815260206004820152602b60248201527f53656e646572206d75737420626520746865206f776e6572206f66207468652060448201526a636f6c6c6563746962652160a81b60648201526084015b60405180910390fd5b600082815260026020526040808220905160049161061a91610eb0565b90815260408051602092819003830190209290925560009384526003905290912080546001600160a01b031916905550565b60048560405161065c9190610f4c565b9081526020016040518091039020546000146106ba5760405162461bcd60e51b815260206004820152601b60248201527f546f6b656e2055524920697320616c7265616479206f776e656421000000000060448201526064016105f4565b60006106c886868686610a59565b90506040518060c00160405280878152602001846001600160a01b03168152602001846001600160a01b031681526020018281526020018681526020018581525060026000805481526020019081526020016000206000820151816000019080519060200190610739929190610a96565b506020828101516001830180546001600160a01b039283166001600160a01b031991821617909155604085015160028501805491909316911617905560608301516003830155608083015180516107969260048501920190610a96565b5060a091909101516005918201556000805481526020919091526040808220805460ff1916851515179055905490516004906107d3908990610f4c565b9081526040519081900360200190205560008054849160039181806107f783610f7e565b91905055815260200190815260200160002060006101000a8154816001600160a01b0302191690836001600160a01b031602179055507ff87fe3264c3638b723b4ec8d76ef1445bea00685c4b9920442f5f2aa1c26732783600160005461085e9190610f99565b604080516001600160a01b03909316835260208301919091520160405180910390a1505050505050565b600081815260036020908152604080832080546001600160a01b03198082166001600160a01b0389811691821790945560028087529685902090960180549091168617905582519116808252928101939093528201839052907ff0f62f5e6af9b2c898cea739cd3c2921ac2f36806004128640c6da4181011165906060015b60405180910390a1505050565b600060016000546109259190610f99565b905090565b60008181526002602052604090206004018054606091906104f290610e75565b6000828152600360205260409020546001600160a01b038481169116146109835760405162461bcd60e51b81526004016105f490610fb0565b600082815260056020908152604091829020805460ff19168415159081179091558251858152918201527fbceceaa2f706c5eea8eca58ad8fe1aac1d7edb16d9d4ef2e0ef8ed5237b9c3839101610907565b6000828152600360205260409020546001600160a01b03848116911614610a0e5760405162461bcd60e51b81526004016105f490610fb0565b60008281526002602090815260409182902060050183905581518481529081018390527f6ef3bcfe7975df410c416dd608ae52ef55dc72f285111bc824da7962531f2df19101610907565b600084828585600054604051602001610a76959493929190610ff3565b604051602081830303815290604052805190602001209050949350505050565b828054610aa290610e75565b90600052602060002090601f016020900481019282610ac45760008555610b0a565b82601f10610add57805160ff1916838001178555610b0a565b82800160010185558215610b0a579182015b82811115610b0a578251825591602001919060010190610aef565b50610b16929150610b1a565b5090565b5b80821115610b165760008155600101610b1b565b600060208284031215610b4157600080fd5b5035919050565b60005b83811015610b63578181015183820152602001610b4b565b83811115610b72576000848401525b50505050565b60008151808452610b90816020860160208601610b48565b601f01601f19169290920160200192915050565b60c081526000610bb760c0830189610b78565b6001600160a01b03888116602085015287166040840152606083018690528281036080840152610be78186610b78565b9150508260a0830152979650505050505050565b602081526000610c0e6020830184610b78565b9392505050565b634e487b7160e01b600052604160045260246000fd5b600082601f830112610c3c57600080fd5b813567ffffffffffffffff80821115610c5757610c57610c15565b604051601f8301601f19908116603f01168101908282118183101715610c7f57610c7f610c15565b81604052838152866020858801011115610c9857600080fd5b836020870160208301376000602085830101528094505050505092915050565b600060208284031215610cca57600080fd5b813567ffffffffffffffff811115610ce157600080fd5b610ced84828501610c2b565b949350505050565b80356001600160a01b0381168114610d0c57600080fd5b919050565b60008060408385031215610d2457600080fd5b82359150610d3460208401610cf5565b90509250929050565b80358015158114610d0c57600080fd5b600080600080600060a08688031215610d6557600080fd5b853567ffffffffffffffff80821115610d7d57600080fd5b610d8989838a01610c2b565b96506020880135915080821115610d9f57600080fd5b50610dac88828901610c2b565b94505060408601359250610dc260608701610cf5565b9150610dd060808701610d3d565b90509295509295909350565b60008060408385031215610def57600080fd5b610df883610cf5565b946020939093013593505050565b600080600060608486031215610e1b57600080fd5b610e2484610cf5565b925060208401359150610e3960408501610d3d565b90509250925092565b600080600060608486031215610e5757600080fd5b610e6084610cf5565b95602085013595506040909401359392505050565b600181811c90821680610e8957607f821691505b60208210811415610eaa57634e487b7160e01b600052602260045260246000fd5b50919050565b600080835481600182811c915080831680610ecc57607f831692505b6020808410821415610eec57634e487b7160e01b86526022600452602486fd5b818015610f005760018114610f1157610f3e565b60ff19861689528489019650610f3e565b60008a81526020902060005b86811015610f365781548b820152908501908301610f1d565b505084890196505b509498975050505050505050565b60008251610f5e818460208701610b48565b9190910192915050565b634e487b7160e01b600052601160045260246000fd5b6000600019821415610f9257610f92610f68565b5060010190565b600082821015610fab57610fab610f68565b500390565b60208082526023908201527f53656e64657220646f65736e2774206f776e2074686520636f6c6c65637469626040820152626c652160e81b606082015260800190565b60008651611005818460208b01610b48565b606087901b6bffffffffffffffffffffffff19169083019081528551611032816014840160208a01610b48565b01601481019490945250506034820152605401939250505056fea26469706673582212203196b248058184a75e1813fcf061d7287e49eacb4ea66a9582bb6cf7d0fcc1b064736f6c634300080c0033",
  "immutableReferences": {},
  "source": "// SPDX-License-Identifier: MIT\r\n\r\npragma solidity ^0.8.0;\r\n\r\n// I used a similar approach that ERC721 token has but I didn't\r\n// exactly inherited it to my implementation since this token won't\r\n// be used in a production environment.\r\n\r\ncontract CollectibleToken {\r\n    struct Collectible {\r\n        string tokenURI;\r\n        address creator;\r\n        address ownerAddress;\r\n        bytes32 collectibleHash;\r\n        string collectibleDescription;\r\n        uint256 lastTokenPrice;\r\n    }\r\n\r\n    uint256 public tokenCounter;\r\n    uint256 public transactionFee;\r\n\r\n    mapping(uint256 => Collectible) public collectibles;\r\n    mapping(uint256 => address) public collectibleOwners;\r\n    mapping(string => uint256) public collectibleURIs;\r\n    mapping(uint256 => bool) public availableToTradeCollectibles;\r\n\r\n    //ERC721(\"berkcoin\", \"BERK\")\r\n    constructor() {\r\n        tokenCounter = 1;\r\n        transactionFee = 10000;\r\n    }\r\n\r\n    function createNewCollectible(\r\n        string memory tokenURI,\r\n        string memory description,\r\n        uint256 price,\r\n        address owner,\r\n        bool isAvailableToTrade\r\n    ) public {\r\n        require(collectibleURIs[tokenURI] == 0, \"Token URI is already owned!\");\r\n\r\n        bytes32 computedHash = calculateCollectibleHash(\r\n            tokenURI,\r\n            description,\r\n            price,\r\n            owner\r\n        );\r\n        collectibles[tokenCounter] = Collectible(\r\n            tokenURI,\r\n            owner,\r\n            owner,\r\n            computedHash,\r\n            description,\r\n            price\r\n        );\r\n        availableToTradeCollectibles[tokenCounter] = isAvailableToTrade;\r\n        collectibleURIs[tokenURI] = tokenCounter;\r\n        collectibleOwners[tokenCounter++] = owner;\r\n\r\n        emit NewCollectible(owner, tokenCounter - 1);\r\n    }\r\n\r\n    function calculateCollectibleHash(\r\n        string memory tokenURI,\r\n        string memory description,\r\n        uint256 price,\r\n        address owner\r\n    ) private view returns (bytes32) {\r\n        return\r\n            keccak256(\r\n                abi.encodePacked(\r\n                    tokenURI,\r\n                    owner,\r\n                    description,\r\n                    price,\r\n                    tokenCounter\r\n                )\r\n            );\r\n    }\r\n\r\n    function transferCollectible(address to, uint256 tokenID) public {\r\n        address oldOwner = collectibleOwners[tokenID];\r\n        collectibleOwners[tokenID] = to;\r\n        collectibles[tokenID].ownerAddress = to;\r\n\r\n        emit CollectibleTransfer(oldOwner, to, tokenID);\r\n    }\r\n\r\n    function burnCollectible(uint256 tokenID, address sender) public {\r\n        require(\r\n            collectibles[tokenID].ownerAddress == sender,\r\n            \"Sender must be the owner of the collectibe!\"\r\n        );\r\n        collectibleURIs[collectibles[tokenID].tokenURI] = 0;\r\n        collectibleOwners[tokenID] = address(0);\r\n    }\r\n\r\n    function setPriceOfCollectible(\r\n        address owner,\r\n        uint256 tokenID,\r\n        uint256 price\r\n    ) public {\r\n        require(\r\n            collectibleOwners[tokenID] == owner,\r\n            \"Sender doesn't own the collectible!\"\r\n        );\r\n        collectibles[tokenID].lastTokenPrice = price;\r\n\r\n        emit NewCollectiblePrice(tokenID, price);\r\n    }\r\n\r\n    function setAvailabilityOfCollectible(\r\n        address owner,\r\n        uint256 tokenID,\r\n        bool availability\r\n    ) public {\r\n        require(\r\n            collectibleOwners[tokenID] == owner,\r\n            \"Sender doesn't own the collectible!\"\r\n        );\r\n        availableToTradeCollectibles[tokenID] = availability;\r\n\r\n        emit NewAvailabilityStatus(tokenID, availability);\r\n    }\r\n\r\n    // View Collectible Info\r\n\r\n    function getTokenURI(uint256 tokenID) public view returns (string memory) {\r\n        return collectibles[tokenID].tokenURI;\r\n    }\r\n\r\n    function getTokenCreator(uint256 tokenID) public view returns (address) {\r\n        return collectibles[tokenID].creator;\r\n    }\r\n\r\n    function getTokenOwner(uint256 tokenID) public view returns (address) {\r\n        return collectibleOwners[tokenID];\r\n    }\r\n\r\n    function getTokenHash(uint256 tokenID) public view returns (bytes32) {\r\n        return collectibles[tokenID].collectibleHash;\r\n    }\r\n\r\n    function getTokenDescription(uint256 tokenID)\r\n        public\r\n        view\r\n        returns (string memory)\r\n    {\r\n        return collectibles[tokenID].collectibleDescription;\r\n    }\r\n\r\n    function getPriceOfCollectible(uint256 tokenID)\r\n        public\r\n        view\r\n        returns (uint256)\r\n    {\r\n        return collectibles[tokenID].lastTokenPrice;\r\n    }\r\n\r\n    function getAvailabilityOfToken(uint256 tokenID)\r\n        public\r\n        view\r\n        returns (bool)\r\n    {\r\n        return availableToTradeCollectibles[tokenID];\r\n    }\r\n\r\n    function getTokenCount() public view returns (uint256) {\r\n        return tokenCounter - 1;\r\n    }\r\n\r\n    function getTransactionFee() public view returns (uint256) {\r\n        return transactionFee;\r\n    }\r\n\r\n    event NewCollectible(address from, uint256 tokendID);\r\n\r\n    event CollectibleTransfer(address from, address to, uint256 tokendID);\r\n\r\n    event NewCollectiblePrice(uint256 tokenID, uint256 price);\r\n\r\n    event NewAvailabilityStatus(uint256 tokenID, bool availability);\r\n}\r\n",
  "sourcePath": "C:\\Users\\Berk\\Desktop\\GitHub Project Repositories\\berkcoin\\dapp\\contracts\\CollectibleToken.sol",
  "compiler": {
    "name": "solc",
    "version": "0.8.12+commit.f00d7308.Emscripten.clang"
  },
  "schemaVersion": "3.4.4",
  "updatedAt": "2022-02-18T20:08:59.155Z",
  "networkType": "ethereum",
  "devdoc": {
    "kind": "dev",
    "methods": {},
    "version": 1
  },
  "userdoc": {
    "kind": "user",
    "methods": {},
    "version": 1
  }
}