{
  "contractName": "CollectibleToken",
  "abi": [
    {
      "inputs": [],
      "stateMutability": "nonpayable",
      "type": "constructor"
    },
    {
      "anonymous": false,
      "inputs": [
        {
          "indexed": false,
          "internalType": "address",
          "name": "from",
          "type": "address"
        },
        {
          "indexed": false,
          "internalType": "address",
          "name": "to",
          "type": "address"
        },
        {
          "indexed": false,
          "internalType": "uint256",
          "name": "tokendID",
          "type": "uint256"
        }
      ],
      "name": "CollectibleTransfer",
      "type": "event"
    },
    {
      "anonymous": false,
      "inputs": [
        {
          "indexed": false,
          "internalType": "address",
          "name": "from",
          "type": "address"
        },
        {
          "indexed": false,
          "internalType": "uint256",
          "name": "tokendID",
          "type": "uint256"
        }
      ],
      "name": "NewCollectible",
      "type": "event"
    },
    {
      "anonymous": false,
      "inputs": [
        {
          "indexed": false,
          "internalType": "uint256",
          "name": "tokenID",
          "type": "uint256"
        },
        {
          "indexed": false,
          "internalType": "uint256",
          "name": "price",
          "type": "uint256"
        }
      ],
      "name": "NewCollectiblePrice",
      "type": "event"
    },
    {
      "inputs": [
        {
          "internalType": "uint256",
          "name": "",
          "type": "uint256"
        }
      ],
      "name": "collectibleOwners",
      "outputs": [
        {
          "internalType": "address",
          "name": "",
          "type": "address"
        }
      ],
      "stateMutability": "view",
      "type": "function",
      "constant": true
    },
    {
      "inputs": [
        {
          "internalType": "string",
          "name": "",
          "type": "string"
        }
      ],
      "name": "collectibleURIs",
      "outputs": [
        {
          "internalType": "uint256",
          "name": "",
          "type": "uint256"
        }
      ],
      "stateMutability": "view",
      "type": "function",
      "constant": true
    },
    {
      "inputs": [
        {
          "internalType": "uint256",
          "name": "",
          "type": "uint256"
        }
      ],
      "name": "collectibles",
      "outputs": [
        {
          "internalType": "string",
          "name": "tokenURI",
          "type": "string"
        },
        {
          "internalType": "address",
          "name": "ownerAddress",
          "type": "address"
        },
        {
          "internalType": "bytes32",
          "name": "collectibleHash",
          "type": "bytes32"
        },
        {
          "internalType": "string",
          "name": "collectibleDescription",
          "type": "string"
        },
        {
          "internalType": "uint256",
          "name": "lastTokenPrice",
          "type": "uint256"
        }
      ],
      "stateMutability": "view",
      "type": "function",
      "constant": true
    },
    {
      "inputs": [],
      "name": "tokenCounter",
      "outputs": [
        {
          "internalType": "uint256",
          "name": "",
          "type": "uint256"
        }
      ],
      "stateMutability": "view",
      "type": "function",
      "constant": true
    },
    {
      "inputs": [],
      "name": "transactionFee",
      "outputs": [
        {
          "internalType": "uint256",
          "name": "",
          "type": "uint256"
        }
      ],
      "stateMutability": "view",
      "type": "function",
      "constant": true
    },
    {
      "inputs": [
        {
          "internalType": "string",
          "name": "tokenURI",
          "type": "string"
        },
        {
          "internalType": "string",
          "name": "description",
          "type": "string"
        },
        {
          "internalType": "uint256",
          "name": "price",
          "type": "uint256"
        },
        {
          "internalType": "address",
          "name": "owner",
          "type": "address"
        }
      ],
      "name": "createNewCollectible",
      "outputs": [],
      "stateMutability": "nonpayable",
      "type": "function"
    },
    {
      "inputs": [
        {
          "internalType": "address",
          "name": "to",
          "type": "address"
        },
        {
          "internalType": "uint256",
          "name": "tokenID",
          "type": "uint256"
        }
      ],
      "name": "transferCollectible",
      "outputs": [],
      "stateMutability": "nonpayable",
      "type": "function"
    },
    {
      "inputs": [
        {
          "internalType": "uint256",
          "name": "tokenID",
          "type": "uint256"
        },
        {
          "internalType": "uint256",
          "name": "price",
          "type": "uint256"
        }
      ],
      "name": "setPriceOfCollectible",
      "outputs": [],
      "stateMutability": "nonpayable",
      "type": "function"
    },
    {
      "inputs": [
        {
          "internalType": "uint256",
          "name": "tokenID",
          "type": "uint256"
        }
      ],
      "name": "getTokenURI",
      "outputs": [
        {
          "internalType": "string",
          "name": "",
          "type": "string"
        }
      ],
      "stateMutability": "view",
      "type": "function",
      "constant": true
    },
    {
      "inputs": [
        {
          "internalType": "uint256",
          "name": "tokenID",
          "type": "uint256"
        }
      ],
      "name": "getTokenOwner",
      "outputs": [
        {
          "internalType": "address",
          "name": "",
          "type": "address"
        }
      ],
      "stateMutability": "view",
      "type": "function",
      "constant": true
    },
    {
      "inputs": [
        {
          "internalType": "uint256",
          "name": "tokenID",
          "type": "uint256"
        }
      ],
      "name": "getTokenHash",
      "outputs": [
        {
          "internalType": "bytes32",
          "name": "",
          "type": "bytes32"
        }
      ],
      "stateMutability": "view",
      "type": "function",
      "constant": true
    },
    {
      "inputs": [
        {
          "internalType": "uint256",
          "name": "tokenID",
          "type": "uint256"
        }
      ],
      "name": "getTokenDescription",
      "outputs": [
        {
          "internalType": "string",
          "name": "",
          "type": "string"
        }
      ],
      "stateMutability": "view",
      "type": "function",
      "constant": true
    },
    {
      "inputs": [
        {
          "internalType": "uint256",
          "name": "tokenID",
          "type": "uint256"
        }
      ],
      "name": "getPriceOfCollectible",
      "outputs": [
        {
          "internalType": "uint256",
          "name": "",
          "type": "uint256"
        }
      ],
      "stateMutability": "view",
      "type": "function",
      "constant": true
    },
    {
      "inputs": [],
      "name": "getTokenCount",
      "outputs": [
        {
          "internalType": "uint256",
          "name": "",
          "type": "uint256"
        }
      ],
      "stateMutability": "view",
      "type": "function",
      "constant": true
    }
  ],
  "bytecode": "0x608060405234801561001057600080fd5b506001600055610ca8806100256000396000f3fe608060405234801561001057600080fd5b50600436106100ea5760003560e01c8063741c9af21161008c578063a0cc0dc511610066578063a0cc0dc514610225578063a5cd761f14610249578063b3154c0814610272578063d082e3811461028557600080fd5b8063741c9af21461020157806378a89567146102145780639ed3edf01461021c57600080fd5b80634b387691116100c85780634b387691146101755780635e47eae4146101b6578063683a1239146101cb57806368aaca9b146101de57600080fd5b80630a09859d146100ef5780633bb3a24d1461011c578063411ba2351461013c575b600080fd5b6101026100fd3660046108d7565b61028e565b60405161011395949392919061094c565b60405180910390f35b61012f61012a3660046108d7565b6103da565b604051610113919061099a565b61016761014a366004610a57565b805160208183018101805160048252928201919093012091525481565b604051908152602001610113565b61019e6101833660046108d7565b6003602052600090815260409020546001600160a01b031681565b6040516001600160a01b039091168152602001610113565b6101c96101c4366004610ab0565b61047c565b005b6101c96101d9366004610b2e565b61067d565b6101676101ec3660046108d7565b60009081526002602052604090206004015490565b6101c961020f366004610b50565b610741565b6101676107cb565b61016760015481565b6101676102333660046108d7565b6000908152600260208190526040909120015490565b61019e6102573660046108d7565b6000908152600360205260409020546001600160a01b031690565b61012f6102803660046108d7565b6107e1565b61016760005481565b6002602052600090815260409020805481906102a990610b7a565b80601f01602080910402602001604051908101604052809291908181526020018280546102d590610b7a565b80156103225780601f106102f757610100808354040283529160200191610322565b820191906000526020600020905b81548152906001019060200180831161030557829003601f168201915b505050506001830154600284015460038501805494956001600160a01b03909316949193509061035190610b7a565b80601f016020809104026020016040519081016040528092919081815260200182805461037d90610b7a565b80156103ca5780601f1061039f576101008083540402835291602001916103ca565b820191906000526020600020905b8154815290600101906020018083116103ad57829003601f168201915b5050505050908060040154905085565b60008181526002602052604090208054606091906103f790610b7a565b80601f016020809104026020016040519081016040528092919081815260200182805461042390610b7a565b80156104705780601f1061044557610100808354040283529160200191610470565b820191906000526020600020905b81548152906001019060200180831161045357829003601f168201915b50505050509050919050565b60048460405161048c9190610bb5565b9081526020016040518091039020546000146104ef5760405162461bcd60e51b815260206004820152601b60248201527f546f6b656e2055524920697320616c7265616479206f776e656421000000000060448201526064015b60405180910390fd5b60006104fd85858585610801565b90506040518060a00160405280868152602001836001600160a01b03168152602001828152602001858152602001848152506002600080548152602001908152602001600020600082015181600001908051906020019061055f92919061083e565b506020828101516001830180546001600160a01b0319166001600160a01b0390921691909117905560408301516002830155606083015180516105a8926003850192019061083e565b50608082015181600401559050506000546004866040516105c99190610bb5565b9081526040519081900360200190205560008054839160039181806105ed83610be7565b91905055815260200190815260200160002060006101000a8154816001600160a01b0302191690836001600160a01b031602179055507ff87fe3264c3638b723b4ec8d76ef1445bea00685c4b9920442f5f2aa1c2673278260016000546106549190610c02565b604080516001600160a01b03909316835260208301919091520160405180910390a15050505050565b6000828152600360205260409020546001600160a01b031633146106ef5760405162461bcd60e51b815260206004820152602360248201527f53656e64657220646f65736e2774206f776e2074686520636f6c6c65637469626044820152626c652160e81b60648201526084016104e6565b60008281526002602090815260409182902060040183905581518481529081018390527f6ef3bcfe7975df410c416dd608ae52ef55dc72f285111bc824da7962531f2df1910160405180910390a15050565b600081815260036020908152604080832080546001600160a01b03198082166001600160a01b03898116918217909455600286529584902060010180549091168617905582519116808252928101939093528201839052907ff0f62f5e6af9b2c898cea739cd3c2921ac2f36806004128640c6da41810111659060600160405180910390a1505050565b600060016000546107dc9190610c02565b905090565b60008181526002602052604090206003018054606091906103f790610b7a565b60008482858560005460405160200161081e959493929190610c19565b604051602081830303815290604052805190602001209050949350505050565b82805461084a90610b7a565b90600052602060002090601f01602090048101928261086c57600085556108b2565b82601f1061088557805160ff19168380011785556108b2565b828001600101855582156108b2579182015b828111156108b2578251825591602001919060010190610897565b506108be9291506108c2565b5090565b5b808211156108be57600081556001016108c3565b6000602082840312156108e957600080fd5b5035919050565b60005b8381101561090b5781810151838201526020016108f3565b8381111561091a576000848401525b50505050565b600081518084526109388160208601602086016108f0565b601f01601f19169290920160200192915050565b60a08152600061095f60a0830188610920565b6001600160a01b03871660208401526040830186905282810360608401526109878186610920565b9150508260808301529695505050505050565b6020815260006109ad6020830184610920565b9392505050565b634e487b7160e01b600052604160045260246000fd5b600082601f8301126109db57600080fd5b813567ffffffffffffffff808211156109f6576109f66109b4565b604051601f8301601f19908116603f01168101908282118183101715610a1e57610a1e6109b4565b81604052838152866020858801011115610a3757600080fd5b836020870160208301376000602085830101528094505050505092915050565b600060208284031215610a6957600080fd5b813567ffffffffffffffff811115610a8057600080fd5b610a8c848285016109ca565b949350505050565b80356001600160a01b0381168114610aab57600080fd5b919050565b60008060008060808587031215610ac657600080fd5b843567ffffffffffffffff80821115610ade57600080fd5b610aea888389016109ca565b95506020870135915080821115610b0057600080fd5b50610b0d878288016109ca565b93505060408501359150610b2360608601610a94565b905092959194509250565b60008060408385031215610b4157600080fd5b50508035926020909101359150565b60008060408385031215610b6357600080fd5b610b6c83610a94565b946020939093013593505050565b600181811c90821680610b8e57607f821691505b60208210811415610baf57634e487b7160e01b600052602260045260246000fd5b50919050565b60008251610bc78184602087016108f0565b9190910192915050565b634e487b7160e01b600052601160045260246000fd5b6000600019821415610bfb57610bfb610bd1565b5060010190565b600082821015610c1457610c14610bd1565b500390565b60008651610c2b818460208b016108f0565b606087901b6bffffffffffffffffffffffff19169083019081528551610c58816014840160208a016108f0565b01601481019490945250506034820152605401939250505056fea2646970667358221220b38fcf9aab21d20748001219cd2159904f04d7b73ac427e5560c5fc85baa59a964736f6c634300080c0033",
  "immutableReferences": {},
  "source": "// SPDX-License-Identifier: MIT\r\n\r\npragma solidity ^0.8.0;\r\n\r\n// import \"@openzeppelin/contracts/token/ERC721/ERC721.sol\";\r\n\r\ncontract CollectibleToken {\r\n    struct Collectible {\r\n        string tokenURI;\r\n        address ownerAddress;\r\n        bytes32 collectibleHash;\r\n        string collectibleDescription;\r\n        uint256 lastTokenPrice;\r\n    }\r\n\r\n    uint256 public tokenCounter;\r\n    uint256 public transactionFee;\r\n\r\n    mapping(uint256 => Collectible) public collectibles;\r\n    mapping(uint256 => address) public collectibleOwners;\r\n    mapping(string => uint256) public collectibleURIs;\r\n\r\n    //ERC721(\"berkcoin\", \"BERK\")\r\n    constructor() {\r\n        tokenCounter = 1;\r\n    }\r\n\r\n    function createNewCollectible(\r\n        string memory tokenURI,\r\n        string memory description,\r\n        uint256 price,\r\n        address owner\r\n    ) public {\r\n        require(collectibleURIs[tokenURI] == 0, \"Token URI is already owned!\");\r\n\r\n        bytes32 computedHash = calculateCollectibleHash(\r\n            tokenURI,\r\n            description,\r\n            price,\r\n            owner\r\n        );\r\n        collectibles[tokenCounter] = Collectible(\r\n            tokenURI,\r\n            owner,\r\n            computedHash,\r\n            description,\r\n            price\r\n        );\r\n        collectibleURIs[tokenURI] = tokenCounter;\r\n        collectibleOwners[tokenCounter++] = owner;\r\n\r\n        emit NewCollectible(owner, tokenCounter - 1);\r\n    }\r\n\r\n    function calculateCollectibleHash(\r\n        string memory tokenURI,\r\n        string memory description,\r\n        uint256 price,\r\n        address owner\r\n    ) private view returns (bytes32) {\r\n        return\r\n            keccak256(\r\n                abi.encodePacked(\r\n                    tokenURI,\r\n                    owner,\r\n                    description,\r\n                    price,\r\n                    tokenCounter\r\n                )\r\n            );\r\n    }\r\n\r\n    function transferCollectible(address to, uint256 tokenID) public {\r\n        address oldOwner = collectibleOwners[tokenID];\r\n        collectibleOwners[tokenID] = to;\r\n        collectibles[tokenID].ownerAddress = to;\r\n\r\n        emit CollectibleTransfer(oldOwner, to, tokenID);\r\n    }\r\n\r\n    function setPriceOfCollectible(uint256 tokenID, uint256 price) public {\r\n        require(\r\n            collectibleOwners[tokenID] == msg.sender,\r\n            \"Sender doesn't own the collectible!\"\r\n        );\r\n        collectibles[tokenID].lastTokenPrice = price;\r\n\r\n        emit NewCollectiblePrice(tokenID, price);\r\n    }\r\n\r\n    // View Collectible Info\r\n\r\n    function getTokenURI(uint256 tokenID) public view returns (string memory) {\r\n        return collectibles[tokenID].tokenURI;\r\n    }\r\n\r\n    function getTokenOwner(uint256 tokenID) public view returns (address) {\r\n        return collectibleOwners[tokenID];\r\n    }\r\n\r\n    function getTokenHash(uint256 tokenID) public view returns (bytes32) {\r\n        return collectibles[tokenID].collectibleHash;\r\n    }\r\n\r\n    function getTokenDescription(uint256 tokenID)\r\n        public\r\n        view\r\n        returns (string memory)\r\n    {\r\n        return collectibles[tokenID].collectibleDescription;\r\n    }\r\n\r\n    function getPriceOfCollectible(uint256 tokenID)\r\n        public\r\n        view\r\n        returns (uint256)\r\n    {\r\n        return collectibles[tokenID].lastTokenPrice;\r\n    }\r\n\r\n    function getTokenCount() public view returns (uint256) {\r\n        return tokenCounter - 1;\r\n    }\r\n\r\n    event NewCollectible(address from, uint256 tokendID);\r\n\r\n    event CollectibleTransfer(address from, address to, uint256 tokendID);\r\n\r\n    event NewCollectiblePrice(uint256 tokenID, uint256 price);\r\n}\r\n",
  "sourcePath": "C:\\Users\\Berk\\Desktop\\GitHub Project Repositories\\berkcoin\\dapp\\contracts\\CollectibleToken.sol",
  "compiler": {
    "name": "solc",
    "version": "0.8.12+commit.f00d7308.Emscripten.clang"
  },
  "schemaVersion": "3.4.4",
  "updatedAt": "2022-02-17T14:44:37.284Z",
  "networkType": "ethereum",
  "devdoc": {
    "kind": "dev",
    "methods": {},
    "version": 1
  },
  "userdoc": {
    "kind": "user",
    "methods": {},
    "version": 1
  }
}