{
  "contractName": "CollectibleToken",
  "abi": [
    {
      "inputs": [],
      "stateMutability": "nonpayable",
      "type": "constructor"
    },
    {
      "anonymous": false,
      "inputs": [
        {
          "indexed": false,
          "internalType": "address",
          "name": "from",
          "type": "address"
        },
        {
          "indexed": false,
          "internalType": "address",
          "name": "to",
          "type": "address"
        },
        {
          "indexed": false,
          "internalType": "uint256",
          "name": "tokendID",
          "type": "uint256"
        }
      ],
      "name": "CollectibleTransfer",
      "type": "event"
    },
    {
      "anonymous": false,
      "inputs": [
        {
          "indexed": false,
          "internalType": "uint256",
          "name": "tokenID",
          "type": "uint256"
        },
        {
          "indexed": false,
          "internalType": "bool",
          "name": "availability",
          "type": "bool"
        }
      ],
      "name": "NewAvailabilityStatus",
      "type": "event"
    },
    {
      "anonymous": false,
      "inputs": [
        {
          "indexed": false,
          "internalType": "address",
          "name": "from",
          "type": "address"
        },
        {
          "indexed": false,
          "internalType": "uint256",
          "name": "tokendID",
          "type": "uint256"
        }
      ],
      "name": "NewCollectible",
      "type": "event"
    },
    {
      "anonymous": false,
      "inputs": [
        {
          "indexed": false,
          "internalType": "uint256",
          "name": "tokenID",
          "type": "uint256"
        },
        {
          "indexed": false,
          "internalType": "uint256",
          "name": "price",
          "type": "uint256"
        }
      ],
      "name": "NewCollectiblePrice",
      "type": "event"
    },
    {
      "inputs": [
        {
          "internalType": "uint256",
          "name": "",
          "type": "uint256"
        }
      ],
      "name": "availableToTradeCollectibles",
      "outputs": [
        {
          "internalType": "bool",
          "name": "",
          "type": "bool"
        }
      ],
      "stateMutability": "view",
      "type": "function"
    },
    {
      "inputs": [
        {
          "internalType": "uint256",
          "name": "",
          "type": "uint256"
        }
      ],
      "name": "burnedCollectibles",
      "outputs": [
        {
          "internalType": "bool",
          "name": "",
          "type": "bool"
        }
      ],
      "stateMutability": "view",
      "type": "function"
    },
    {
      "inputs": [
        {
          "internalType": "uint256",
          "name": "",
          "type": "uint256"
        }
      ],
      "name": "collectibleOwners",
      "outputs": [
        {
          "internalType": "address",
          "name": "",
          "type": "address"
        }
      ],
      "stateMutability": "view",
      "type": "function"
    },
    {
      "inputs": [
        {
          "internalType": "string",
          "name": "",
          "type": "string"
        }
      ],
      "name": "collectibleURIs",
      "outputs": [
        {
          "internalType": "uint256",
          "name": "",
          "type": "uint256"
        }
      ],
      "stateMutability": "view",
      "type": "function"
    },
    {
      "inputs": [
        {
          "internalType": "uint256",
          "name": "",
          "type": "uint256"
        }
      ],
      "name": "collectibles",
      "outputs": [
        {
          "internalType": "string",
          "name": "tokenURI",
          "type": "string"
        },
        {
          "internalType": "address",
          "name": "creator",
          "type": "address"
        },
        {
          "internalType": "address",
          "name": "ownerAddress",
          "type": "address"
        },
        {
          "internalType": "bytes32",
          "name": "collectibleHash",
          "type": "bytes32"
        },
        {
          "internalType": "string",
          "name": "collectibleDescription",
          "type": "string"
        },
        {
          "internalType": "uint256",
          "name": "lastTokenPrice",
          "type": "uint256"
        }
      ],
      "stateMutability": "view",
      "type": "function"
    },
    {
      "inputs": [],
      "name": "tokenCounter",
      "outputs": [
        {
          "internalType": "uint256",
          "name": "",
          "type": "uint256"
        }
      ],
      "stateMutability": "view",
      "type": "function"
    },
    {
      "inputs": [],
      "name": "transactionFee",
      "outputs": [
        {
          "internalType": "uint256",
          "name": "",
          "type": "uint256"
        }
      ],
      "stateMutability": "view",
      "type": "function"
    },
    {
      "inputs": [
        {
          "internalType": "string",
          "name": "tokenURI",
          "type": "string"
        },
        {
          "internalType": "string",
          "name": "description",
          "type": "string"
        },
        {
          "internalType": "uint256",
          "name": "price",
          "type": "uint256"
        },
        {
          "internalType": "address",
          "name": "owner",
          "type": "address"
        },
        {
          "internalType": "bool",
          "name": "isAvailableToTrade",
          "type": "bool"
        }
      ],
      "name": "createNewCollectible",
      "outputs": [],
      "stateMutability": "nonpayable",
      "type": "function"
    },
    {
      "inputs": [
        {
          "internalType": "address",
          "name": "to",
          "type": "address"
        },
        {
          "internalType": "uint256",
          "name": "tokenID",
          "type": "uint256"
        }
      ],
      "name": "transferCollectible",
      "outputs": [],
      "stateMutability": "nonpayable",
      "type": "function"
    },
    {
      "inputs": [
        {
          "internalType": "uint256",
          "name": "tokenID",
          "type": "uint256"
        },
        {
          "internalType": "address",
          "name": "sender",
          "type": "address"
        }
      ],
      "name": "burnCollectible",
      "outputs": [],
      "stateMutability": "nonpayable",
      "type": "function"
    },
    {
      "inputs": [
        {
          "internalType": "address",
          "name": "owner",
          "type": "address"
        },
        {
          "internalType": "uint256",
          "name": "tokenID",
          "type": "uint256"
        },
        {
          "internalType": "uint256",
          "name": "price",
          "type": "uint256"
        }
      ],
      "name": "setPriceOfCollectible",
      "outputs": [],
      "stateMutability": "nonpayable",
      "type": "function"
    },
    {
      "inputs": [
        {
          "internalType": "address",
          "name": "owner",
          "type": "address"
        },
        {
          "internalType": "uint256",
          "name": "tokenID",
          "type": "uint256"
        },
        {
          "internalType": "bool",
          "name": "availability",
          "type": "bool"
        }
      ],
      "name": "setAvailabilityOfCollectible",
      "outputs": [],
      "stateMutability": "nonpayable",
      "type": "function"
    },
    {
      "inputs": [
        {
          "internalType": "uint256",
          "name": "tokenID",
          "type": "uint256"
        }
      ],
      "name": "getAccessibility",
      "outputs": [
        {
          "internalType": "bool",
          "name": "",
          "type": "bool"
        }
      ],
      "stateMutability": "view",
      "type": "function"
    },
    {
      "inputs": [
        {
          "internalType": "uint256",
          "name": "tokenID",
          "type": "uint256"
        }
      ],
      "name": "getTokenURI",
      "outputs": [
        {
          "internalType": "string",
          "name": "",
          "type": "string"
        }
      ],
      "stateMutability": "view",
      "type": "function"
    },
    {
      "inputs": [
        {
          "internalType": "uint256",
          "name": "tokenID",
          "type": "uint256"
        }
      ],
      "name": "getTokenCreator",
      "outputs": [
        {
          "internalType": "address",
          "name": "",
          "type": "address"
        }
      ],
      "stateMutability": "view",
      "type": "function"
    },
    {
      "inputs": [
        {
          "internalType": "uint256",
          "name": "tokenID",
          "type": "uint256"
        }
      ],
      "name": "getTokenOwner",
      "outputs": [
        {
          "internalType": "address",
          "name": "",
          "type": "address"
        }
      ],
      "stateMutability": "view",
      "type": "function"
    },
    {
      "inputs": [
        {
          "internalType": "uint256",
          "name": "tokenID",
          "type": "uint256"
        }
      ],
      "name": "getTokenHash",
      "outputs": [
        {
          "internalType": "bytes32",
          "name": "",
          "type": "bytes32"
        }
      ],
      "stateMutability": "view",
      "type": "function"
    },
    {
      "inputs": [
        {
          "internalType": "uint256",
          "name": "tokenID",
          "type": "uint256"
        }
      ],
      "name": "getTokenDescription",
      "outputs": [
        {
          "internalType": "string",
          "name": "",
          "type": "string"
        }
      ],
      "stateMutability": "view",
      "type": "function"
    },
    {
      "inputs": [
        {
          "internalType": "uint256",
          "name": "tokenID",
          "type": "uint256"
        }
      ],
      "name": "getPriceOfCollectible",
      "outputs": [
        {
          "internalType": "uint256",
          "name": "",
          "type": "uint256"
        }
      ],
      "stateMutability": "view",
      "type": "function"
    },
    {
      "inputs": [
        {
          "internalType": "uint256",
          "name": "tokenID",
          "type": "uint256"
        }
      ],
      "name": "getAvailabilityOfToken",
      "outputs": [
        {
          "internalType": "bool",
          "name": "",
          "type": "bool"
        }
      ],
      "stateMutability": "view",
      "type": "function"
    },
    {
      "inputs": [],
      "name": "getTokenCount",
      "outputs": [
        {
          "internalType": "uint256",
          "name": "",
          "type": "uint256"
        }
      ],
      "stateMutability": "view",
      "type": "function"
    },
    {
      "inputs": [],
      "name": "getTransactionFee",
      "outputs": [
        {
          "internalType": "uint256",
          "name": "",
          "type": "uint256"
        }
      ],
      "stateMutability": "view",
      "type": "function"
    }
  ],
  "bytecode": "0x608060405234801561001057600080fd5b506001600081905569152d02c7e14af68000009055611133806100346000396000f3fe608060405234801561001057600080fd5b50600436106101425760003560e01c806385d79102116100b8578063a5cd761f1161007c578063a5cd761f1461034e578063addbf70314610377578063b3154c081461039b578063d082e381146103ae578063f7ebefc8146103b7578063fbb5b35f146103ca57600080fd5b806385d79102146102cb578063934689a9146102d35780639ea2d712146102ff5780639ed3edf014610322578063a0cc0dc51461032b57600080fd5b80634b3876911161010a5780634b387691146102165780634de26211146102575780635e725c741461027a57806368aaca9b1461028d578063741c9af2146102b057806378a89567146102c357600080fd5b80630a09859d146101475780631570d294146101755780633bb3a24d146101a8578063411ba235146101c8578063412838a714610201575b600080fd5b61015a610155366004610afa565b6103dd565b60405161016c96959493929190610b6f565b60405180910390f35b610198610183366004610afa565b60066020526000908152604090205460ff1681565b604051901515815260200161016c565b6101bb6101b6366004610afa565b610532565b60405161016c9190610bc6565b6101f36101d6366004610c83565b805160208183018101805160048252928201919093012091525481565b60405190815260200161016c565b61021461020f366004610cdc565b6105d4565b005b61023f610224366004610afa565b6003602052600090815260409020546001600160a01b031681565b6040516001600160a01b03909116815260200161016c565b610198610265366004610afa565b60009081526005602052604090205460ff1690565b610214610288366004610d18565b6106bb565b6101f361029b366004610afa565b60009081526002602052604090206005015490565b6102146102be366004610da7565b6108ec565b6101f3610978565b6001546101f3565b61023f6102e1366004610afa565b6000908152600260205260409020600101546001600160a01b031690565b61019861030d366004610afa565b60056020526000908152604090205460ff1681565b6101f360015481565b6101f3610339366004610afa565b60009081526002602052604090206003015490565b61023f61035c366004610afa565b6000908152600360205260409020546001600160a01b031690565b610198610385366004610afa565b60009081526006602052604090205460ff161590565b6101bb6103a9366004610afa565b61098e565b6101f360005481565b6102146103c5366004610dd1565b6109ae565b6102146103d8366004610e0d565b610a39565b6002602052600090815260409020805481906103f890610e40565b80601f016020809104026020016040519081016040528092919081815260200182805461042490610e40565b80156104715780601f1061044657610100808354040283529160200191610471565b820191906000526020600020905b81548152906001019060200180831161045457829003601f168201915b5050505060018301546002840154600385015460048601805495966001600160a01b039485169694909316945090926104a990610e40565b80601f01602080910402602001604051908101604052809291908181526020018280546104d590610e40565b80156105225780601f106104f757610100808354040283529160200191610522565b820191906000526020600020905b81548152906001019060200180831161050557829003601f168201915b5050505050908060050154905086565b600081815260026020526040902080546060919061054f90610e40565b80601f016020809104026020016040519081016040528092919081815260200182805461057b90610e40565b80156105c85780601f1061059d576101008083540402835291602001916105c8565b820191906000526020600020905b8154815290600101906020018083116105ab57829003601f168201915b50505050509050919050565b600082815260026020819052604090912001546001600160a01b0382811691161461065a5760405162461bcd60e51b815260206004820152602b60248201527f53656e646572206d75737420626520746865206f776e6572206f66207468652060448201526a636f6c6c6563746962652160a81b60648201526084015b60405180910390fd5b600082815260026020526040808220905160049161067791610e7a565b90815260408051602092819003830190209290925560009384526003815281842080546001600160a01b031916905560069052909120805460ff1916600117905550565b6004856040516106cb9190610ef0565b9081526020016040518091039020546000146107295760405162461bcd60e51b815260206004820152601b60248201527f546f6b656e2055524920697320616c7265616479206f776e65642100000000006044820152606401610651565b600061073786868686610abd565b90506040518060c00160405280878152602001846001600160a01b03168152602001846001600160a01b0316815260200182815260200186815260200185815250600260008054815260200190815260200160002060008201518160000190816107a19190610f5b565b5060208201516001820180546001600160a01b039283166001600160a01b031991821617909155604084015160028401805491909316911617905560608201516003820155608082015160048201906107fa9082610f5b565b5060a091909101516005918201556000805481526020919091526040808220805460ff191685151517905590549051600490610837908990610ef0565b90815260405190819003602001902055600080548491600391818061085b83611031565b91905055815260200190815260200160002060006101000a8154816001600160a01b0302191690836001600160a01b031602179055507ff87fe3264c3638b723b4ec8d76ef1445bea00685c4b9920442f5f2aa1c2673278360016000546108c2919061104a565b604080516001600160a01b03909316835260208301919091520160405180910390a1505050505050565b600081815260036020908152604080832080546001600160a01b03198082166001600160a01b0389811691821790945560028087529685902090960180549091168617905582519116808252928101939093528201839052907ff0f62f5e6af9b2c898cea739cd3c2921ac2f36806004128640c6da4181011165906060015b60405180910390a1505050565b60006001600054610989919061104a565b905090565b600081815260026020526040902060040180546060919061054f90610e40565b6000828152600360205260409020546001600160a01b038481169116146109e75760405162461bcd60e51b815260040161065190611061565b600082815260056020908152604091829020805460ff19168415159081179091558251858152918201527fbceceaa2f706c5eea8eca58ad8fe1aac1d7edb16d9d4ef2e0ef8ed5237b9c383910161096b565b6000828152600360205260409020546001600160a01b03848116911614610a725760405162461bcd60e51b815260040161065190611061565b60008281526002602090815260409182902060050183905581518481529081018390527f6ef3bcfe7975df410c416dd608ae52ef55dc72f285111bc824da7962531f2df1910161096b565b600084828585600054604051602001610ada9594939291906110a4565b604051602081830303815290604052805190602001209050949350505050565b600060208284031215610b0c57600080fd5b5035919050565b60005b83811015610b2e578181015183820152602001610b16565b83811115610b3d576000848401525b50505050565b60008151808452610b5b816020860160208601610b13565b601f01601f19169290920160200192915050565b60c081526000610b8260c0830189610b43565b6001600160a01b03888116602085015287166040840152606083018690528281036080840152610bb28186610b43565b9150508260a0830152979650505050505050565b602081526000610bd96020830184610b43565b9392505050565b634e487b7160e01b600052604160045260246000fd5b600082601f830112610c0757600080fd5b813567ffffffffffffffff80821115610c2257610c22610be0565b604051601f8301601f19908116603f01168101908282118183101715610c4a57610c4a610be0565b81604052838152866020858801011115610c6357600080fd5b836020870160208301376000602085830101528094505050505092915050565b600060208284031215610c9557600080fd5b813567ffffffffffffffff811115610cac57600080fd5b610cb884828501610bf6565b949350505050565b80356001600160a01b0381168114610cd757600080fd5b919050565b60008060408385031215610cef57600080fd5b82359150610cff60208401610cc0565b90509250929050565b80358015158114610cd757600080fd5b600080600080600060a08688031215610d3057600080fd5b853567ffffffffffffffff80821115610d4857600080fd5b610d5489838a01610bf6565b96506020880135915080821115610d6a57600080fd5b50610d7788828901610bf6565b94505060408601359250610d8d60608701610cc0565b9150610d9b60808701610d08565b90509295509295909350565b60008060408385031215610dba57600080fd5b610dc383610cc0565b946020939093013593505050565b600080600060608486031215610de657600080fd5b610def84610cc0565b925060208401359150610e0460408501610d08565b90509250925092565b600080600060608486031215610e2257600080fd5b610e2b84610cc0565b95602085013595506040909401359392505050565b600181811c90821680610e5457607f821691505b602082108103610e7457634e487b7160e01b600052602260045260246000fd5b50919050565b6000808354610e8881610e40565b60018281168015610ea05760018114610eb557610ee4565b60ff1984168752821515830287019450610ee4565b8760005260208060002060005b85811015610edb5781548a820152908401908201610ec2565b50505082870194505b50929695505050505050565b60008251610f02818460208701610b13565b9190910192915050565b601f821115610f5657600081815260208120601f850160051c81016020861015610f335750805b601f850160051c820191505b81811015610f5257828155600101610f3f565b5050505b505050565b815167ffffffffffffffff811115610f7557610f75610be0565b610f8981610f838454610e40565b84610f0c565b602080601f831160018114610fbe5760008415610fa65750858301515b600019600386901b1c1916600185901b178555610f52565b600085815260208120601f198616915b82811015610fed57888601518255948401946001909101908401610fce565b508582101561100b5787850151600019600388901b60f8161c191681555b5050505050600190811b01905550565b634e487b7160e01b600052601160045260246000fd5b6000600182016110435761104361101b565b5060010190565b60008282101561105c5761105c61101b565b500390565b60208082526023908201527f53656e64657220646f65736e2774206f776e2074686520636f6c6c65637469626040820152626c652160e81b606082015260800190565b600086516110b6818460208b01610b13565b606087901b6bffffffffffffffffffffffff191690830190815285516110e3816014840160208a01610b13565b01601481019490945250506034820152605401939250505056fea264697066735822122051dec9b9e9e5128387657c460f1487518662e0893d603d9f6982d4356b53dd0c64736f6c634300080f0033",
  "immutableReferences": {},
  "source": "// SPDX-License-Identifier: MIT\r\n\r\npragma solidity ^0.8.0;\r\n\r\n// I used a similar approach that ERC721 token has but I didn't\r\n// exactly inherited it to my implementation since this token won't\r\n// be used in a production environment.\r\n\r\ncontract CollectibleToken {\r\n    struct Collectible {\r\n        string tokenURI;\r\n        address creator;\r\n        address ownerAddress;\r\n        bytes32 collectibleHash;\r\n        string collectibleDescription;\r\n        uint256 lastTokenPrice;\r\n    }\r\n\r\n    uint256 public tokenCounter;\r\n    uint256 public transactionFee;\r\n\r\n    mapping(uint256 => Collectible) public collectibles;\r\n    mapping(uint256 => address) public collectibleOwners;\r\n    mapping(string => uint256) public collectibleURIs;\r\n    mapping(uint256 => bool) public availableToTradeCollectibles;\r\n    mapping(uint256 => bool) public burnedCollectibles;\r\n\r\n    //ERC721(\"berkcoin\", \"BERK\")\r\n    constructor() {\r\n        tokenCounter = 1;\r\n        transactionFee = 100000 * 10**18;\r\n    }\r\n\r\n    function createNewCollectible(\r\n        string memory tokenURI,\r\n        string memory description,\r\n        uint256 price,\r\n        address owner,\r\n        bool isAvailableToTrade\r\n    ) external {\r\n        require(collectibleURIs[tokenURI] == 0, \"Token URI is already owned!\");\r\n\r\n        bytes32 computedHash = calculateCollectibleHash(\r\n            tokenURI,\r\n            description,\r\n            price,\r\n            owner\r\n        );\r\n        collectibles[tokenCounter] = Collectible(\r\n            tokenURI,\r\n            owner,\r\n            owner,\r\n            computedHash,\r\n            description,\r\n            price\r\n        );\r\n        availableToTradeCollectibles[tokenCounter] = isAvailableToTrade;\r\n        collectibleURIs[tokenURI] = tokenCounter;\r\n        collectibleOwners[tokenCounter++] = owner;\r\n\r\n        emit NewCollectible(owner, tokenCounter - 1);\r\n    }\r\n\r\n    function calculateCollectibleHash(\r\n        string memory tokenURI,\r\n        string memory description,\r\n        uint256 price,\r\n        address owner\r\n    ) private view returns (bytes32) {\r\n        return\r\n            keccak256(\r\n                abi.encodePacked(\r\n                    tokenURI,\r\n                    owner,\r\n                    description,\r\n                    price,\r\n                    tokenCounter\r\n                )\r\n            );\r\n    }\r\n\r\n    function transferCollectible(address to, uint256 tokenID) external {\r\n        address oldOwner = collectibleOwners[tokenID];\r\n        collectibleOwners[tokenID] = to;\r\n        collectibles[tokenID].ownerAddress = to;\r\n\r\n        emit CollectibleTransfer(oldOwner, to, tokenID);\r\n    }\r\n\r\n    function burnCollectible(uint256 tokenID, address sender) external {\r\n        require(\r\n            collectibles[tokenID].ownerAddress == sender,\r\n            \"Sender must be the owner of the collectibe!\"\r\n        );\r\n        collectibleURIs[collectibles[tokenID].tokenURI] = 0;\r\n        collectibleOwners[tokenID] = address(0);\r\n        burnedCollectibles[tokenID] = true;\r\n    }\r\n\r\n    function setPriceOfCollectible(\r\n        address owner,\r\n        uint256 tokenID,\r\n        uint256 price\r\n    ) external {\r\n        require(\r\n            collectibleOwners[tokenID] == owner,\r\n            \"Sender doesn't own the collectible!\"\r\n        );\r\n        collectibles[tokenID].lastTokenPrice = price;\r\n\r\n        emit NewCollectiblePrice(tokenID, price);\r\n    }\r\n\r\n    function setAvailabilityOfCollectible(\r\n        address owner,\r\n        uint256 tokenID,\r\n        bool availability\r\n    ) external {\r\n        require(\r\n            collectibleOwners[tokenID] == owner,\r\n            \"Sender doesn't own the collectible!\"\r\n        );\r\n        availableToTradeCollectibles[tokenID] = availability;\r\n\r\n        emit NewAvailabilityStatus(tokenID, availability);\r\n    }\r\n\r\n    // View Collectible Info\r\n\r\n    // The burned collectibles will have an address of 0x0..\r\n    function getAccessibility(uint256 tokenID) public view returns (bool) {\r\n        return !burnedCollectibles[tokenID];\r\n    }\r\n\r\n    function getTokenURI(uint256 tokenID) public view returns (string memory) {\r\n        return collectibles[tokenID].tokenURI;\r\n    }\r\n\r\n    function getTokenCreator(uint256 tokenID) public view returns (address) {\r\n        return collectibles[tokenID].creator;\r\n    }\r\n\r\n    function getTokenOwner(uint256 tokenID) public view returns (address) {\r\n        return collectibleOwners[tokenID];\r\n    }\r\n\r\n    function getTokenHash(uint256 tokenID) public view returns (bytes32) {\r\n        return collectibles[tokenID].collectibleHash;\r\n    }\r\n\r\n    function getTokenDescription(uint256 tokenID)\r\n        public\r\n        view\r\n        returns (string memory)\r\n    {\r\n        return collectibles[tokenID].collectibleDescription;\r\n    }\r\n\r\n    function getPriceOfCollectible(uint256 tokenID)\r\n        public\r\n        view\r\n        returns (uint256)\r\n    {\r\n        return collectibles[tokenID].lastTokenPrice;\r\n    }\r\n\r\n    function getAvailabilityOfToken(uint256 tokenID)\r\n        public\r\n        view\r\n        returns (bool)\r\n    {\r\n        return availableToTradeCollectibles[tokenID];\r\n    }\r\n\r\n    function getTokenCount() public view returns (uint256) {\r\n        return tokenCounter - 1;\r\n    }\r\n\r\n    function getTransactionFee() public view returns (uint256) {\r\n        return transactionFee;\r\n    }\r\n\r\n    event NewCollectible(address from, uint256 tokendID);\r\n\r\n    event CollectibleTransfer(address from, address to, uint256 tokendID);\r\n\r\n    event NewCollectiblePrice(uint256 tokenID, uint256 price);\r\n\r\n    event NewAvailabilityStatus(uint256 tokenID, bool availability);\r\n}\r\n",
  "sourcePath": "C:\\Users\\berk_\\Desktop\\GitHub Project Repositories\\berkcoin\\dapp\\contracts\\CollectibleToken.sol",
  "compiler": {
    "name": "solc",
    "version": "0.8.15+commit.e14f2714.Emscripten.clang"
  },
  "schemaVersion": "3.4.8",
  "updatedAt": "2022-07-24T14:44:02.635Z",
  "devdoc": {
    "kind": "dev",
    "methods": {},
    "version": 1
  },
  "userdoc": {
    "kind": "user",
    "methods": {},
    "version": 1
  }
}