{
  "contractName": "CryptoStaking",
  "abi": [
    {
      "anonymous": false,
      "inputs": [
        {
          "indexed": false,
          "internalType": "address",
          "name": "from",
          "type": "address"
        },
        {
          "indexed": false,
          "internalType": "uint256",
          "name": "amount",
          "type": "uint256"
        }
      ],
      "name": "Deposit",
      "type": "event"
    },
    {
      "anonymous": false,
      "inputs": [
        {
          "indexed": false,
          "internalType": "address",
          "name": "from",
          "type": "address"
        },
        {
          "indexed": false,
          "internalType": "uint256",
          "name": "amount",
          "type": "uint256"
        },
        {
          "indexed": false,
          "internalType": "uint256",
          "name": "duration",
          "type": "uint256"
        }
      ],
      "name": "Stake",
      "type": "event"
    },
    {
      "anonymous": false,
      "inputs": [
        {
          "indexed": false,
          "internalType": "address",
          "name": "from",
          "type": "address"
        }
      ],
      "name": "StakeCompleted",
      "type": "event"
    },
    {
      "anonymous": false,
      "inputs": [
        {
          "indexed": false,
          "internalType": "address",
          "name": "from",
          "type": "address"
        },
        {
          "indexed": false,
          "internalType": "uint256",
          "name": "duration",
          "type": "uint256"
        }
      ],
      "name": "StakeIsActive",
      "type": "event"
    },
    {
      "anonymous": false,
      "inputs": [
        {
          "indexed": false,
          "internalType": "address",
          "name": "from",
          "type": "address"
        },
        {
          "indexed": false,
          "internalType": "uint256",
          "name": "amount",
          "type": "uint256"
        }
      ],
      "name": "Withdraw",
      "type": "event"
    },
    {
      "inputs": [
        {
          "internalType": "address",
          "name": "",
          "type": "address"
        }
      ],
      "name": "accountStakeAmounts",
      "outputs": [
        {
          "internalType": "uint256",
          "name": "",
          "type": "uint256"
        }
      ],
      "stateMutability": "view",
      "type": "function",
      "constant": true
    },
    {
      "inputs": [
        {
          "internalType": "address",
          "name": "",
          "type": "address"
        }
      ],
      "name": "accountStakeDates",
      "outputs": [
        {
          "internalType": "uint256",
          "name": "",
          "type": "uint256"
        }
      ],
      "stateMutability": "view",
      "type": "function",
      "constant": true
    },
    {
      "inputs": [
        {
          "internalType": "address",
          "name": "",
          "type": "address"
        }
      ],
      "name": "balances",
      "outputs": [
        {
          "internalType": "uint256",
          "name": "",
          "type": "uint256"
        }
      ],
      "stateMutability": "view",
      "type": "function",
      "constant": true
    },
    {
      "inputs": [
        {
          "internalType": "address",
          "name": "",
          "type": "address"
        }
      ],
      "name": "latestStakeRewards",
      "outputs": [
        {
          "internalType": "uint256",
          "name": "",
          "type": "uint256"
        }
      ],
      "stateMutability": "view",
      "type": "function",
      "constant": true
    },
    {
      "inputs": [
        {
          "internalType": "uint256",
          "name": "duration",
          "type": "uint256"
        },
        {
          "internalType": "uint256",
          "name": "amountToBeStaked",
          "type": "uint256"
        }
      ],
      "name": "stake",
      "outputs": [],
      "stateMutability": "nonpayable",
      "type": "function"
    },
    {
      "inputs": [],
      "name": "deposit",
      "outputs": [],
      "stateMutability": "payable",
      "type": "function",
      "payable": true
    },
    {
      "inputs": [
        {
          "internalType": "uint256",
          "name": "amount",
          "type": "uint256"
        }
      ],
      "name": "withdraw",
      "outputs": [],
      "stateMutability": "nonpayable",
      "type": "function"
    },
    {
      "inputs": [],
      "name": "checkStakeStatus",
      "outputs": [],
      "stateMutability": "nonpayable",
      "type": "function"
    },
    {
      "inputs": [
        {
          "internalType": "address",
          "name": "publicAddress",
          "type": "address"
        }
      ],
      "name": "getBalance",
      "outputs": [
        {
          "internalType": "uint256",
          "name": "",
          "type": "uint256"
        }
      ],
      "stateMutability": "view",
      "type": "function",
      "constant": true
    }
  ],
  "bytecode": "0x608060405234801561001057600080fd5b506107f7806100206000396000f3fe6080604052600436106100865760003560e01c806357b273011161005957806357b27301146101465780637b0472f01461015b578063d0e30db01461017b578063df5a4b6414610183578063f8b2cb4f146101b057600080fd5b8063196ebdfd1461008b57806327e235e3146100ca5780632e1a7d4d146100f75780632e6b640c14610119575b600080fd5b34801561009757600080fd5b506100b86100a63660046106d0565b60036020526000908152604090205481565b60405190815260200160405180910390f35b3480156100d657600080fd5b506100b86100e53660046106d0565b60006020819052908152604090205481565b34801561010357600080fd5b50610117610112366004610700565b6101e6565b005b34801561012557600080fd5b506100b86101343660046106d0565b60016020526000908152604090205481565b34801561015257600080fd5b506101176102f3565b34801561016757600080fd5b50610117610176366004610719565b610387565b6101176105bd565b34801561018f57600080fd5b506100b861019e3660046106d0565b60026020526000908152604090205481565b3480156101bc57600080fd5b506100b86101cb3660046106d0565b6001600160a01b031660009081526020819052604090205490565b336000908152602081905260409020548111156102645760405162461bcd60e51b815260206004820152603160248201527f596f7520646f6e2774206861766520656e6f7567682066756e647320696e20796044820152706f75722062616e6b206163636f756e742160781b60648201526084015b60405180910390fd5b604051339082156108fc029083906000818181858888f19350505050158015610291573d6000803e3d6000fd5b5033600090815260208190526040812080548392906102b1908490610751565b909155505060408051338152602081018390527f884edad9ce6fa2440d8a54cc123490eb96d2768479d49ff9c7366125a942436491015b60405180910390a150565b3360009081526001602052604090205442811161034257610312610678565b6040513381527fa413e42c61420bd7d37579e855fd30e0233a6fcce5217b742816c4a389b9b7d2906020016102e8565b33600081815260016020908152604091829020548251938452908301527f779fdf274218c72d243de6ac01f1e744154325d9d32897ba81760e10c8a7844791016102e8565b336000908152602081905260409020548111156103f45760405162461bcd60e51b815260206004820152602560248201527f596f75206861766520696e73756666696369656e742066756e647320746f207360448201526474616b652160d81b606482015260840161025b565b336000908152600160205260409020541561046f5760405162461bcd60e51b815260206004820152603560248201527f54686973206163636f756e742068617320616c72656164792065737461626c69604482015274736865642061207374616b652070726f636573732160581b606482015260840161025b565b600082116104cb5760405162461bcd60e51b8152602060048201526024808201527f4475726174696f6e2073686f756c64206265206120706f7369746976652076616044820152636c75652160e01b606482015260840161025b565b33600090815260026020908152604080832084905590829052812080548392906104f6908490610751565b9091555061050690508242610768565b3360009081526001602052604090205561012c6003620151806105298585610780565b610533919061079f565b61053d9190610780565b610547919061079f565b336000908152600360209081526040808320849055600290915281208054909190610573908490610768565b909155505060408051338152602081018390529081018390527f5af417134f72a9d41143ace85b0a26dce6f550f894f2cbc1eeee8810603d91b69060600160405180910390a15050565b6001341161061d5760405162461bcd60e51b815260206004820152602760248201527f4465706f73697420616d6f756e74206d757374206265206d6f7265207468616e6044820152662031207765692160c81b606482015260840161025b565b3360009081526020819052604081208054349283929161063e908490610768565b9091555050604080513381523460208201527fe1fffcc4923d04b559f4d29a8bfc6cda04eb5b0d3c460751c2402c5c5cc9109c91016102e8565b336000908152600260209081526040808320549183905282208054919290916106a2908490610768565b9091555050336000908152600160209081526040808320839055600282528083208390556003909152812055565b6000602082840312156106e257600080fd5b81356001600160a01b03811681146106f957600080fd5b9392505050565b60006020828403121561071257600080fd5b5035919050565b6000806040838503121561072c57600080fd5b50508035926020909101359150565b634e487b7160e01b600052601160045260246000fd5b6000828210156107635761076361073b565b500390565b6000821982111561077b5761077b61073b565b500190565b600081600019048311821515161561079a5761079a61073b565b500290565b6000826107bc57634e487b7160e01b600052601260045260246000fd5b50049056fea264697066735822122048e035cb496771cbcb639a7cf2014759802cdce1b618bcbda0955e4b95c2032864736f6c634300080b0033",
  "immutableReferences": {},
  "source": "// SPDX-License-Identifier: MIT\r\n\r\n// ETH stake provider contract; peers can stake their funds to gain rewards.\r\n\r\npragma solidity ^0.8.0;\r\n\r\ncontract CryptoStaking {\r\n    mapping(address => uint256) public balances;\r\n    mapping(address => uint256) public accountStakeDates;\r\n    mapping(address => uint256) public accountStakeAmounts;\r\n    mapping(address => uint256) public latestStakeRewards;\r\n\r\n    // Stake reward rate\r\n    uint256 constant interest = 3;\r\n\r\n    // duration -> seconds\r\n    function stake(uint256 duration, uint256 amountToBeStaked) public {\r\n        require(\r\n            balances[msg.sender] >= amountToBeStaked,\r\n            \"You have insufficient funds to stake!\"\r\n        );\r\n\r\n        require(\r\n            accountStakeDates[msg.sender] == 0,\r\n            \"This account has already established a stake process!\"\r\n        );\r\n\r\n        require(duration > 0, \"Duration should be a positive value!\");\r\n\r\n        // Stake amounts of accounts:\r\n        accountStakeAmounts[msg.sender] = amountToBeStaked;\r\n\r\n        // Take out the staked amount from the user balance.\r\n        balances[msg.sender] -= amountToBeStaked;\r\n\r\n        // Timestamp for stake duration.\r\n        accountStakeDates[msg.sender] = block.timestamp + duration;\r\n\r\n        // Stake reward\r\n        latestStakeRewards[msg.sender] =\r\n            (((amountToBeStaked * duration) / (24 * 60 * 60)) * interest) /\r\n            300;\r\n        accountStakeAmounts[msg.sender] += latestStakeRewards[msg.sender];\r\n\r\n        emit Stake(msg.sender, amountToBeStaked, duration);\r\n    }\r\n\r\n    function deposit() public payable {\r\n        require(msg.value > 1, \"Deposit amount must be more than 1 wei!\");\r\n\r\n        uint256 depositedAmount = msg.value;\r\n        balances[msg.sender] += depositedAmount;\r\n\r\n        emit Deposit(msg.sender, msg.value);\r\n    }\r\n\r\n    function withdraw(uint256 amount) public {\r\n        require(\r\n            balances[msg.sender] >= amount,\r\n            \"You don't have enough funds in your bank account!\"\r\n        );\r\n\r\n        payable(msg.sender).transfer(amount);\r\n        balances[msg.sender] -= amount;\r\n\r\n        emit Withdraw(msg.sender, amount);\r\n    }\r\n\r\n    function checkStakeStatus() public {\r\n        uint256 stakeTimeStamp = accountStakeDates[msg.sender];\r\n\r\n        if (stakeTimeStamp <= block.timestamp) {\r\n            handleCompletedStake();\r\n            emit StakeCompleted(msg.sender);\r\n        } else {\r\n            emit StakeIsActive(msg.sender, accountStakeDates[msg.sender]);\r\n        }\r\n    }\r\n\r\n    // If account's stake duration is over, then we set stake parameters as 0\r\n    // after adding up the staked amount to the current balance.\r\n\r\n    function handleCompletedStake() private {\r\n        balances[msg.sender] += accountStakeAmounts[msg.sender];\r\n        accountStakeDates[msg.sender] = 0;\r\n        accountStakeAmounts[msg.sender] = 0;\r\n        latestStakeRewards[msg.sender] = 0;\r\n    }\r\n\r\n    function getBalance(address publicAddress) public view returns (uint256) {\r\n        return balances[publicAddress];\r\n    }\r\n\r\n    event Deposit(address from, uint256 amount);\r\n\r\n    event Withdraw(address from, uint256 amount);\r\n\r\n    event Stake(address from, uint256 amount, uint256 duration);\r\n\r\n    event StakeCompleted(address from);\r\n\r\n    event StakeIsActive(address from, uint256 duration);\r\n}\r\n",
  "sourcePath": "C:\\Users\\Berk\\Desktop\\GitHub Project Repositories\\berkcoin\\dapp\\contracts\\CryptoStaking.sol",
  "compiler": {
    "name": "solc",
    "version": "0.8.11+commit.d7f03943.Emscripten.clang"
  },
  "schemaVersion": "3.4.4",
  "updatedAt": "2022-02-11T18:53:36.548Z",
  "networkType": "ethereum",
  "devdoc": {
    "kind": "dev",
    "methods": {},
    "version": 1
  },
  "userdoc": {
    "kind": "user",
    "methods": {},
    "version": 1
  }
}