{
  "contractName": "Token",
  "abi": [
    {
      "inputs": [],
      "stateMutability": "nonpayable",
      "type": "constructor"
    },
    {
      "inputs": [
        {
          "internalType": "uint256",
          "name": "requested",
          "type": "uint256"
        },
        {
          "internalType": "uint256",
          "name": "available",
          "type": "uint256"
        }
      ],
      "name": "InsufficientBalance",
      "type": "error"
    },
    {
      "anonymous": false,
      "inputs": [
        {
          "indexed": false,
          "internalType": "address",
          "name": "from",
          "type": "address"
        },
        {
          "indexed": false,
          "internalType": "uint256",
          "name": "amount",
          "type": "uint256"
        }
      ],
      "name": "Deposit",
      "type": "event"
    },
    {
      "anonymous": false,
      "inputs": [
        {
          "indexed": false,
          "internalType": "address",
          "name": "from",
          "type": "address"
        },
        {
          "indexed": false,
          "internalType": "address",
          "name": "to",
          "type": "address"
        },
        {
          "indexed": false,
          "internalType": "uint256",
          "name": "amount",
          "type": "uint256"
        }
      ],
      "name": "Sent",
      "type": "event"
    },
    {
      "anonymous": false,
      "inputs": [
        {
          "indexed": false,
          "internalType": "address",
          "name": "from",
          "type": "address"
        },
        {
          "indexed": false,
          "internalType": "uint256",
          "name": "amount",
          "type": "uint256"
        }
      ],
      "name": "Withdraw",
      "type": "event"
    },
    {
      "inputs": [
        {
          "internalType": "address",
          "name": "",
          "type": "address"
        }
      ],
      "name": "balances",
      "outputs": [
        {
          "internalType": "uint256",
          "name": "",
          "type": "uint256"
        }
      ],
      "stateMutability": "view",
      "type": "function",
      "constant": true
    },
    {
      "inputs": [
        {
          "internalType": "address",
          "name": "receiver",
          "type": "address"
        },
        {
          "internalType": "uint256",
          "name": "amount",
          "type": "uint256"
        }
      ],
      "name": "send",
      "outputs": [],
      "stateMutability": "nonpayable",
      "type": "function"
    },
    {
      "inputs": [
        {
          "internalType": "address",
          "name": "publicAddress",
          "type": "address"
        }
      ],
      "name": "getBalance",
      "outputs": [
        {
          "internalType": "uint256",
          "name": "",
          "type": "uint256"
        }
      ],
      "stateMutability": "view",
      "type": "function",
      "constant": true
    },
    {
      "inputs": [],
      "name": "deposit",
      "outputs": [],
      "stateMutability": "payable",
      "type": "function",
      "payable": true
    },
    {
      "inputs": [
        {
          "internalType": "uint256",
          "name": "amount",
          "type": "uint256"
        }
      ],
      "name": "withdraw",
      "outputs": [],
      "stateMutability": "nonpayable",
      "type": "function"
    }
  ],
  "bytecode": "0x608060405234801561001057600080fd5b50600180546001600160a01b0319163317905561054f806100326000396000f3fe60806040526004361061004a5760003560e01c806327e235e31461004f5780632e1a7d4d1461008e578063d0679d34146100b0578063d0e30db0146100d0578063f8b2cb4f146100d8575b600080fd5b34801561005b57600080fd5b5061007c61006a36600461042e565b60006020819052908152604090205481565b60405190815260200160405180910390f35b34801561009a57600080fd5b506100ae6100a9366004610450565b61010e565b005b3480156100bc57600080fd5b506100ae6100cb366004610469565b61022c565b6100ae610340565b3480156100e457600080fd5b5061007c6100f336600461042e565b6001600160a01b031660009081526020819052604090205490565b3360009081526020819052604090205481111561018c5760405162461bcd60e51b815260206004820152603160248201527f596f7520646f6e2774206861766520656e6f7567682066756e647320696e20796044820152706f75722062616e6b206163636f756e742160781b60648201526084015b60405180910390fd5b336108fc6101a283670de0b6b3a76400006104a9565b6040518115909202916000818181858888f193505050501580156101ca573d6000803e3d6000fd5b5033600090815260208190526040812080548392906101ea9084906104c8565b909155505060408051338152602081018390527f884edad9ce6fa2440d8a54cc123490eb96d2768479d49ff9c7366125a942436491015b60405180910390a150565b6001546001600160a01b03166000908152602081905260409020548111156102a25760405162461bcd60e51b8152602060048201526024808201527f596f7520646f6e2774206861766520656e6f7567682066756e647320746f2073604482015263656e642160e01b6064820152608401610183565b33600090815260208190526040812080548392906102c19084906104c8565b90915550506001600160a01b038216600090815260208190526040812080548392906102ee9084906104df565b9091555050604080513381526001600160a01b03841660208201529081018290527f3990db2d31862302a685e8086b5755072a6e2b5b780af1ee81ece35ee3cd33459060600160405180910390a15050565b600134116103a05760405162461bcd60e51b815260206004820152602760248201527f4465706f73697420616d6f756e74206d757374206265206d6f7265207468616e6044820152662031207765692160c81b6064820152608401610183565b60006103b4670de0b6b3a7640000346104f7565b336000908152602081905260408120805492935083929091906103d89084906104df565b9091555050604080513381523460208201527fe1fffcc4923d04b559f4d29a8bfc6cda04eb5b0d3c460751c2402c5c5cc9109c9101610221565b80356001600160a01b038116811461042957600080fd5b919050565b60006020828403121561044057600080fd5b61044982610412565b9392505050565b60006020828403121561046257600080fd5b5035919050565b6000806040838503121561047c57600080fd5b61048583610412565b946020939093013593505050565b634e487b7160e01b600052601160045260246000fd5b60008160001904831182151516156104c3576104c3610493565b500290565b6000828210156104da576104da610493565b500390565b600082198211156104f2576104f2610493565b500190565b60008261051457634e487b7160e01b600052601260045260246000fd5b50049056fea2646970667358221220b2110dc548a6e01a650383b9bc8f7fedb1afca522911ee322fc1dd089c8aa61864736f6c634300080b0033",
  "immutableReferences": {},
  "source": "// SPDX-License-Identifier: MIT\r\npragma solidity ^0.8.0;\r\n\r\n// For this project, I can merge my previous two smart contracts into one contract\r\n// or i can use the same layout ( Stakers can provide services in a different node.)\r\n// So, users can buy (swap) tokens with ETH and stake them via a staker.\r\n\r\ncontract Token {\r\n    mapping(address => uint256) public balances;\r\n    address payable owner;\r\n\r\n    constructor() {\r\n        owner = payable(msg.sender);\r\n    }\r\n\r\n    // receive() external payable {}\r\n\r\n    /*\r\n     * Transaction is processed withing cryptoBank.\r\n     * From: 0x23bc92ca3d8dd080dd65914e40bad5a5bec93769 : owner\r\n     * to:  0xd2d656253b91c5915cafdcd8b3a5249950739e10 : receiver\r\n     */\r\n\r\n    function send(address receiver, uint256 amount) public {\r\n        require(\r\n            balances[owner] >= amount,\r\n            \"You don't have enough funds to send!\"\r\n        );\r\n\r\n        balances[msg.sender] -= amount;\r\n        balances[receiver] += amount;\r\n\r\n        emit Sent(msg.sender, receiver, amount);\r\n    }\r\n\r\n    function getBalance(address publicAddress) public view returns (uint256) {\r\n        return balances[publicAddress];\r\n    }\r\n\r\n    // A conversion rate between ETH and banks currency can be included.\r\n    // But for now, I assume bank's currency is in ETH.\r\n\r\n    function deposit() public payable {\r\n        require(msg.value > 1, \"Deposit amount must be more than 1 wei!\");\r\n\r\n        uint256 depositedAmount = msg.value / 10**18;\r\n        balances[msg.sender] += depositedAmount;\r\n\r\n        emit Deposit(msg.sender, msg.value);\r\n    }\r\n\r\n    function withdraw(uint256 amount) public {\r\n        require(\r\n            balances[msg.sender] >= amount,\r\n            \"You don't have enough funds in your bank account!\"\r\n        );\r\n\r\n        payable(msg.sender).transfer(amount * 10**18);\r\n        balances[msg.sender] -= amount;\r\n\r\n        emit Withdraw(msg.sender, amount);\r\n    }\r\n\r\n    error InsufficientBalance(uint256 requested, uint256 available);\r\n\r\n    event Sent(address from, address to, uint256 amount);\r\n\r\n    event Deposit(address from, uint256 amount);\r\n\r\n    event Withdraw(address from, uint256 amount);\r\n}\r\n",
  "sourcePath": "C:\\Users\\Berk\\Desktop\\GitHub Project Repositories\\berkcoin\\dapp\\contracts\\Token.sol",
  "compiler": {
    "name": "solc",
    "version": "0.8.11+commit.d7f03943.Emscripten.clang"
  },
  "schemaVersion": "3.4.4",
  "updatedAt": "2022-02-11T18:53:36.536Z",
  "networkType": "ethereum",
  "devdoc": {
    "kind": "dev",
    "methods": {},
    "version": 1
  },
  "userdoc": {
    "kind": "user",
    "methods": {},
    "version": 1
  }
}